{
  "address": "0x3dFfbb5cbd7d324277D0e4f4F0dE4F07275b1ab5",
  "abi": [
    {
      "inputs": [
        {
          "internalType": "address",
          "name": "_endpoint",
          "type": "address"
        },
        {
          "internalType": "address",
          "name": "_delegate",
          "type": "address"
        }
      ],
      "stateMutability": "nonpayable",
      "type": "constructor"
    },
    {
      "inputs": [],
      "name": "InvalidDelegate",
      "type": "error"
    },
    {
      "inputs": [],
      "name": "InvalidEndpointCall",
      "type": "error"
    },
    {
      "inputs": [
        {
          "internalType": "bytes",
          "name": "options",
          "type": "bytes"
        }
      ],
      "name": "InvalidOptions",
      "type": "error"
    },
    {
      "inputs": [],
      "name": "LzTokenUnavailable",
      "type": "error"
    },
    {
      "inputs": [
        {
          "internalType": "uint32",
          "name": "eid",
          "type": "uint32"
        }
      ],
      "name": "NoPeer",
      "type": "error"
    },
    {
      "inputs": [
        {
          "internalType": "uint256",
          "name": "msgValue",
          "type": "uint256"
        }
      ],
      "name": "NotEnoughNative",
      "type": "error"
    },
    {
      "inputs": [
        {
          "internalType": "address",
          "name": "addr",
          "type": "address"
        }
      ],
      "name": "OnlyEndpoint",
      "type": "error"
    },
    {
      "inputs": [
        {
          "internalType": "uint32",
          "name": "eid",
          "type": "uint32"
        },
        {
          "internalType": "bytes32",
          "name": "sender",
          "type": "bytes32"
        }
      ],
      "name": "OnlyPeer",
      "type": "error"
    },
    {
      "inputs": [
        {
          "internalType": "address",
          "name": "owner",
          "type": "address"
        }
      ],
      "name": "OwnableInvalidOwner",
      "type": "error"
    },
    {
      "inputs": [
        {
          "internalType": "address",
          "name": "account",
          "type": "address"
        }
      ],
      "name": "OwnableUnauthorizedAccount",
      "type": "error"
    },
    {
      "inputs": [
        {
          "internalType": "address",
          "name": "token",
          "type": "address"
        }
      ],
      "name": "SafeERC20FailedOperation",
      "type": "error"
    },
    {
      "anonymous": false,
      "inputs": [
        {
          "indexed": true,
          "internalType": "address",
          "name": "admin",
          "type": "address"
        }
      ],
      "name": "AdminAdded",
      "type": "event"
    },
    {
      "anonymous": false,
      "inputs": [
        {
          "indexed": true,
          "internalType": "address",
          "name": "admin",
          "type": "address"
        }
      ],
      "name": "AdminRemoved",
      "type": "event"
    },
    {
      "anonymous": false,
      "inputs": [
        {
          "indexed": true,
          "internalType": "address",
          "name": "creator",
          "type": "address"
        }
      ],
      "name": "BetCreatorAdded",
      "type": "event"
    },
    {
      "anonymous": false,
      "inputs": [
        {
          "indexed": true,
          "internalType": "address",
          "name": "creator",
          "type": "address"
        }
      ],
      "name": "BetCreatorRemoved",
      "type": "event"
    },
    {
      "anonymous": false,
      "inputs": [
        {
          "indexed": true,
          "internalType": "address",
          "name": "user",
          "type": "address"
        },
        {
          "indexed": true,
          "internalType": "uint256",
          "name": "marketId",
          "type": "uint256"
        },
        {
          "indexed": false,
          "internalType": "uint256",
          "name": "amount",
          "type": "uint256"
        },
        {
          "indexed": false,
          "internalType": "uint256",
          "name": "optionIndex",
          "type": "uint256"
        }
      ],
      "name": "BetPlaced",
      "type": "event"
    },
    {
      "anonymous": false,
      "inputs": [
        {
          "components": [
            {
              "internalType": "uint32",
              "name": "eid",
              "type": "uint32"
            },
            {
              "internalType": "uint16",
              "name": "msgType",
              "type": "uint16"
            },
            {
              "internalType": "bytes",
              "name": "options",
              "type": "bytes"
            }
          ],
          "indexed": false,
          "internalType": "struct EnforcedOptionParam[]",
          "name": "_enforcedOptions",
          "type": "tuple[]"
        }
      ],
      "name": "EnforcedOptionSet",
      "type": "event"
    },
    {
      "anonymous": false,
      "inputs": [
        {
          "indexed": true,
          "internalType": "uint256",
          "name": "marketId",
          "type": "uint256"
        },
        {
          "indexed": false,
          "internalType": "string",
          "name": "description",
          "type": "string"
        },
        {
          "indexed": false,
          "internalType": "uint256",
          "name": "expirationDate",
          "type": "uint256"
        },
        {
          "indexed": false,
          "internalType": "uint256",
          "name": "verificationTime",
          "type": "uint256"
        }
      ],
      "name": "MarketCreated",
      "type": "event"
    },
    {
      "anonymous": false,
      "inputs": [
        {
          "indexed": false,
          "internalType": "uint256",
          "name": "marketId",
          "type": "uint256"
        },
        {
          "indexed": false,
          "internalType": "int256",
          "name": "outcome",
          "type": "int256"
        }
      ],
      "name": "MarketDataReceived",
      "type": "event"
    },
    {
      "anonymous": false,
      "inputs": [
        {
          "indexed": true,
          "internalType": "uint256",
          "name": "marketId",
          "type": "uint256"
        },
        {
          "indexed": false,
          "internalType": "bool",
          "name": "outcome",
          "type": "bool"
        }
      ],
      "name": "MarketResolved",
      "type": "event"
    },
    {
      "anonymous": false,
      "inputs": [
        {
          "indexed": true,
          "internalType": "address",
          "name": "previousOwner",
          "type": "address"
        },
        {
          "indexed": true,
          "internalType": "address",
          "name": "newOwner",
          "type": "address"
        }
      ],
      "name": "OwnershipTransferred",
      "type": "event"
    },
    {
      "anonymous": false,
      "inputs": [
        {
          "indexed": false,
          "internalType": "uint32",
          "name": "eid",
          "type": "uint32"
        },
        {
          "indexed": false,
          "internalType": "bytes32",
          "name": "peer",
          "type": "bytes32"
        }
      ],
      "name": "PeerSet",
      "type": "event"
    },
    {
      "anonymous": false,
      "inputs": [
        {
          "indexed": false,
          "internalType": "uint256",
          "name": "amount",
          "type": "uint256"
        }
      ],
      "name": "PlatformFeesWithdrawn",
      "type": "event"
    },
    {
      "anonymous": false,
      "inputs": [
        {
          "indexed": true,
          "internalType": "uint256",
          "name": "marketId",
          "type": "uint256"
        },
        {
          "indexed": false,
          "internalType": "uint256",
          "name": "requestTime",
          "type": "uint256"
        }
      ],
      "name": "SettlementRequested",
      "type": "event"
    },
    {
      "anonymous": false,
      "inputs": [
        {
          "indexed": true,
          "internalType": "address",
          "name": "user",
          "type": "address"
        },
        {
          "indexed": true,
          "internalType": "uint256",
          "name": "marketId",
          "type": "uint256"
        },
        {
          "indexed": false,
          "internalType": "uint256",
          "name": "amount",
          "type": "uint256"
        }
      ],
      "name": "WinningsClaimed",
      "type": "event"
    },
    {
      "inputs": [],
      "name": "PLATFORM_FEE",
      "outputs": [
        {
          "internalType": "uint256",
          "name": "",
          "type": "uint256"
        }
      ],
      "stateMutability": "view",
      "type": "function"
    },
    {
      "inputs": [
        {
          "internalType": "address",
          "name": "newAdmin",
          "type": "address"
        }
      ],
      "name": "addAdmin",
      "outputs": [],
      "stateMutability": "nonpayable",
      "type": "function"
    },
    {
      "inputs": [
        {
          "internalType": "address",
          "name": "creator",
          "type": "address"
        }
      ],
      "name": "addBetCreator",
      "outputs": [],
      "stateMutability": "nonpayable",
      "type": "function"
    },
    {
      "inputs": [
        {
          "internalType": "address",
          "name": "",
          "type": "address"
        }
      ],
      "name": "admins",
      "outputs": [
        {
          "internalType": "bool",
          "name": "",
          "type": "bool"
        }
      ],
      "stateMutability": "view",
      "type": "function"
    },
    {
      "inputs": [
        {
          "components": [
            {
              "internalType": "uint32",
              "name": "srcEid",
              "type": "uint32"
            },
            {
              "internalType": "bytes32",
              "name": "sender",
              "type": "bytes32"
            },
            {
              "internalType": "uint64",
              "name": "nonce",
              "type": "uint64"
            }
          ],
          "internalType": "struct Origin",
          "name": "origin",
          "type": "tuple"
        }
      ],
      "name": "allowInitializePath",
      "outputs": [
        {
          "internalType": "bool",
          "name": "",
          "type": "bool"
        }
      ],
      "stateMutability": "view",
      "type": "function"
    },
    {
      "inputs": [
        {
          "internalType": "address",
          "name": "",
          "type": "address"
        }
      ],
      "name": "betCreators",
      "outputs": [
        {
          "internalType": "bool",
          "name": "",
          "type": "bool"
        }
      ],
      "stateMutability": "view",
      "type": "function"
    },
    {
      "inputs": [
        {
          "internalType": "uint256",
          "name": "marketId",
          "type": "uint256"
        }
      ],
      "name": "claimWinnings",
      "outputs": [],
      "stateMutability": "nonpayable",
      "type": "function"
    },
    {
      "inputs": [
        {
          "internalType": "uint32",
          "name": "_eid",
          "type": "uint32"
        },
        {
          "internalType": "uint16",
          "name": "_msgType",
          "type": "uint16"
        },
        {
          "internalType": "bytes",
          "name": "_extraOptions",
          "type": "bytes"
        }
      ],
      "name": "combineOptions",
      "outputs": [
        {
          "internalType": "bytes",
          "name": "",
          "type": "bytes"
        }
      ],
      "stateMutability": "view",
      "type": "function"
    },
    {
      "inputs": [
        {
          "internalType": "string",
          "name": "title",
          "type": "string"
        },
        {
          "internalType": "string",
          "name": "description",
          "type": "string"
        },
        {
          "internalType": "string[]",
          "name": "options",
          "type": "string[]"
        },
        {
          "internalType": "uint256",
          "name": "expirationDate",
          "type": "uint256"
        },
        {
          "internalType": "uint256",
          "name": "_verificationTime",
          "type": "uint256"
        },
        {
          "internalType": "string",
          "name": "imageUrl",
          "type": "string"
        },
        {
          "internalType": "enum FlowContract.MarketCategory",
          "name": "category",
          "type": "uint8"
        }
      ],
      "name": "createMarketAdmin",
      "outputs": [],
      "stateMutability": "nonpayable",
      "type": "function"
    },
    {
      "inputs": [],
      "name": "data",
      "outputs": [
        {
          "internalType": "string",
          "name": "",
          "type": "string"
        }
      ],
      "stateMutability": "view",
      "type": "function"
    },
    {
      "inputs": [],
      "name": "endpoint",
      "outputs": [
        {
          "internalType": "contract ILayerZeroEndpointV2",
          "name": "",
          "type": "address"
        }
      ],
      "stateMutability": "view",
      "type": "function"
    },
    {
      "inputs": [
        {
          "internalType": "uint32",
          "name": "eid",
          "type": "uint32"
        },
        {
          "internalType": "uint16",
          "name": "msgType",
          "type": "uint16"
        }
      ],
      "name": "enforcedOptions",
      "outputs": [
        {
          "internalType": "bytes",
          "name": "enforcedOption",
          "type": "bytes"
        }
      ],
      "stateMutability": "view",
      "type": "function"
    },
    {
      "inputs": [],
      "name": "getAllMarketIds",
      "outputs": [
        {
          "internalType": "uint256[]",
          "name": "",
          "type": "uint256[]"
        }
      ],
      "stateMutability": "view",
      "type": "function"
    },
    {
      "inputs": [],
      "name": "getAllMarkets",
      "outputs": [
        {
          "components": [
            {
              "internalType": "uint256",
              "name": "marketId",
              "type": "uint256"
            },
            {
              "internalType": "string",
              "name": "description",
              "type": "string"
            },
            {
              "internalType": "address",
              "name": "creator",
              "type": "address"
            },
            {
              "internalType": "uint256",
              "name": "expirationDate",
              "type": "uint256"
            },
            {
              "internalType": "uint256",
              "name": "verificationTime",
              "type": "uint256"
            },
            {
              "internalType": "bool",
              "name": "isResolved",
              "type": "bool"
            },
            {
              "internalType": "uint256[]",
              "name": "optionAmounts",
              "type": "uint256[]"
            },
            {
              "internalType": "uint256",
              "name": "requestTime",
              "type": "uint256"
            },
            {
              "internalType": "int256",
              "name": "outcome",
              "type": "int256"
            },
            {
              "internalType": "enum FlowContract.MarketCategory",
              "name": "category",
              "type": "uint8"
            },
            {
              "internalType": "string",
              "name": "imageUrl",
              "type": "string"
            },
            {
              "internalType": "uint256",
              "name": "optionCount",
              "type": "uint256"
            }
          ],
          "internalType": "struct FlowContract.MarketView[]",
          "name": "",
          "type": "tuple[]"
        }
      ],
      "stateMutability": "view",
      "type": "function"
    },
    {
      "inputs": [
        {
          "internalType": "uint256",
          "name": "marketId",
          "type": "uint256"
        }
      ],
      "name": "getMarketDetails",
      "outputs": [
        {
          "internalType": "uint256",
          "name": "id",
          "type": "uint256"
        },
        {
          "internalType": "string",
          "name": "description",
          "type": "string"
        },
        {
          "internalType": "address",
          "name": "creator",
          "type": "address"
        },
        {
          "internalType": "uint256",
          "name": "expirationDate",
          "type": "uint256"
        },
        {
          "internalType": "uint256",
          "name": "verificationTime",
          "type": "uint256"
        },
        {
          "internalType": "bool",
          "name": "isResolved",
          "type": "bool"
        },
        {
          "internalType": "uint256[]",
          "name": "optionAmounts",
          "type": "uint256[]"
        },
        {
          "internalType": "uint256",
          "name": "requestTime",
          "type": "uint256"
        },
        {
          "internalType": "int256",
          "name": "outcome",
          "type": "int256"
        },
        {
          "internalType": "enum FlowContract.MarketCategory",
          "name": "category",
          "type": "uint8"
        },
        {
          "internalType": "string",
          "name": "imageUrl",
          "type": "string"
        },
        {
          "internalType": "uint256",
          "name": "optionCount",
          "type": "uint256"
        }
      ],
      "stateMutability": "view",
      "type": "function"
    },
    {
      "inputs": [
        {
          "internalType": "uint256",
          "name": "marketId",
          "type": "uint256"
        }
      ],
      "name": "getTotalPoolSize",
      "outputs": [
        {
          "internalType": "uint256",
          "name": "",
          "type": "uint256"
        }
      ],
      "stateMutability": "view",
      "type": "function"
    },
    {
      "inputs": [
        {
          "internalType": "address",
          "name": "user",
          "type": "address"
        },
        {
          "internalType": "uint256",
          "name": "marketId",
          "type": "uint256"
        }
      ],
      "name": "getUserBet",
      "outputs": [
        {
          "internalType": "uint256[]",
          "name": "optionAmounts",
          "type": "uint256[]"
        },
        {
          "internalType": "bool",
          "name": "claimed",
          "type": "bool"
        }
      ],
      "stateMutability": "view",
      "type": "function"
    },
    {
      "inputs": [
        {
          "components": [
            {
              "internalType": "uint32",
              "name": "srcEid",
              "type": "uint32"
            },
            {
              "internalType": "bytes32",
              "name": "sender",
              "type": "bytes32"
            },
            {
              "internalType": "uint64",
              "name": "nonce",
              "type": "uint64"
            }
          ],
          "internalType": "struct Origin",
          "name": "",
          "type": "tuple"
        },
        {
          "internalType": "bytes",
          "name": "",
          "type": "bytes"
        },
        {
          "internalType": "address",
          "name": "_sender",
          "type": "address"
        }
      ],
      "name": "isComposeMsgSender",
      "outputs": [
        {
          "internalType": "bool",
          "name": "",
          "type": "bool"
        }
      ],
      "stateMutability": "view",
      "type": "function"
    },
    {
      "inputs": [
        {
          "components": [
            {
              "internalType": "uint32",
              "name": "srcEid",
              "type": "uint32"
            },
            {
              "internalType": "bytes32",
              "name": "sender",
              "type": "bytes32"
            },
            {
              "internalType": "uint64",
              "name": "nonce",
              "type": "uint64"
            }
          ],
          "internalType": "struct Origin",
          "name": "_origin",
          "type": "tuple"
        },
        {
          "internalType": "bytes32",
          "name": "_guid",
          "type": "bytes32"
        },
        {
          "internalType": "bytes",
          "name": "_message",
          "type": "bytes"
        },
        {
          "internalType": "address",
          "name": "_executor",
          "type": "address"
        },
        {
          "internalType": "bytes",
          "name": "_extraData",
          "type": "bytes"
        }
      ],
      "name": "lzReceive",
      "outputs": [],
      "stateMutability": "payable",
      "type": "function"
    },
    {
      "inputs": [],
      "name": "marketCount",
      "outputs": [
        {
          "internalType": "uint256",
          "name": "",
          "type": "uint256"
        }
      ],
      "stateMutability": "view",
      "type": "function"
    },
    {
      "inputs": [
        {
          "internalType": "uint256",
          "name": "",
          "type": "uint256"
        }
      ],
      "name": "marketIds",
      "outputs": [
        {
          "internalType": "uint256",
          "name": "",
          "type": "uint256"
        }
      ],
      "stateMutability": "view",
      "type": "function"
    },
    {
      "inputs": [
        {
          "internalType": "uint256",
          "name": "",
          "type": "uint256"
        }
      ],
      "name": "markets",
      "outputs": [
        {
          "internalType": "string",
          "name": "description",
          "type": "string"
        },
        {
          "internalType": "address",
          "name": "creator",
          "type": "address"
        },
        {
          "internalType": "uint256",
          "name": "expirationDate",
          "type": "uint256"
        },
        {
          "internalType": "uint256",
          "name": "verificationTime",
          "type": "uint256"
        },
        {
          "internalType": "bool",
          "name": "isResolved",
          "type": "bool"
        },
        {
          "internalType": "uint256",
          "name": "requestTime",
          "type": "uint256"
        },
        {
          "internalType": "int256",
          "name": "outcome",
          "type": "int256"
        },
        {
          "internalType": "bytes",
          "name": "questionText",
          "type": "bytes"
        },
        {
          "internalType": "string",
          "name": "imageUrl",
          "type": "string"
        },
        {
          "internalType": "enum FlowContract.MarketCategory",
          "name": "category",
          "type": "uint8"
        },
        {
          "internalType": "uint256",
          "name": "optionCount",
          "type": "uint256"
        }
      ],
      "stateMutability": "view",
      "type": "function"
    },
    {
      "inputs": [
        {
          "internalType": "uint32",
          "name": "",
          "type": "uint32"
        },
        {
          "internalType": "bytes32",
          "name": "",
          "type": "bytes32"
        }
      ],
      "name": "nextNonce",
      "outputs": [
        {
          "internalType": "uint64",
          "name": "nonce",
          "type": "uint64"
        }
      ],
      "stateMutability": "view",
      "type": "function"
    },
    {
      "inputs": [],
      "name": "oAppVersion",
      "outputs": [
        {
          "internalType": "uint64",
          "name": "senderVersion",
          "type": "uint64"
        },
        {
          "internalType": "uint64",
          "name": "receiverVersion",
          "type": "uint64"
        }
      ],
      "stateMutability": "pure",
      "type": "function"
    },
    {
      "inputs": [],
      "name": "owner",
      "outputs": [
        {
          "internalType": "address",
          "name": "",
          "type": "address"
        }
      ],
      "stateMutability": "view",
      "type": "function"
    },
    {
      "inputs": [
        {
          "internalType": "uint32",
          "name": "eid",
          "type": "uint32"
        }
      ],
      "name": "peers",
      "outputs": [
        {
          "internalType": "bytes32",
          "name": "peer",
          "type": "bytes32"
        }
      ],
      "stateMutability": "view",
      "type": "function"
    },
    {
      "inputs": [
        {
          "internalType": "uint256",
          "name": "marketId",
          "type": "uint256"
        },
        {
          "internalType": "uint256",
          "name": "optionIndex",
          "type": "uint256"
        }
      ],
      "name": "placeBet",
      "outputs": [],
      "stateMutability": "payable",
      "type": "function"
    },
    {
      "inputs": [
        {
          "internalType": "uint256",
          "name": "marketId",
          "type": "uint256"
        },
        {
          "internalType": "bool",
          "name": "isYes",
          "type": "bool"
        }
      ],
      "name": "placeBetYesNo",
      "outputs": [],
      "stateMutability": "payable",
      "type": "function"
    },
    {
      "inputs": [],
      "name": "platformBalance",
      "outputs": [
        {
          "internalType": "uint256",
          "name": "",
          "type": "uint256"
        }
      ],
      "stateMutability": "view",
      "type": "function"
    },
    {
      "inputs": [
        {
          "internalType": "uint32",
          "name": "_dstEid",
          "type": "uint32"
        },
        {
          "internalType": "string",
          "name": "_message",
          "type": "string"
        },
        {
          "internalType": "bytes",
          "name": "_options",
          "type": "bytes"
        },
        {
          "internalType": "bool",
          "name": "_payInLzToken",
          "type": "bool"
        }
      ],
      "name": "quote",
      "outputs": [
        {
          "components": [
            {
              "internalType": "uint256",
              "name": "nativeFee",
              "type": "uint256"
            },
            {
              "internalType": "uint256",
              "name": "lzTokenFee",
              "type": "uint256"
            }
          ],
          "internalType": "struct MessagingFee",
          "name": "fee",
          "type": "tuple"
        }
      ],
      "stateMutability": "view",
      "type": "function"
    },
    {
      "inputs": [
        {
          "internalType": "address",
          "name": "admin",
          "type": "address"
        }
      ],
      "name": "removeAdmin",
      "outputs": [],
      "stateMutability": "nonpayable",
      "type": "function"
    },
    {
      "inputs": [
        {
          "internalType": "address",
          "name": "creator",
          "type": "address"
        }
      ],
      "name": "removeBetCreator",
      "outputs": [],
      "stateMutability": "nonpayable",
      "type": "function"
    },
    {
      "inputs": [],
      "name": "renounceOwnership",
      "outputs": [],
      "stateMutability": "nonpayable",
      "type": "function"
    },
    {
      "inputs": [
        {
          "internalType": "uint32",
          "name": "_dstEid",
          "type": "uint32"
        },
        {
          "internalType": "string",
          "name": "_message",
          "type": "string"
        },
        {
          "internalType": "bytes",
          "name": "_options",
          "type": "bytes"
        }
      ],
      "name": "send",
      "outputs": [
        {
          "components": [
            {
              "internalType": "bytes32",
              "name": "guid",
              "type": "bytes32"
            },
            {
              "internalType": "uint64",
              "name": "nonce",
              "type": "uint64"
            },
            {
              "components": [
                {
                  "internalType": "uint256",
                  "name": "nativeFee",
                  "type": "uint256"
                },
                {
                  "internalType": "uint256",
                  "name": "lzTokenFee",
                  "type": "uint256"
                }
              ],
              "internalType": "struct MessagingFee",
              "name": "fee",
              "type": "tuple"
            }
          ],
          "internalType": "struct MessagingReceipt",
          "name": "receipt",
          "type": "tuple"
        }
      ],
      "stateMutability": "payable",
      "type": "function"
    },
    {
      "inputs": [
        {
          "internalType": "address",
          "name": "_delegate",
          "type": "address"
        }
      ],
      "name": "setDelegate",
      "outputs": [],
      "stateMutability": "nonpayable",
      "type": "function"
    },
    {
      "inputs": [
        {
          "components": [
            {
              "internalType": "uint32",
              "name": "eid",
              "type": "uint32"
            },
            {
              "internalType": "uint16",
              "name": "msgType",
              "type": "uint16"
            },
            {
              "internalType": "bytes",
              "name": "options",
              "type": "bytes"
            }
          ],
          "internalType": "struct EnforcedOptionParam[]",
          "name": "_enforcedOptions",
          "type": "tuple[]"
        }
      ],
      "name": "setEnforcedOptions",
      "outputs": [],
      "stateMutability": "nonpayable",
      "type": "function"
    },
    {
      "inputs": [
        {
          "internalType": "uint32",
          "name": "_eid",
          "type": "uint32"
        },
        {
          "internalType": "bytes32",
          "name": "_peer",
          "type": "bytes32"
        }
      ],
      "name": "setPeer",
      "outputs": [],
      "stateMutability": "nonpayable",
      "type": "function"
    },
    {
      "inputs": [
        {
          "internalType": "address",
          "name": "newOwner",
          "type": "address"
        }
      ],
      "name": "transferOwnership",
      "outputs": [],
      "stateMutability": "nonpayable",
      "type": "function"
    },
    {
      "inputs": [],
      "name": "withdrawPlatformFees",
      "outputs": [],
      "stateMutability": "nonpayable",
      "type": "function"
    }
  ],
  "transactionHash": "0xe78af7453eabab1f11dcf4007c448f23fb0419b698dc1998b0bd481fe21237aa",
  "args": [
    "0x6C7Ab2202C98C4227C5c46f1417D81144DA716Ff",
    "0x504b635B7E22F8DF7d037cf31639811AE583E9f0"
  ],
  "numDeployments": 1,
  "solcInputHash": "1ea68fe196db437b170f822ed09cc3e4",
  "bytecode": "0x60e0604052601560a09081527f4e6f7468696e67207265636569766564207965742e000000000000000000000060c0526003906200003e908262000241565b503480156200004c57600080fd5b5060405162004a1c38038062004a1c8339810160408190526200006f916200032a565b81818181806001600160a01b038116620000a357604051631e4fbdf760e01b81526000600482015260240160405180910390fd5b620000ae816200014a565b506001600160a01b038083166080528116620000dd57604051632d618d8160e21b815260040160405180910390fd5b60805160405163ca5eb5e160e01b81526001600160a01b0383811660048301529091169063ca5eb5e190602401600060405180830381600087803b1580156200012557600080fd5b505af11580156200013a573d6000803e3d6000fd5b5050505050505050505062000362565b600080546001600160a01b038381166001600160a01b0319831681178455604051919092169283917f8be0079c531659141344cd1fd0a4f28419497f9722a3daafe3b4186f6b6457e09190a35050565b634e487b7160e01b600052604160045260246000fd5b600181811c90821680620001c557607f821691505b602082108103620001e657634e487b7160e01b600052602260045260246000fd5b50919050565b601f8211156200023c576000816000526020600020601f850160051c81016020861015620002175750805b601f850160051c820191505b81811015620002385782815560010162000223565b5050505b505050565b81516001600160401b038111156200025d576200025d6200019a565b62000275816200026e8454620001b0565b84620001ec565b602080601f831160018114620002ad5760008415620002945750858301515b600019600386901b1c1916600185901b17855562000238565b600085815260208120601f198616915b82811015620002de57888601518255948401946001909101908401620002bd565b5085821015620002fd5787850151600019600388901b60f8161c191681555b5050505050600190811b01905550565b80516001600160a01b03811681146200032557600080fd5b919050565b600080604083850312156200033e57600080fd5b62000349836200030d565b915062000359602084016200030d565b90509250929050565b608051614674620003a8600039600081816103870152818161084a01528181611d90015281816129ee01528181612adc01528181612d410152612dfa01526146746000f3fe6080604052600436106102305760003560e01c8063a3776fe51161012e578063ca5eb5e1116100ab578063ec9790821161006f578063ec979082146106fd578063f2fde38b14610713578063f72a8f3514610733578063f77e5dd314610753578063ff7bd03d1461078057600080fd5b8063ca5eb5e114610667578063d0b7830b14610687578063de87b07d1461069c578063e0539e58146106ca578063e4e8eb11146106ea57600080fd5b8063b85ed636116100f2578063b85ed636146105a8578063b98bd070146105ca578063bb0b6a53146105ea578063bc70b35414610617578063c4789f5a1461063757600080fd5b8063a3776fe5146104d7578063b06c1ba3146104f7578063b0772d0b1461052f578063b1283e7714610551578063b511cd461461058857600080fd5b80635e280f11116101bc57806373d4a13a1161018057806373d4a13a1461042c578063779a9683146104415780637d25a05e1461046157806382413eac146104995780638da5cb5b146104b957600080fd5b80635e280f111461037557806362a5dbbc146103c1578063677bd9ff146103d757806370480275146103f7578063715018a61461041757600080fd5b80633400288b116102035780633400288b146102b157806334fbc9a1146102d1578063429b62e5146102f55780634afe62b5146103355780635535d4611461034857600080fd5b80630e58ca411461023557806313137d651461025757806317442b701461026a5780631785f53c14610291575b600080fd5b34801561024157600080fd5b506102556102503660046133de565b6107a0565b005b61025561026536600461345b565b610848565b34801561027657600080fd5b50604080516001815260026020820152015b60405180910390f35b34801561029d57600080fd5b506102556102ac3660046133de565b610903565b3480156102bd57600080fd5b506102556102cc366004613513565b6109b6565b3480156102dd57600080fd5b506102e761012c81565b604051908152602001610288565b34801561030157600080fd5b506103256103103660046133de565b60046020526000908152604090205460ff1681565b6040519015158152602001610288565b61025561034336600461353d565b6109cc565b34801561035457600080fd5b50610368610363366004613571565b6109d6565b60405161028891906135f4565b34801561038157600080fd5b506103a97f000000000000000000000000000000000000000000000000000000000000000081565b6040516001600160a01b039091168152602001610288565b3480156103cd57600080fd5b506102e760065481565b3480156103e357600080fd5b506102556103f2366004613607565b610a7b565b34801561040357600080fd5b506102556104123660046133de565b610de8565b34801561042357600080fd5b50610255610e84565b34801561043857600080fd5b50610368610e98565b34801561044d57600080fd5b506102e761045c366004613607565b610ea5565b34801561046d57600080fd5b5061048161047c366004613513565b610ec6565b6040516001600160401b039091168152602001610288565b3480156104a557600080fd5b506103256104b4366004613620565b610ecf565b3480156104c557600080fd5b506000546001600160a01b03166103a9565b3480156104e357600080fd5b506102556104f2366004613824565b610ee4565b34801561050357600080fd5b50610517610512366004613607565b61139e565b6040516102889c9b9a99989796959493929190613968565b34801561053b57600080fd5b506105446115eb565b6040516102889190613a06565b34801561055d57600080fd5b5061057161056c366004613607565b6118c2565b6040516102889b9a99989796959493929190613b2a565b34801561059457600080fd5b506102e76105a3366004613607565b611ac6565b3480156105b457600080fd5b506105bd611b4f565b6040516102889190613bbd565b3480156105d657600080fd5b506102556105e5366004613bd0565b611ba7565b3480156105f657600080fd5b506102e7610605366004613c44565b60016020526000908152604090205481565b34801561062357600080fd5b50610368610632366004613c5f565b611bc1565b34801561064357600080fd5b506103256106523660046133de565b60056020526000908152604090205460ff1681565b34801561067357600080fd5b506102556106823660046133de565b611d69565b34801561069357600080fd5b50610255611def565b3480156106a857600080fd5b506106bc6106b7366004613cbf565b611eca565b604051610288929190613cdd565b6106dd6106d8366004613d01565b611f5a565b6040516102889190613d6b565b6102556106f8366004613db6565b611fe3565b34801561070957600080fd5b506102e760085481565b34801561071f57600080fd5b5061025561072e3660046133de565b612008565b34801561073f57600080fd5b5061025561074e3660046133de565b612046565b34801561075f57600080fd5b5061077361076e366004613dd9565b612134565b6040516102889190613e5d565b34801561078c57600080fd5b5061032561079b366004613e74565b612178565b3360009081526004602052604090205460ff166107ff5760405162461bcd60e51b81526020600482015260186024820152774f6e6c792061646d696e2063616e2063616c6c207468697360401b60448201526064015b60405180910390fd5b6001600160a01b038116600081815260056020526040808220805460ff19169055517f0150c1993af1eca45720c8fff7407b690d999da31aa1b98381f3b025d5417bd09190a250565b7f00000000000000000000000000000000000000000000000000000000000000006001600160a01b03163314610893576040516391ac5e4f60e01b81523360048201526024016107f6565b602087018035906108ad906108a8908a613c44565b6121ae565b146108eb576108bf6020880188613c44565b60405163309afaf360e21b815263ffffffff9091166004820152602088013560248201526044016107f6565b6108fa878787878787876121ea565b50505050505050565b61090b6123c4565b6000546001600160a01b03166001600160a01b0316816001600160a01b03160361096d5760405162461bcd60e51b815260206004820152601360248201527221b0b73737ba103932b6b7bb329037bbb732b960691b60448201526064016107f6565b6001600160a01b038116600081815260046020526040808220805460ff19169055517fa3b62bc36326052d97ea62d63c3d60308ed4c3ea8ac079dd8499f1e9c4f80c0f9190a250565b6109be6123c4565b6109c882826123f1565b5050565b6109c88282612446565b6002602090815260009283526040808420909152908252902080546109fa90613e90565b80601f0160208091040260200160405190810160405280929190818152602001828054610a2690613e90565b8015610a735780601f10610a4857610100808354040283529160200191610a73565b820191906000526020600020905b815481529060010190602001808311610a5657829003601f168201915b505050505081565b600081118015610a8d57506008548111155b610aa95760405162461bcd60e51b81526004016107f690613ec4565b6000818152600760205260409020600481015460ff16610b015760405162461bcd60e51b815260206004820152601360248201527213585c9ad95d081b9bdd081c995cdbdb1d9959606a1b60448201526064016107f6565b336000908152600b820160205260409020600181015460ff1615610b675760405162461bcd60e51b815260206004820152601860248201527f57696e6e696e677320616c726561647920636c61696d6564000000000000000060448201526064016107f6565b6000805b83600d0154811015610bb0576000836000018281548110610b8e57610b8e613ef3565b90600052602060002001541115610ba85760019150610bb0565b600101610b6b565b5080610bef5760405162461bcd60e51b815260206004820152600e60248201526d139bc818995d1cc81c1b1858d95960921b60448201526064016107f6565b600783015482546000908190859084908110610c0d57610c0d613ef3565b90600052602060002001541115610d23576000856005018381548110610c3557610c35613ef3565b906000526020600020015490506000805b87600d0154811015610c8f57848114610c8757876005018181548110610c6e57610c6e613ef3565b906000526020600020015482610c849190613f1f565b91505b600101610c46565b508015610cfd578181876000018681548110610cad57610cad613ef3565b9060005260206000200154610cc29190613f32565b610ccc9190613f5f565b866000018581548110610ce157610ce1613ef3565b9060005260206000200154610cf69190613f1f565b9250610d20565b856000018481548110610d1257610d12613ef3565b906000526020600020015492505b50505b60008111610d6a5760405162461bcd60e51b81526020600482015260146024820152734e6f2077696e6e696e677320746f20636c61696d60601b60448201526064016107f6565b6001848101805460ff19169091179055604051339082156108fc029083906000818181858888f19350505050158015610da7573d6000803e3d6000fd5b50604051818152869033907f7472e24de4628e34b41a2aa1688ed4b46a9145b2de1cf93d74902473ccc1740d906020015b60405180910390a3505050505050565b610df06123c4565b6001600160a01b038116610e385760405162461bcd60e51b815260206004820152600f60248201526e496e76616c6964206164647265737360881b60448201526064016107f6565b6001600160a01b038116600081815260046020526040808220805460ff19166001179055517f44d6d25963f097ad14f29f06854a01f575648a1ef82f30e562ccd3889717e3399190a250565b610e8c6123c4565b610e966000612738565b565b600380546109fa90613e90565b60098181548110610eb557600080fd5b600091825260209091200154905081565b60005b92915050565b6001600160a01b03811630145b949350505050565b3360009081526005602052604090205460ff16610f435760405162461bcd60e51b815260206004820152601e60248201527f4f6e6c79206265742063726561746f722063616e2063616c6c2074686973000060448201526064016107f6565b428411610f925760405162461bcd60e51b815260206004820152601760248201527f496e76616c69642065787069726174696f6e206461746500000000000000000060448201526064016107f6565b6096831015610fe35760405162461bcd60e51b815260206004820152601b60248201527f566572696669636174696f6e2074696d6520746f6f2073686f7274000000000060448201526064016107f6565b620151808311156110365760405162461bcd60e51b815260206004820152601a60248201527f566572696669636174696f6e2074696d6520746f6f206c6f6e6700000000000060448201526064016107f6565b6002855110156110885760405162461bcd60e51b815260206004820152601b60248201527f4174206c656173742032206f7074696f6e73207265717569726564000000000060448201526064016107f6565b600a855111156110da5760405162461bcd60e51b815260206004820152601a60248201527f4d6178696d756d203130206f7074696f6e7320616c6c6f77656400000000000060448201526064016107f6565b604080518082018252600a8152693d913a34ba3632911d1160b11b6020808301919091528251808401845260118152701116113232b9b1b934b83a34b7b7111d1160791b8183015283518085018552600d81526c222c226f7074696f6e73223a5b60981b8184015293519293909290916000916111619186918e9187918f91889101613f73565b604051602081830303815290604052905060005b89518110156111f75780156111a757816040516020016111959190613fde565b60405160208183030381529060405291505b818a82815181106111ba576111ba613ef3565b60200260200101516111cb83612788565b6040516020016111dd93929190614003565b60408051601f198184030181529190529150600101611175565b50806040516020016112099190614074565b60408051601f1981840301815291905260088054919250600061122b8361409a565b909155505060085460009081526007602052604090208061124c8c82614103565b506001810180546001600160a01b0319163317905560028101899055600381018890556008810161127d8382614103565b506009810161128c8882614103565b50600a8101805487919060ff191660018360078111156112ae576112ae613930565b021790555060001960078201558951600d82018190556001600160401b038111156112db576112db613686565b604051908082528060200260200182016040528015611304578160200160208202803683370190505b50805161131b9160058401916020909101906132a9565b50600854600980546001810182556000919091527f6e1540171b6c0c960b71a7020d9f60077f6af931a8bbf590da0223dacf75c7af018190556040517f208e61cb94f388de8317e3bf4569be2a912366b1d5a8df15cac962fea10cea2690611388908e908d908d906141c2565b60405180910390a2505050505050505050505050565b600060606000806000806060600080600060606000808d1180156113c457506008548d11155b6113e05760405162461bcd60e51b81526004016107f690613ec4565b6000600760008f815260200190815260200160002090508d816000018260010160009054906101000a90046001600160a01b0316836002015484600301548560040160009054906101000a900460ff16866005018760060154886007015489600a0160009054906101000a900460ff168a6009018b600d01548a805461146590613e90565b80601f016020809104026020016040519081016040528092919081815260200182805461149190613e90565b80156114de5780601f106114b3576101008083540402835291602001916114de565b820191906000526020600020905b8154815290600101906020018083116114c157829003601f168201915b50505050509a508580548060200260200160405190810160405280929190818152602001828054801561153057602002820191906000526020600020905b81548152602001906001019080831161151c575b5050505050955081805461154390613e90565b80601f016020809104026020016040519081016040528092919081815260200182805461156f90613e90565b80156115bc5780601f10611591576101008083540402835291602001916115bc565b820191906000526020600020905b81548152906001019060200180831161159f57829003601f168201915b505050505091509c509c509c509c509c509c509c509c509c509c509c509c505091939597999b5091939597999b565b6009546060906000816001600160401b0381111561160b5761160b613686565b60405190808252806020026020018201604052801561164457816020015b6116316132f0565b8152602001906001900390816116295790505b50905060005b828110156118bb5760006009828154811061166757611667613ef3565b9060005260206000200154905060006007600083815260200190815260200160002090506040518061018001604052808381526020018260000180546116ac90613e90565b80601f01602080910402602001604051908101604052809291908181526020018280546116d890613e90565b80156117255780601f106116fa57610100808354040283529160200191611725565b820191906000526020600020905b81548152906001019060200180831161170857829003601f168201915b505050918352505060018301546001600160a01b0316602080830191909152600284015460408084019190915260038501546060840152600485015460ff161515608084015260058501805482518185028101850190935280835260a09094019391929091908301828280156117ba57602002820191906000526020600020905b8154815260200190600101908083116117a6575b5050509183525050600683015460208201526007808401546040830152600a84015460609092019160ff16908111156117f5576117f5613930565b815260200182600901805461180990613e90565b80601f016020809104026020016040519081016040528092919081815260200182805461183590613e90565b80156118825780601f1061185757610100808354040283529160200191611882565b820191906000526020600020905b81548152906001019060200180831161186557829003601f168201915b5050505050815260200182600d01548152508484815181106118a6576118a6613ef3565b6020908102919091010152505060010161164a565b5092915050565b6007602052600090815260409020805481906118dd90613e90565b80601f016020809104026020016040519081016040528092919081815260200182805461190990613e90565b80156119565780601f1061192b57610100808354040283529160200191611956565b820191906000526020600020905b81548152906001019060200180831161193957829003601f168201915b5050505060018301546002840154600385015460048601546006870154600788015460088901805498996001600160a01b0390971698959750939560ff9093169491939092916119a590613e90565b80601f01602080910402602001604051908101604052809291908181526020018280546119d190613e90565b8015611a1e5780601f106119f357610100808354040283529160200191611a1e565b820191906000526020600020905b815481529060010190602001808311611a0157829003601f168201915b505050505090806009018054611a3390613e90565b80601f0160208091040260200160405190810160405280929190818152602001828054611a5f90613e90565b8015611aac5780601f10611a8157610100808354040283529160200191611aac565b820191906000526020600020905b815481529060010190602001808311611a8f57829003601f168201915b50505050600a830154600d90930154919260ff169190508b565b60008082118015611ad957506008548211155b611af55760405162461bcd60e51b81526004016107f690613ec4565b600082815260076020526040812090805b82600d0154811015611b4757826005018181548110611b2757611b27613ef3565b906000526020600020015482611b3d9190613f1f565b9150600101611b06565b509392505050565b60606009805480602002602001604051908101604052809291908181526020018280548015611b9d57602002820191906000526020600020905b815481526020019060010190808311611b89575b5050505050905090565b611baf6123c4565b6109c8611bbc82846141e7565b612888565b63ffffffff8416600090815260026020908152604080832061ffff87168452909152812080546060929190611bf590613e90565b80601f0160208091040260200160405190810160405280929190818152602001828054611c2190613e90565b8015611c6e5780601f10611c4357610100808354040283529160200191611c6e565b820191906000526020600020905b815481529060010190602001808311611c5157829003601f168201915b505050505090508051600003611cbe5783838080601f016020809104026020016040519081016040528093929190818152602001838380828437600092019190915250929450610edc9350505050565b6000839003611cce579050610edc565b60028310611d4c57611d1584848080601f01602080910402602001604051908101604052809392919081815260200183838082843760009201919091525061298f92505050565b80611d2384600281886142b0565b604051602001611d35939291906142da565b604051602081830303815290604052915050610edc565b8383604051639a6d49cd60e01b81526004016107f6929190614302565b611d716123c4565b60405163ca5eb5e160e01b81526001600160a01b0382811660048301527f0000000000000000000000000000000000000000000000000000000000000000169063ca5eb5e190602401600060405180830381600087803b158015611dd457600080fd5b505af1158015611de8573d6000803e3d6000fd5b5050505050565b611df76123c4565b600060065411611e3f5760405162461bcd60e51b81526020600482015260136024820152724e6f206665657320746f20776974686472617760681b60448201526064016107f6565b600680546000909155611e5a6000546001600160a01b031690565b6001600160a01b03166108fc829081150290604051600060405180830381858888f19350505050158015611e92573d6000803e3d6000fd5b506040518181527f9870c8023baa016ac002ddfa7cdad341155acddddee3032c07d4baa4947ae643906020015b60405180910390a150565b60008181526007602090815260408083206001600160a01b0386168452600b01825280832060018101548154835181860281018601909452808452606095949293849360ff9093169290918491830182828015611f4657602002820191906000526020600020905b815481526020019060010190808311611f32575b5050505050915092509250505b9250929050565b611f6261336d565b600084604051602001611f7591906135f4565b60408051601f198184030181526020601f87018190048102840181019092528583529250611fd99188918491908890889081908401838280828437600092018290525060408051808201909152348152602081019190915292503391506129bb9050565b9695505050505050565b600081611ff1576000611ff4565b60015b60ff1690506120038382612446565b505050565b6120106123c4565b6001600160a01b03811661203a57604051631e4fbdf760e01b8152600060048201526024016107f6565b61204381612738565b50565b3360009081526004602052604090205460ff166120a05760405162461bcd60e51b81526020600482015260186024820152774f6e6c792061646d696e2063616e2063616c6c207468697360401b60448201526064016107f6565b6001600160a01b0381166120e85760405162461bcd60e51b815260206004820152600f60248201526e496e76616c6964206164647265737360881b60448201526064016107f6565b6001600160a01b038116600081815260056020526040808220805460ff19166001179055517fe318786df0240be4ddd811f63c4948fadb57de75054aa449429e45b6eac9d09f9190a250565b604080518082019091526000808252602082015260008460405160200161215b91906135f4565b6040516020818303038152906040529050611fd986828686612ac6565b60006020820180359060019083906121909086613c44565b63ffffffff1681526020810191909152604001600020541492915050565b63ffffffff811660009081526001602052604081205480610ec95760405163f6ff4fb760e01b815263ffffffff841660048201526024016107f6565b6121f684860186614331565b6003906122039082614103565b5060006122996003805461221690613e90565b80601f016020809104026020016040519081016040528092919081815260200182805461224290613e90565b801561228f5780601f106122645761010080835404028352916020019161228f565b820191906000526020600020905b81548152906001019060200180831161227257829003601f168201915b5050505050612ba7565b8051909150158015906122ad575080604001515b156123ba576008548151118015906122d75750805160009081526007602052604090206002015415155b6123165760405162461bcd60e51b815260206004820152601060248201526f13585c9ad95d081b9bdd08199bdd5b9960821b60448201526064016107f6565b8051600090815260076020818152604080842060048101805460ff1916600117905582860151938101849055855191519490931215845291927f4927fe38919783250023d27e65a3e56b6b5c3e49364e51674a41ef08d62460d9910160405180910390a2815160208084015160408051938452918301527fd420f4a551351968ff5c929935f39168fb3ab9ad47644568f52bf9138934a268910160405180910390a1505b5050505050505050565b6000546001600160a01b03163314610e965760405163118cdaa760e01b81523360048201526024016107f6565b63ffffffff8216600081815260016020908152604091829020849055815192835282018390527f238399d427b947898edb290f5ff0f9109849b1c3ba196a42e35f00c50a54b98b910160405180910390a15050565b60008211801561245857506008548211155b6124745760405162461bcd60e51b81526004016107f690613ec4565b6000828152600760205260409020600481015460ff16156124cc5760405162461bcd60e51b815260206004820152601260248201527113585c9ad95d081a5cc81c995cdbdb1d995960721b60448201526064016107f6565b806002015442106125145760405162461bcd60e51b815260206004820152601260248201527113585c9ad95d081a185cc8195e1c1a5c995960721b60448201526064016107f6565b6000341161256e5760405162461bcd60e51b815260206004820152602160248201527f42657420616d6f756e74206d7573742062652067726561746572207468616e206044820152600360fc1b60648201526084016107f6565b80600d015482106125b85760405162461bcd60e51b8152602060048201526014602482015273092dcecc2d8d2c840dee0e8d2dedc40d2dcc8caf60631b60448201526064016107f6565b60006127106125c961012c34613f32565b6125d39190613f5f565b905060006125e18234614365565b905081600660008282546125f59190613f1f565b9091555050336000908152600b84016020526040812080549091036126965783600d01546001600160401b0381111561263057612630613686565b604051908082528060200260200182016040528015612659578160200160208202803683370190505b50805161266d9183916020909101906132a9565b50600c84018054600181018255600091825260209091200180546001600160a01b031916331790555b818460050186815481106126ac576126ac613ef3565b9060005260206000200160008282546126c59190613f1f565b9091555050805482908290879081106126e0576126e0613ef3565b9060005260206000200160008282546126f99190613f1f565b90915550506040805183815260208101879052879133917f7363e6581df4db69463222156be4a09656528b9f1302890fa4c0b60819b69fc69101610dd8565b600080546001600160a01b038381166001600160a01b0319831681178455604051919092169283917f8be0079c531659141344cd1fd0a4f28419497f9722a3daafe3b4186f6b6457e09190a35050565b6060816000036127af5750506040805180820190915260018152600360fc1b602082015290565b8160005b81156127d957806127c38161409a565b91506127d29050600a83613f5f565b91506127b3565b6000816001600160401b038111156127f3576127f3613686565b6040519080825280601f01601f19166020018201604052801561281d576020820181803683370190505b5090505b8415610edc57612832600183614365565b915061283f600a86614378565b61284a906030613f1f565b60f81b81838151811061285f5761285f613ef3565b60200101906001600160f81b031916908160001a905350612881600a86613f5f565b9450612821565b60005b815181101561295f576128ba8282815181106128a9576128a9613ef3565b60200260200101516040015161298f565b8181815181106128cc576128cc613ef3565b602002602001015160400151600260008484815181106128ee576128ee613ef3565b60200260200101516000015163ffffffff1663ffffffff168152602001908152602001600020600084848151811061292857612928613ef3565b60200260200101516020015161ffff1661ffff16815260200190815260200160002090816129569190614103565b5060010161288b565b507fbe4864a8e820971c0247f5992e2da559595f7bf076a21cb5928d443d2a13b67481604051611ebf919061438c565b600281015161ffff81166003146109c85781604051639a6d49cd60e01b81526004016107f691906135f4565b6129c361336d565b60006129d28460000151612d15565b6020850151909150156129ec576129ec8460200151612d3d565b7f00000000000000000000000000000000000000000000000000000000000000006001600160a01b0316632637a450826040518060a001604052808b63ffffffff168152602001612a3c8c6121ae565b81526020018a815260200189815260200160008960200151111515815250866040518463ffffffff1660e01b8152600401612a78929190614409565b60806040518083038185885af1158015612a96573d6000803e3d6000fd5b50505050506040513d601f19601f82011682018060405250810190612abb91906144d0565b979650505050505050565b60408051808201909152600080825260208201527f00000000000000000000000000000000000000000000000000000000000000006001600160a01b031663ddc28c586040518060a001604052808863ffffffff168152602001612b29896121ae565b8152602001878152602001868152602001851515815250306040518363ffffffff1660e01b8152600401612b5e929190614409565b6040805180830381865afa158015612b7a573d6000803e3d6000fd5b505050506040513d601f19601f82011682018060405250810190612b9e9190614526565b95945050505050565b612bcd604051806060016040528060008152602001600081526020016000151581525090565b60008082526000196020830152604082015281518290600a1115612bf15750919050565b6000612c1d82604051806040016040528060088152602001671b585c9ad95d125960c21b815250612e1f565b905080600003612c2e575050919050565b6000612c5983604051806040016040528060078152602001666f7574636f6d6560c81b815250612e1f565b905080600003612c6b57505050919050565b6000612c9784604051806040016040528060088152602001671c995cdbdb1d995960c21b815250612e1f565b905080600003612caa5750505050919050565b612cbc612cb78585612efc565b61303a565b8552612cd0612ccb8584612efc565b6130b0565b6020860152612d04612ce28583612efc565b604051806040016040528060048152602001637472756560e01b81525061317f565b151560408601525092949350505050565b6000813414612d39576040516304fb820960e51b81523460048201526024016107f6565b5090565b60007f00000000000000000000000000000000000000000000000000000000000000006001600160a01b031663e4fe1d946040518163ffffffff1660e01b8152600401602060405180830381865afa158015612d9d573d6000803e3d6000fd5b505050506040513d601f19601f82011682018060405250810190612dc19190614542565b90506001600160a01b038116612dea576040516329b99a9560e11b815260040160405180910390fd5b6109c86001600160a01b038216337f0000000000000000000000000000000000000000000000000000000000000000856131d8565b60008082604051602001612e33919061455f565b604051602081830303815290604052905060005b81518551612e559190614365565b811015612ef157600160005b8351811015612ecb57838181518110612e7c57612e7c613ef3565b01602001516001600160f81b03191687612e968386613f1f565b81518110612ea657612ea6613ef3565b01602001516001600160f81b03191614612ec35760009150612ecb565b600101612e61565b508015612ee8578251612ede9083613f1f565b9350505050610ec9565b50600101612e47565b506000949350505050565b6060815b8351811015612f7657838181518110612f1b57612f1b613ef3565b6020910101516001600160f81b031916600b60fa1b1480612f605750838181518110612f4957612f49613ef3565b6020910101516001600160f81b031916607d60f81b145b612f765780612f6e8161409a565b915050612f00565b6000612f828483614365565b6001600160401b03811115612f9957612f99613686565b6040519080825280601f01601f191660200182016040528015612fc3576020820181803683370190505b50905060005b612fd38584614365565b8110156130315785612fe58287613f1f565b81518110612ff557612ff5613ef3565b602001015160f81c60f81b82828151811061301257613012613ef3565b60200101906001600160f81b031916908160001a905350600101612fc9565b50949350505050565b60008181805b8251811015611b4757600083828151811061305d5761305d613ef3565b016020015160f81c90506030811080159061307c575060398160ff1611155b156130a75761308c603082614595565b60ff1661309a84600a613f32565b6130a49190613f1f565b92505b50600101613040565b600080829050600080600083511180156130ef5750826000815181106130d8576130d8613ef3565b6020910101516001600160f81b031916602d60f81b145b156130fb575060019050805b6000815b845181101561316f57600085828151811061311c5761311c613ef3565b016020015160f81c90506030811080159061313b575060398160ff1611155b156131665761314b603082614595565b60ff1661315984600a6145ae565b61316391906145de565b92505b506001016130ff565b508215612b9e57611fd981614606565b6000816040516020016131929190614622565b60405160208183030381529060405280519060200120836040516020016131b99190614622565b6040516020818303038152906040528051906020012014905092915050565b604080516001600160a01b0385811660248301528416604482015260648082018490528251808303909101815260849091019091526020810180516001600160e01b03166323b872dd60e01b179052613232908590613238565b50505050565b600080602060008451602086016000885af18061325b576040513d6000823e3d81fd5b50506000513d91508115613273578060011415613280565b6001600160a01b0384163b155b1561323257604051635274afe760e01b81526001600160a01b03851660048201526024016107f6565b8280548282559060005260206000209081019282156132e4579160200282015b828111156132e45782518255916020019190600101906132c9565b50612d399291506133b4565b604051806101800160405280600081526020016060815260200160006001600160a01b0316815260200160008152602001600081526020016000151581526020016060815260200160008152602001600081526020016000600781111561335957613359613930565b815260200160608152602001600081525090565b60405180606001604052806000801916815260200160006001600160401b031681526020016133af604051806040016040528060008152602001600081525090565b905290565b5b80821115612d3957600081556001016133b5565b6001600160a01b038116811461204357600080fd5b6000602082840312156133f057600080fd5b81356133fb816133c9565b9392505050565b60006060828403121561341457600080fd5b50919050565b60008083601f84011261342c57600080fd5b5081356001600160401b0381111561344357600080fd5b602083019150836020828501011115611f5357600080fd5b600080600080600080600060e0888a03121561347657600080fd5b6134808989613402565b96506060880135955060808801356001600160401b03808211156134a357600080fd5b6134af8b838c0161341a565b909750955060a08a013591506134c4826133c9565b90935060c089013590808211156134da57600080fd5b506134e78a828b0161341a565b989b979a50959850939692959293505050565b803563ffffffff8116811461350e57600080fd5b919050565b6000806040838503121561352657600080fd5b61352f836134fa565b946020939093013593505050565b6000806040838503121561355057600080fd5b50508035926020909101359150565b803561ffff8116811461350e57600080fd5b6000806040838503121561358457600080fd5b61358d836134fa565b915061359b6020840161355f565b90509250929050565b60005b838110156135bf5781810151838201526020016135a7565b50506000910152565b600081518084526135e08160208601602086016135a4565b601f01601f19169290920160200192915050565b6020815260006133fb60208301846135c8565b60006020828403121561361957600080fd5b5035919050565b60008060008060a0858703121561363657600080fd5b6136408686613402565b935060608501356001600160401b0381111561365b57600080fd5b6136678782880161341a565b909450925050608085013561367b816133c9565b939692955090935050565b634e487b7160e01b600052604160045260246000fd5b604051606081016001600160401b03811182821017156136be576136be613686565b60405290565b604051601f8201601f191681016001600160401b03811182821017156136ec576136ec613686565b604052919050565b600082601f83011261370557600080fd5b81356001600160401b0381111561371e5761371e613686565b613731601f8201601f19166020016136c4565b81815284602083860101111561374657600080fd5b816020850160208301376000918101602001919091529392505050565b60006001600160401b0382111561377c5761377c613686565b5060051b60200190565b600082601f83011261379757600080fd5b813560206137ac6137a783613763565b6136c4565b82815260059290921b840181019181810190868411156137cb57600080fd5b8286015b8481101561380a5780356001600160401b038111156137ee5760008081fd5b6137fc8986838b01016136f4565b8452509183019183016137cf565b509695505050505050565b80356008811061350e57600080fd5b600080600080600080600060e0888a03121561383f57600080fd5b87356001600160401b038082111561385657600080fd5b6138628b838c016136f4565b985060208a013591508082111561387857600080fd5b6138848b838c016136f4565b975060408a013591508082111561389a57600080fd5b6138a68b838c01613786565b965060608a0135955060808a0135945060a08a01359150808211156138ca57600080fd5b506138d78a828b016136f4565b9250506138e660c08901613815565b905092959891949750929550565b60008151808452602080850194506020840160005b8381101561392557815187529582019590820190600101613909565b509495945050505050565b634e487b7160e01b600052602160045260246000fd5b6008811061396457634e487b7160e01b600052602160045260246000fd5b9052565b60006101808e83528060208401526139828184018f6135c8565b6001600160a01b038e166040850152606084018d9052608084018c90528a151560a085015283810360c085015290506139bb818a6138f4565b90508760e0840152866101008401526139d8610120840187613946565b8281036101408401526139eb81866135c8565b915050826101608301529d9c50505050505050505050505050565b600060208083018184528085518083526040925060408601915060408160051b87010184880160005b83811015613b1c57603f1989840301855281516101808151855288820151818a870152613a5e828701826135c8565b91505087820151613a79898701826001600160a01b03169052565b50606082810151908601526080808301519086015260a08083015115159086015260c08083015186830382880152613ab183826138f4565b9250505060e080830151818701525061010080830151818701525061012080830151613adf82880182613946565b50506101408083015186830382880152613af983826135c8565b610160948501519790940196909652505094870194925090860190600101613a2f565b509098975050505050505050565b6000610160808352613b3e8184018f6135c8565b905060018060a01b038d1660208401528b60408401528a606084015289151560808401528860a08401528760c084015282810360e0840152613b8081886135c8565b9050828103610100840152613b9581876135c8565b915050613ba6610120830185613946565b826101408301529c9b505050505050505050505050565b6020815260006133fb60208301846138f4565b60008060208385031215613be357600080fd5b82356001600160401b0380821115613bfa57600080fd5b818501915085601f830112613c0e57600080fd5b813581811115613c1d57600080fd5b8660208260051b8501011115613c3257600080fd5b60209290920196919550909350505050565b600060208284031215613c5657600080fd5b6133fb826134fa565b60008060008060608587031215613c7557600080fd5b613c7e856134fa565b9350613c8c6020860161355f565b925060408501356001600160401b03811115613ca757600080fd5b613cb38782880161341a565b95989497509550505050565b60008060408385031215613cd257600080fd5b823561352f816133c9565b604081526000613cf060408301856138f4565b905082151560208301529392505050565b60008060008060608587031215613d1757600080fd5b613d20856134fa565b935060208501356001600160401b0380821115613d3c57600080fd5b613d48888389016136f4565b94506040870135915080821115613d5e57600080fd5b50613cb38782880161341a565b6000608082019050825182526001600160401b03602084015116602083015260408301516118bb604084018280518252602090810151910152565b8035801515811461350e57600080fd5b60008060408385031215613dc957600080fd5b8235915061359b60208401613da6565b60008060008060808587031215613def57600080fd5b613df8856134fa565b935060208501356001600160401b0380821115613e1457600080fd5b613e20888389016136f4565b94506040870135915080821115613e3657600080fd5b50613e43878288016136f4565b925050613e5260608601613da6565b905092959194509250565b815181526020808301519082015260408101610ec9565b600060608284031215613e8657600080fd5b6133fb8383613402565b600181811c90821680613ea457607f821691505b60208210810361341457634e487b7160e01b600052602260045260246000fd5b60208082526015908201527413585c9ad95d08191bd95cc81b9bdd08195e1a5cdd605a1b604082015260600190565b634e487b7160e01b600052603260045260246000fd5b634e487b7160e01b600052601160045260246000fd5b80820180821115610ec957610ec9613f09565b8082028115828204841417610ec957610ec9613f09565b634e487b7160e01b600052601260045260246000fd5b600082613f6e57613f6e613f49565b500490565b60008651613f85818460208b016135a4565b865190830190613f99818360208b016135a4565b8651910190613fac818360208a016135a4565b8551910190613fbf8183602089016135a4565b8451910190613fd28183602088016135a4565b01979650505050505050565b60008251613ff08184602087016135a4565b600b60fa1b920191825250600101919050565b600084516140158184602089016135a4565b612d9160f11b90830190815284516140348160028401602089016135a4565b6211161160e91b6002929091019182015283516140588160058401602088016135a4565b61225d60f01b6005929091019182015260070195945050505050565b600082516140868184602087016135a4565b615d7d60f01b920191825250600201919050565b6000600182016140ac576140ac613f09565b5060010190565b601f821115612003576000816000526020600020601f850160051c810160208610156140dc5750805b601f850160051c820191505b818110156140fb578281556001016140e8565b505050505050565b81516001600160401b0381111561411c5761411c613686565b6141308161412a8454613e90565b846140b3565b602080601f831160018114614165576000841561414d5750858301515b600019600386901b1c1916600185901b1785556140fb565b600085815260208120601f198616915b8281101561419457888601518255948401946001909101908401614175565b50858210156141b25787850151600019600388901b60f8161c191681555b5050505050600190811b01905550565b6060815260006141d560608301866135c8565b60208301949094525060400152919050565b60006141f56137a784613763565b80848252602080830192508560051b85013681111561421357600080fd5b855b818110156142a45780356001600160401b03808211156142355760008081fd5b81890191506060823603121561424b5760008081fd5b61425361369c565b61425c836134fa565b815261426986840161355f565b86820152604080840135838111156142815760008081fd5b61428d368287016136f4565b918301919091525087525050938201938201614215565b50919695505050505050565b600080858511156142c057600080fd5b838611156142cd57600080fd5b5050820193919092039150565b600084516142ec8184602089016135a4565b8201838582376000930192835250909392505050565b60208152816020820152818360408301376000818301604090810191909152601f909201601f19160101919050565b60006020828403121561434357600080fd5b81356001600160401b0381111561435957600080fd5b610edc848285016136f4565b81810381811115610ec957610ec9613f09565b60008261438757614387613f49565b500690565b600060208083018184528085518083526040925060408601915060408160051b87010184880160005b83811015613b1c57888303603f190185528151805163ffffffff1684528781015161ffff168885015286015160608785018190526143f5818601836135c8565b9689019694505050908601906001016143b5565b6040815263ffffffff8351166040820152602083015160608201526000604084015160a0608084015261443f60e08401826135c8565b90506060850151603f198483030160a085015261445c82826135c8565b60809690960151151560c08501525050506001600160a01b039190911660209091015290565b60006040828403121561449457600080fd5b604051604081018181106001600160401b03821117156144b6576144b6613686565b604052825181526020928301519281019290925250919050565b6000608082840312156144e257600080fd5b6144ea61369c565b8251815260208301516001600160401b038116811461450857600080fd5b602082015261451a8460408501614482565b60408201529392505050565b60006040828403121561453857600080fd5b6133fb8383614482565b60006020828403121561455457600080fd5b81516133fb816133c9565b601160f91b8152815160009061457c8160018501602087016135a4565b61111d60f11b6001939091019283015250600301919050565b60ff8281168282160390811115610ec957610ec9613f09565b80820260008212600160ff1b841416156145ca576145ca613f09565b8181058314821517610ec957610ec9613f09565b80820182811260008312801582168215821617156145fe576145fe613f09565b505092915050565b6000600160ff1b820161461b5761461b613f09565b5060000390565b600082516146348184602087016135a4565b919091019291505056fea264697066735822122084871937e49927640b271cba81ca57c6e916c0436bff7dd2f7c37d32f521253c64736f6c63430008160033",
  "devdoc": {
    "errors": {
      "OwnableInvalidOwner(address)": [
        {
          "details": "The owner is not a valid owner account. (eg. `address(0)`)"
        }
      ],
      "OwnableUnauthorizedAccount(address)": [
        {
          "details": "The caller account is not authorized to perform an operation."
        }
      ],
      "SafeERC20FailedOperation(address)": [
        {
          "details": "An operation with an ERC-20 token failed."
        }
      ]
    },
    "kind": "dev",
    "methods": {
      "allowInitializePath((uint32,bytes32,uint64))": {
        "details": "This indicates to the endpoint that the OApp has enabled msgs for this particular path to be received.This defaults to assuming if a peer has been set, its initialized. Can be overridden by the OApp if there is other logic to determine this.",
        "params": {
          "origin": "The origin information containing the source endpoint and sender address."
        },
        "returns": {
          "_0": "Whether the path has been initialized."
        }
      },
      "combineOptions(uint32,uint16,bytes)": {
        "details": "If there is an enforced lzReceive option: - {gasLimit: 200k, msg.value: 1 ether} AND a caller supplies a lzReceive option: {gasLimit: 100k, msg.value: 0.5 ether} - The resulting options will be {gasLimit: 300k, msg.value: 1.5 ether} when the message is executed on the remote lzReceive() function.This presence of duplicated options is handled off-chain in the verifier/executor.",
        "params": {
          "_eid": "The endpoint ID.",
          "_extraOptions": "Additional options passed by the caller.",
          "_msgType": "The OAPP message type."
        },
        "returns": {
          "_0": "options The combination of caller specified options AND enforced options."
        }
      },
      "isComposeMsgSender((uint32,bytes32,uint64),bytes,address)": {
        "details": "_origin The origin information containing the source endpoint and sender address.  - srcEid: The source chain endpoint ID.  - sender: The sender address on the src chain.  - nonce: The nonce of the message._message The lzReceive payload.Applications can optionally choose to implement separate composeMsg senders that are NOT the bridging layer.The default sender IS the OAppReceiver implementer.",
        "params": {
          "_sender": "The sender address."
        },
        "returns": {
          "_0": "isSender Is a valid sender."
        }
      },
      "lzReceive((uint32,bytes32,uint64),bytes32,bytes,address,bytes)": {
        "details": "Entry point for receiving messages or packets from the endpoint.Entry point for receiving msg/packet from the LayerZero endpoint.",
        "params": {
          "_executor": "The address of the executor for the received message.",
          "_extraData": "Additional arbitrary data provided by the corresponding executor.",
          "_guid": "The unique identifier for the received LayerZero message.",
          "_message": "The payload of the received message.",
          "_origin": "The origin information containing the source endpoint and sender address.  - srcEid: The source chain endpoint ID.  - sender: The sender address on the src chain.  - nonce: The nonce of the message."
        }
      },
      "nextNonce(uint32,bytes32)": {
        "details": "_srcEid The source endpoint ID._sender The sender address.The path nonce starts from 1. If 0 is returned it means that there is NO nonce ordered enforcement.Is required by the off-chain executor to determine the OApp expects msg execution is ordered.This is also enforced by the OApp.By default this is NOT enabled. ie. nextNonce is hardcoded to return 0.",
        "returns": {
          "nonce": "The next nonce."
        }
      },
      "oAppVersion()": {
        "returns": {
          "receiverVersion": "The version of the OAppReceiver.sol implementation.",
          "senderVersion": "The version of the OAppSender.sol implementation."
        }
      },
      "owner()": {
        "details": "Returns the address of the current owner."
      },
      "quote(uint32,string,bytes,bool)": {
        "params": {
          "_dstEid": "Destination chain's endpoint ID.",
          "_message": "The message.",
          "_options": "Message execution options (e.g., for sending gas to destination).",
          "_payInLzToken": "Whether to return fee in ZRO token."
        },
        "returns": {
          "fee": "A `MessagingFee` struct containing the calculated gas fee in either the native token or ZRO token."
        }
      },
      "renounceOwnership()": {
        "details": "Leaves the contract without owner. It will not be possible to call `onlyOwner` functions. Can only be called by the current owner. NOTE: Renouncing ownership will leave the contract without an owner, thereby disabling any functionality that is only available to the owner."
      },
      "send(uint32,string,bytes)": {
        "details": "Encodes the message as bytes and sends it using the `_lzSend` internal function.",
        "params": {
          "_dstEid": "The endpoint ID of the destination chain.",
          "_message": "The message string to be sent.",
          "_options": "Additional options for message execution."
        },
        "returns": {
          "receipt": "A `MessagingReceipt` struct containing details of the message sent."
        }
      },
      "setDelegate(address)": {
        "details": "Only the owner/admin of the OApp can call this function.Provides the ability for a delegate to set configs, on behalf of the OApp, directly on the Endpoint contract.",
        "params": {
          "_delegate": "The address of the delegate to be set."
        }
      },
      "setEnforcedOptions((uint32,uint16,bytes)[])": {
        "details": "Sets the enforced options for specific endpoint and message type combinations.Only the owner/admin of the OApp can call this function.Provides a way for the OApp to enforce things like paying for PreCrime, AND/OR minimum dst lzReceive gas amounts etc.These enforced options can vary as the potential options/execution on the remote may differ as per the msgType. eg. Amount of lzReceive() gas necessary to deliver a lzCompose() message adds overhead you dont want to pay if you are only making a standard LayerZero message ie. lzReceive() WITHOUT sendCompose().",
        "params": {
          "_enforcedOptions": "An array of EnforcedOptionParam structures specifying enforced options."
        }
      },
      "setPeer(uint32,bytes32)": {
        "details": "Only the owner/admin of the OApp can call this function.Indicates that the peer is trusted to send LayerZero messages to this OApp.Set this to bytes32(0) to remove the peer address.Peer is a bytes32 to accommodate non-evm chains.",
        "params": {
          "_eid": "The endpoint ID.",
          "_peer": "The address of the peer to be associated with the corresponding endpoint."
        }
      },
      "transferOwnership(address)": {
        "details": "Transfers ownership of the contract to a new account (`newOwner`). Can only be called by the current owner."
      }
    },
    "version": 1
  },
  "userdoc": {
    "kind": "user",
    "methods": {
      "allowInitializePath((uint32,bytes32,uint64))": {
        "notice": "Checks if the path initialization is allowed based on the provided origin."
      },
      "combineOptions(uint32,uint16,bytes)": {
        "notice": "Combines options for a given endpoint and message type."
      },
      "endpoint()": {
        "notice": "Retrieves the LayerZero endpoint associated with the OApp."
      },
      "isComposeMsgSender((uint32,bytes32,uint64),bytes,address)": {
        "notice": "Indicates whether an address is an approved composeMsg sender to the Endpoint."
      },
      "nextNonce(uint32,bytes32)": {
        "notice": "Retrieves the next nonce for a given source endpoint and sender address."
      },
      "oAppVersion()": {
        "notice": "Retrieves the OApp version information."
      },
      "peers(uint32)": {
        "notice": "Retrieves the peer (OApp) associated with a corresponding endpoint."
      },
      "quote(uint32,string,bytes,bool)": {
        "notice": "Quotes the gas needed to pay for the full omnichain transaction in native gas or ZRO token."
      },
      "send(uint32,string,bytes)": {
        "notice": "Sends a message from the source chain to a destination chain."
      },
      "setDelegate(address)": {
        "notice": "Sets the delegate address for the OApp."
      },
      "setPeer(uint32,bytes32)": {
        "notice": "Sets the peer address (OApp instance) for a corresponding endpoint."
      }
    },
    "version": 1
  },
  "storageLayout": {
    "storage": [
      {
        "astId": 1533,
        "contract": "contracts/FlowContract.sol:FlowContract",
        "label": "_owner",
        "offset": 0,
        "slot": "0",
        "type": "t_address"
      },
      {
        "astId": 785,
        "contract": "contracts/FlowContract.sol:FlowContract",
        "label": "peers",
        "offset": 0,
        "slot": "1",
        "type": "t_mapping(t_uint32,t_bytes32)"
      },
      {
        "astId": 1381,
        "contract": "contracts/FlowContract.sol:FlowContract",
        "label": "enforcedOptions",
        "offset": 0,
        "slot": "2",
        "type": "t_mapping(t_uint32,t_mapping(t_uint16,t_bytes_storage))"
      },
      {
        "astId": 2696,
        "contract": "contracts/FlowContract.sol:FlowContract",
        "label": "data",
        "offset": 0,
        "slot": "3",
        "type": "t_string_storage"
      },
      {
        "astId": 2700,
        "contract": "contracts/FlowContract.sol:FlowContract",
        "label": "admins",
        "offset": 0,
        "slot": "4",
        "type": "t_mapping(t_address,t_bool)"
      },
      {
        "astId": 2704,
        "contract": "contracts/FlowContract.sol:FlowContract",
        "label": "betCreators",
        "offset": 0,
        "slot": "5",
        "type": "t_mapping(t_address,t_bool)"
      },
      {
        "astId": 2709,
        "contract": "contracts/FlowContract.sol:FlowContract",
        "label": "platformBalance",
        "offset": 0,
        "slot": "6",
        "type": "t_uint256"
      },
      {
        "astId": 2764,
        "contract": "contracts/FlowContract.sol:FlowContract",
        "label": "markets",
        "offset": 0,
        "slot": "7",
        "type": "t_mapping(t_uint256,t_struct(Market)2753_storage)"
      },
      {
        "astId": 2766,
        "contract": "contracts/FlowContract.sol:FlowContract",
        "label": "marketCount",
        "offset": 0,
        "slot": "8",
        "type": "t_uint256"
      },
      {
        "astId": 2769,
        "contract": "contracts/FlowContract.sol:FlowContract",
        "label": "marketIds",
        "offset": 0,
        "slot": "9",
        "type": "t_array(t_uint256)dyn_storage"
      }
    ],
    "types": {
      "t_address": {
        "encoding": "inplace",
        "label": "address",
        "numberOfBytes": "20"
      },
      "t_array(t_address)dyn_storage": {
        "base": "t_address",
        "encoding": "dynamic_array",
        "label": "address[]",
        "numberOfBytes": "32"
      },
      "t_array(t_uint256)dyn_storage": {
        "base": "t_uint256",
        "encoding": "dynamic_array",
        "label": "uint256[]",
        "numberOfBytes": "32"
      },
      "t_bool": {
        "encoding": "inplace",
        "label": "bool",
        "numberOfBytes": "1"
      },
      "t_bytes32": {
        "encoding": "inplace",
        "label": "bytes32",
        "numberOfBytes": "32"
      },
      "t_bytes_storage": {
        "encoding": "bytes",
        "label": "bytes",
        "numberOfBytes": "32"
      },
      "t_enum(MarketCategory)2718": {
        "encoding": "inplace",
        "label": "enum FlowContract.MarketCategory",
        "numberOfBytes": "1"
      },
      "t_int256": {
        "encoding": "inplace",
        "label": "int256",
        "numberOfBytes": "32"
      },
      "t_mapping(t_address,t_bool)": {
        "encoding": "mapping",
        "key": "t_address",
        "label": "mapping(address => bool)",
        "numberOfBytes": "32",
        "value": "t_bool"
      },
      "t_mapping(t_address,t_struct(UserBet)2759_storage)": {
        "encoding": "mapping",
        "key": "t_address",
        "label": "mapping(address => struct FlowContract.UserBet)",
        "numberOfBytes": "32",
        "value": "t_struct(UserBet)2759_storage"
      },
      "t_mapping(t_uint16,t_bytes_storage)": {
        "encoding": "mapping",
        "key": "t_uint16",
        "label": "mapping(uint16 => bytes)",
        "numberOfBytes": "32",
        "value": "t_bytes_storage"
      },
      "t_mapping(t_uint256,t_struct(Market)2753_storage)": {
        "encoding": "mapping",
        "key": "t_uint256",
        "label": "mapping(uint256 => struct FlowContract.Market)",
        "numberOfBytes": "32",
        "value": "t_struct(Market)2753_storage"
      },
      "t_mapping(t_uint32,t_bytes32)": {
        "encoding": "mapping",
        "key": "t_uint32",
        "label": "mapping(uint32 => bytes32)",
        "numberOfBytes": "32",
        "value": "t_bytes32"
      },
      "t_mapping(t_uint32,t_mapping(t_uint16,t_bytes_storage))": {
        "encoding": "mapping",
        "key": "t_uint32",
        "label": "mapping(uint32 => mapping(uint16 => bytes))",
        "numberOfBytes": "32",
        "value": "t_mapping(t_uint16,t_bytes_storage)"
      },
      "t_string_storage": {
        "encoding": "bytes",
        "label": "string",
        "numberOfBytes": "32"
      },
      "t_struct(Market)2753_storage": {
        "encoding": "inplace",
        "label": "struct FlowContract.Market",
        "members": [
          {
            "astId": 2720,
            "contract": "contracts/FlowContract.sol:FlowContract",
            "label": "description",
            "offset": 0,
            "slot": "0",
            "type": "t_string_storage"
          },
          {
            "astId": 2722,
            "contract": "contracts/FlowContract.sol:FlowContract",
            "label": "creator",
            "offset": 0,
            "slot": "1",
            "type": "t_address"
          },
          {
            "astId": 2724,
            "contract": "contracts/FlowContract.sol:FlowContract",
            "label": "expirationDate",
            "offset": 0,
            "slot": "2",
            "type": "t_uint256"
          },
          {
            "astId": 2726,
            "contract": "contracts/FlowContract.sol:FlowContract",
            "label": "verificationTime",
            "offset": 0,
            "slot": "3",
            "type": "t_uint256"
          },
          {
            "astId": 2728,
            "contract": "contracts/FlowContract.sol:FlowContract",
            "label": "isResolved",
            "offset": 0,
            "slot": "4",
            "type": "t_bool"
          },
          {
            "astId": 2731,
            "contract": "contracts/FlowContract.sol:FlowContract",
            "label": "optionAmounts",
            "offset": 0,
            "slot": "5",
            "type": "t_array(t_uint256)dyn_storage"
          },
          {
            "astId": 2733,
            "contract": "contracts/FlowContract.sol:FlowContract",
            "label": "requestTime",
            "offset": 0,
            "slot": "6",
            "type": "t_uint256"
          },
          {
            "astId": 2735,
            "contract": "contracts/FlowContract.sol:FlowContract",
            "label": "outcome",
            "offset": 0,
            "slot": "7",
            "type": "t_int256"
          },
          {
            "astId": 2737,
            "contract": "contracts/FlowContract.sol:FlowContract",
            "label": "questionText",
            "offset": 0,
            "slot": "8",
            "type": "t_bytes_storage"
          },
          {
            "astId": 2739,
            "contract": "contracts/FlowContract.sol:FlowContract",
            "label": "imageUrl",
            "offset": 0,
            "slot": "9",
            "type": "t_string_storage"
          },
          {
            "astId": 2742,
            "contract": "contracts/FlowContract.sol:FlowContract",
            "label": "category",
            "offset": 0,
            "slot": "10",
            "type": "t_enum(MarketCategory)2718"
          },
          {
            "astId": 2747,
            "contract": "contracts/FlowContract.sol:FlowContract",
            "label": "userBets",
            "offset": 0,
            "slot": "11",
            "type": "t_mapping(t_address,t_struct(UserBet)2759_storage)"
          },
          {
            "astId": 2750,
            "contract": "contracts/FlowContract.sol:FlowContract",
            "label": "bettors",
            "offset": 0,
            "slot": "12",
            "type": "t_array(t_address)dyn_storage"
          },
          {
            "astId": 2752,
            "contract": "contracts/FlowContract.sol:FlowContract",
            "label": "optionCount",
            "offset": 0,
            "slot": "13",
            "type": "t_uint256"
          }
        ],
        "numberOfBytes": "448"
      },
      "t_struct(UserBet)2759_storage": {
        "encoding": "inplace",
        "label": "struct FlowContract.UserBet",
        "members": [
          {
            "astId": 2756,
            "contract": "contracts/FlowContract.sol:FlowContract",
            "label": "optionAmounts",
            "offset": 0,
            "slot": "0",
            "type": "t_array(t_uint256)dyn_storage"
          },
          {
            "astId": 2758,
            "contract": "contracts/FlowContract.sol:FlowContract",
            "label": "claimed",
            "offset": 0,
            "slot": "1",
            "type": "t_bool"
          }
        ],
        "numberOfBytes": "64"
      },
      "t_uint16": {
        "encoding": "inplace",
        "label": "uint16",
        "numberOfBytes": "2"
      },
      "t_uint256": {
        "encoding": "inplace",
        "label": "uint256",
        "numberOfBytes": "32"
      },
      "t_uint32": {
        "encoding": "inplace",
        "label": "uint32",
        "numberOfBytes": "4"
      }
    }
  }
}