{
  "address": "0x8a17Eef5779A1f1Ca9c914E36a739BBC29a145bC",
  "abi": [
    {
      "inputs": [
        {
          "internalType": "address",
          "name": "_endpoint",
          "type": "address"
        },
        {
          "internalType": "address",
          "name": "_delegate",
          "type": "address"
        }
      ],
      "stateMutability": "nonpayable",
      "type": "constructor"
    },
    {
      "inputs": [],
      "name": "InvalidDelegate",
      "type": "error"
    },
    {
      "inputs": [],
      "name": "InvalidEndpointCall",
      "type": "error"
    },
    {
      "inputs": [
        {
          "internalType": "bytes",
          "name": "options",
          "type": "bytes"
        }
      ],
      "name": "InvalidOptions",
      "type": "error"
    },
    {
      "inputs": [],
      "name": "LzTokenUnavailable",
      "type": "error"
    },
    {
      "inputs": [
        {
          "internalType": "uint32",
          "name": "eid",
          "type": "uint32"
        }
      ],
      "name": "NoPeer",
      "type": "error"
    },
    {
      "inputs": [
        {
          "internalType": "uint256",
          "name": "msgValue",
          "type": "uint256"
        }
      ],
      "name": "NotEnoughNative",
      "type": "error"
    },
    {
      "inputs": [
        {
          "internalType": "address",
          "name": "addr",
          "type": "address"
        }
      ],
      "name": "OnlyEndpoint",
      "type": "error"
    },
    {
      "inputs": [
        {
          "internalType": "uint32",
          "name": "eid",
          "type": "uint32"
        },
        {
          "internalType": "bytes32",
          "name": "sender",
          "type": "bytes32"
        }
      ],
      "name": "OnlyPeer",
      "type": "error"
    },
    {
      "inputs": [
        {
          "internalType": "address",
          "name": "owner",
          "type": "address"
        }
      ],
      "name": "OwnableInvalidOwner",
      "type": "error"
    },
    {
      "inputs": [
        {
          "internalType": "address",
          "name": "account",
          "type": "address"
        }
      ],
      "name": "OwnableUnauthorizedAccount",
      "type": "error"
    },
    {
      "inputs": [
        {
          "internalType": "address",
          "name": "token",
          "type": "address"
        }
      ],
      "name": "SafeERC20FailedOperation",
      "type": "error"
    },
    {
      "anonymous": false,
      "inputs": [
        {
          "indexed": true,
          "internalType": "address",
          "name": "admin",
          "type": "address"
        }
      ],
      "name": "AdminAdded",
      "type": "event"
    },
    {
      "anonymous": false,
      "inputs": [
        {
          "indexed": true,
          "internalType": "address",
          "name": "admin",
          "type": "address"
        }
      ],
      "name": "AdminRemoved",
      "type": "event"
    },
    {
      "anonymous": false,
      "inputs": [
        {
          "indexed": true,
          "internalType": "address",
          "name": "creator",
          "type": "address"
        }
      ],
      "name": "BetCreatorAdded",
      "type": "event"
    },
    {
      "anonymous": false,
      "inputs": [
        {
          "indexed": true,
          "internalType": "address",
          "name": "creator",
          "type": "address"
        }
      ],
      "name": "BetCreatorRemoved",
      "type": "event"
    },
    {
      "anonymous": false,
      "inputs": [
        {
          "indexed": true,
          "internalType": "address",
          "name": "user",
          "type": "address"
        },
        {
          "indexed": true,
          "internalType": "uint256",
          "name": "marketId",
          "type": "uint256"
        },
        {
          "indexed": false,
          "internalType": "uint256",
          "name": "amount",
          "type": "uint256"
        },
        {
          "indexed": false,
          "internalType": "uint256",
          "name": "optionIndex",
          "type": "uint256"
        }
      ],
      "name": "BetPlaced",
      "type": "event"
    },
    {
      "anonymous": false,
      "inputs": [
        {
          "components": [
            {
              "internalType": "uint32",
              "name": "eid",
              "type": "uint32"
            },
            {
              "internalType": "uint16",
              "name": "msgType",
              "type": "uint16"
            },
            {
              "internalType": "bytes",
              "name": "options",
              "type": "bytes"
            }
          ],
          "indexed": false,
          "internalType": "struct EnforcedOptionParam[]",
          "name": "_enforcedOptions",
          "type": "tuple[]"
        }
      ],
      "name": "EnforcedOptionSet",
      "type": "event"
    },
    {
      "anonymous": false,
      "inputs": [
        {
          "indexed": true,
          "internalType": "uint256",
          "name": "marketId",
          "type": "uint256"
        },
        {
          "indexed": false,
          "internalType": "string",
          "name": "description",
          "type": "string"
        },
        {
          "indexed": false,
          "internalType": "uint256",
          "name": "expirationDate",
          "type": "uint256"
        },
        {
          "indexed": false,
          "internalType": "uint256",
          "name": "verificationTime",
          "type": "uint256"
        }
      ],
      "name": "MarketCreated",
      "type": "event"
    },
    {
      "anonymous": false,
      "inputs": [
        {
          "indexed": true,
          "internalType": "uint256",
          "name": "marketId",
          "type": "uint256"
        },
        {
          "indexed": false,
          "internalType": "bool",
          "name": "outcome",
          "type": "bool"
        }
      ],
      "name": "MarketResolved",
      "type": "event"
    },
    {
      "anonymous": false,
      "inputs": [
        {
          "indexed": true,
          "internalType": "address",
          "name": "previousOwner",
          "type": "address"
        },
        {
          "indexed": true,
          "internalType": "address",
          "name": "newOwner",
          "type": "address"
        }
      ],
      "name": "OwnershipTransferred",
      "type": "event"
    },
    {
      "anonymous": false,
      "inputs": [
        {
          "indexed": false,
          "internalType": "uint32",
          "name": "eid",
          "type": "uint32"
        },
        {
          "indexed": false,
          "internalType": "bytes32",
          "name": "peer",
          "type": "bytes32"
        }
      ],
      "name": "PeerSet",
      "type": "event"
    },
    {
      "anonymous": false,
      "inputs": [
        {
          "indexed": false,
          "internalType": "uint256",
          "name": "amount",
          "type": "uint256"
        }
      ],
      "name": "PlatformFeesWithdrawn",
      "type": "event"
    },
    {
      "anonymous": false,
      "inputs": [
        {
          "indexed": true,
          "internalType": "uint256",
          "name": "marketId",
          "type": "uint256"
        },
        {
          "indexed": false,
          "internalType": "uint256",
          "name": "requestTime",
          "type": "uint256"
        }
      ],
      "name": "SettlementRequested",
      "type": "event"
    },
    {
      "anonymous": false,
      "inputs": [
        {
          "indexed": true,
          "internalType": "address",
          "name": "user",
          "type": "address"
        },
        {
          "indexed": true,
          "internalType": "uint256",
          "name": "marketId",
          "type": "uint256"
        },
        {
          "indexed": false,
          "internalType": "uint256",
          "name": "amount",
          "type": "uint256"
        }
      ],
      "name": "WinningsClaimed",
      "type": "event"
    },
    {
      "inputs": [],
      "name": "PLATFORM_FEE",
      "outputs": [
        {
          "internalType": "uint256",
          "name": "",
          "type": "uint256"
        }
      ],
      "stateMutability": "view",
      "type": "function"
    },
    {
      "inputs": [
        {
          "internalType": "address",
          "name": "newAdmin",
          "type": "address"
        }
      ],
      "name": "addAdmin",
      "outputs": [],
      "stateMutability": "nonpayable",
      "type": "function"
    },
    {
      "inputs": [
        {
          "internalType": "address",
          "name": "creator",
          "type": "address"
        }
      ],
      "name": "addBetCreator",
      "outputs": [],
      "stateMutability": "nonpayable",
      "type": "function"
    },
    {
      "inputs": [
        {
          "internalType": "address",
          "name": "",
          "type": "address"
        }
      ],
      "name": "admins",
      "outputs": [
        {
          "internalType": "bool",
          "name": "",
          "type": "bool"
        }
      ],
      "stateMutability": "view",
      "type": "function"
    },
    {
      "inputs": [
        {
          "components": [
            {
              "internalType": "uint32",
              "name": "srcEid",
              "type": "uint32"
            },
            {
              "internalType": "bytes32",
              "name": "sender",
              "type": "bytes32"
            },
            {
              "internalType": "uint64",
              "name": "nonce",
              "type": "uint64"
            }
          ],
          "internalType": "struct Origin",
          "name": "origin",
          "type": "tuple"
        }
      ],
      "name": "allowInitializePath",
      "outputs": [
        {
          "internalType": "bool",
          "name": "",
          "type": "bool"
        }
      ],
      "stateMutability": "view",
      "type": "function"
    },
    {
      "inputs": [
        {
          "internalType": "address",
          "name": "",
          "type": "address"
        }
      ],
      "name": "betCreators",
      "outputs": [
        {
          "internalType": "bool",
          "name": "",
          "type": "bool"
        }
      ],
      "stateMutability": "view",
      "type": "function"
    },
    {
      "inputs": [
        {
          "internalType": "uint256",
          "name": "marketId",
          "type": "uint256"
        }
      ],
      "name": "claimWinnings",
      "outputs": [],
      "stateMutability": "nonpayable",
      "type": "function"
    },
    {
      "inputs": [
        {
          "internalType": "uint32",
          "name": "_eid",
          "type": "uint32"
        },
        {
          "internalType": "uint16",
          "name": "_msgType",
          "type": "uint16"
        },
        {
          "internalType": "bytes",
          "name": "_extraOptions",
          "type": "bytes"
        }
      ],
      "name": "combineOptions",
      "outputs": [
        {
          "internalType": "bytes",
          "name": "",
          "type": "bytes"
        }
      ],
      "stateMutability": "view",
      "type": "function"
    },
    {
      "inputs": [
        {
          "internalType": "string",
          "name": "title",
          "type": "string"
        },
        {
          "internalType": "string",
          "name": "description",
          "type": "string"
        },
        {
          "internalType": "string[]",
          "name": "options",
          "type": "string[]"
        },
        {
          "internalType": "uint256",
          "name": "expirationDate",
          "type": "uint256"
        },
        {
          "internalType": "uint256",
          "name": "_verificationTime",
          "type": "uint256"
        },
        {
          "internalType": "string",
          "name": "imageUrl",
          "type": "string"
        },
        {
          "internalType": "enum FlowContract.MarketCategory",
          "name": "category",
          "type": "uint8"
        }
      ],
      "name": "createMarketAdmin",
      "outputs": [],
      "stateMutability": "nonpayable",
      "type": "function"
    },
    {
      "inputs": [],
      "name": "data",
      "outputs": [
        {
          "internalType": "string",
          "name": "",
          "type": "string"
        }
      ],
      "stateMutability": "view",
      "type": "function"
    },
    {
      "inputs": [],
      "name": "endpoint",
      "outputs": [
        {
          "internalType": "contract ILayerZeroEndpointV2",
          "name": "",
          "type": "address"
        }
      ],
      "stateMutability": "view",
      "type": "function"
    },
    {
      "inputs": [
        {
          "internalType": "uint32",
          "name": "eid",
          "type": "uint32"
        },
        {
          "internalType": "uint16",
          "name": "msgType",
          "type": "uint16"
        }
      ],
      "name": "enforcedOptions",
      "outputs": [
        {
          "internalType": "bytes",
          "name": "enforcedOption",
          "type": "bytes"
        }
      ],
      "stateMutability": "view",
      "type": "function"
    },
    {
      "inputs": [],
      "name": "getAllMarketIds",
      "outputs": [
        {
          "internalType": "uint256[]",
          "name": "",
          "type": "uint256[]"
        }
      ],
      "stateMutability": "view",
      "type": "function"
    },
    {
      "inputs": [],
      "name": "getAllMarkets",
      "outputs": [
        {
          "components": [
            {
              "internalType": "uint256",
              "name": "marketId",
              "type": "uint256"
            },
            {
              "internalType": "string",
              "name": "description",
              "type": "string"
            },
            {
              "internalType": "address",
              "name": "creator",
              "type": "address"
            },
            {
              "internalType": "uint256",
              "name": "expirationDate",
              "type": "uint256"
            },
            {
              "internalType": "uint256",
              "name": "verificationTime",
              "type": "uint256"
            },
            {
              "internalType": "bool",
              "name": "isResolved",
              "type": "bool"
            },
            {
              "internalType": "uint256[]",
              "name": "optionAmounts",
              "type": "uint256[]"
            },
            {
              "internalType": "uint256",
              "name": "requestTime",
              "type": "uint256"
            },
            {
              "internalType": "int256",
              "name": "outcome",
              "type": "int256"
            },
            {
              "internalType": "enum FlowContract.MarketCategory",
              "name": "category",
              "type": "uint8"
            },
            {
              "internalType": "string",
              "name": "imageUrl",
              "type": "string"
            },
            {
              "internalType": "uint256",
              "name": "optionCount",
              "type": "uint256"
            }
          ],
          "internalType": "struct FlowContract.MarketView[]",
          "name": "",
          "type": "tuple[]"
        }
      ],
      "stateMutability": "view",
      "type": "function"
    },
    {
      "inputs": [
        {
          "internalType": "uint256",
          "name": "marketId",
          "type": "uint256"
        }
      ],
      "name": "getMarketDetails",
      "outputs": [
        {
          "internalType": "uint256",
          "name": "id",
          "type": "uint256"
        },
        {
          "internalType": "string",
          "name": "description",
          "type": "string"
        },
        {
          "internalType": "address",
          "name": "creator",
          "type": "address"
        },
        {
          "internalType": "uint256",
          "name": "expirationDate",
          "type": "uint256"
        },
        {
          "internalType": "uint256",
          "name": "verificationTime",
          "type": "uint256"
        },
        {
          "internalType": "bool",
          "name": "isResolved",
          "type": "bool"
        },
        {
          "internalType": "uint256[]",
          "name": "optionAmounts",
          "type": "uint256[]"
        },
        {
          "internalType": "uint256",
          "name": "requestTime",
          "type": "uint256"
        },
        {
          "internalType": "int256",
          "name": "outcome",
          "type": "int256"
        },
        {
          "internalType": "enum FlowContract.MarketCategory",
          "name": "category",
          "type": "uint8"
        },
        {
          "internalType": "string",
          "name": "imageUrl",
          "type": "string"
        },
        {
          "internalType": "uint256",
          "name": "optionCount",
          "type": "uint256"
        }
      ],
      "stateMutability": "view",
      "type": "function"
    },
    {
      "inputs": [
        {
          "internalType": "uint256",
          "name": "marketId",
          "type": "uint256"
        }
      ],
      "name": "getTotalPoolSize",
      "outputs": [
        {
          "internalType": "uint256",
          "name": "",
          "type": "uint256"
        }
      ],
      "stateMutability": "view",
      "type": "function"
    },
    {
      "inputs": [
        {
          "internalType": "address",
          "name": "user",
          "type": "address"
        },
        {
          "internalType": "uint256",
          "name": "marketId",
          "type": "uint256"
        }
      ],
      "name": "getUserBet",
      "outputs": [
        {
          "internalType": "uint256[]",
          "name": "optionAmounts",
          "type": "uint256[]"
        },
        {
          "internalType": "bool",
          "name": "claimed",
          "type": "bool"
        }
      ],
      "stateMutability": "view",
      "type": "function"
    },
    {
      "inputs": [
        {
          "components": [
            {
              "internalType": "uint32",
              "name": "srcEid",
              "type": "uint32"
            },
            {
              "internalType": "bytes32",
              "name": "sender",
              "type": "bytes32"
            },
            {
              "internalType": "uint64",
              "name": "nonce",
              "type": "uint64"
            }
          ],
          "internalType": "struct Origin",
          "name": "",
          "type": "tuple"
        },
        {
          "internalType": "bytes",
          "name": "",
          "type": "bytes"
        },
        {
          "internalType": "address",
          "name": "_sender",
          "type": "address"
        }
      ],
      "name": "isComposeMsgSender",
      "outputs": [
        {
          "internalType": "bool",
          "name": "",
          "type": "bool"
        }
      ],
      "stateMutability": "view",
      "type": "function"
    },
    {
      "inputs": [
        {
          "components": [
            {
              "internalType": "uint32",
              "name": "srcEid",
              "type": "uint32"
            },
            {
              "internalType": "bytes32",
              "name": "sender",
              "type": "bytes32"
            },
            {
              "internalType": "uint64",
              "name": "nonce",
              "type": "uint64"
            }
          ],
          "internalType": "struct Origin",
          "name": "_origin",
          "type": "tuple"
        },
        {
          "internalType": "bytes32",
          "name": "_guid",
          "type": "bytes32"
        },
        {
          "internalType": "bytes",
          "name": "_message",
          "type": "bytes"
        },
        {
          "internalType": "address",
          "name": "_executor",
          "type": "address"
        },
        {
          "internalType": "bytes",
          "name": "_extraData",
          "type": "bytes"
        }
      ],
      "name": "lzReceive",
      "outputs": [],
      "stateMutability": "payable",
      "type": "function"
    },
    {
      "inputs": [],
      "name": "marketCount",
      "outputs": [
        {
          "internalType": "uint256",
          "name": "",
          "type": "uint256"
        }
      ],
      "stateMutability": "view",
      "type": "function"
    },
    {
      "inputs": [
        {
          "internalType": "uint256",
          "name": "",
          "type": "uint256"
        }
      ],
      "name": "marketIds",
      "outputs": [
        {
          "internalType": "uint256",
          "name": "",
          "type": "uint256"
        }
      ],
      "stateMutability": "view",
      "type": "function"
    },
    {
      "inputs": [
        {
          "internalType": "uint256",
          "name": "",
          "type": "uint256"
        }
      ],
      "name": "markets",
      "outputs": [
        {
          "internalType": "string",
          "name": "description",
          "type": "string"
        },
        {
          "internalType": "address",
          "name": "creator",
          "type": "address"
        },
        {
          "internalType": "uint256",
          "name": "expirationDate",
          "type": "uint256"
        },
        {
          "internalType": "uint256",
          "name": "verificationTime",
          "type": "uint256"
        },
        {
          "internalType": "bool",
          "name": "isResolved",
          "type": "bool"
        },
        {
          "internalType": "uint256",
          "name": "requestTime",
          "type": "uint256"
        },
        {
          "internalType": "int256",
          "name": "outcome",
          "type": "int256"
        },
        {
          "internalType": "bytes",
          "name": "questionText",
          "type": "bytes"
        },
        {
          "internalType": "string",
          "name": "imageUrl",
          "type": "string"
        },
        {
          "internalType": "enum FlowContract.MarketCategory",
          "name": "category",
          "type": "uint8"
        },
        {
          "internalType": "uint256",
          "name": "optionCount",
          "type": "uint256"
        }
      ],
      "stateMutability": "view",
      "type": "function"
    },
    {
      "inputs": [
        {
          "internalType": "uint32",
          "name": "",
          "type": "uint32"
        },
        {
          "internalType": "bytes32",
          "name": "",
          "type": "bytes32"
        }
      ],
      "name": "nextNonce",
      "outputs": [
        {
          "internalType": "uint64",
          "name": "nonce",
          "type": "uint64"
        }
      ],
      "stateMutability": "view",
      "type": "function"
    },
    {
      "inputs": [],
      "name": "oAppVersion",
      "outputs": [
        {
          "internalType": "uint64",
          "name": "senderVersion",
          "type": "uint64"
        },
        {
          "internalType": "uint64",
          "name": "receiverVersion",
          "type": "uint64"
        }
      ],
      "stateMutability": "pure",
      "type": "function"
    },
    {
      "inputs": [],
      "name": "owner",
      "outputs": [
        {
          "internalType": "address",
          "name": "",
          "type": "address"
        }
      ],
      "stateMutability": "view",
      "type": "function"
    },
    {
      "inputs": [
        {
          "internalType": "uint32",
          "name": "eid",
          "type": "uint32"
        }
      ],
      "name": "peers",
      "outputs": [
        {
          "internalType": "bytes32",
          "name": "peer",
          "type": "bytes32"
        }
      ],
      "stateMutability": "view",
      "type": "function"
    },
    {
      "inputs": [
        {
          "internalType": "uint256",
          "name": "marketId",
          "type": "uint256"
        },
        {
          "internalType": "uint256",
          "name": "optionIndex",
          "type": "uint256"
        }
      ],
      "name": "placeBet",
      "outputs": [],
      "stateMutability": "payable",
      "type": "function"
    },
    {
      "inputs": [
        {
          "internalType": "uint256",
          "name": "marketId",
          "type": "uint256"
        },
        {
          "internalType": "bool",
          "name": "isYes",
          "type": "bool"
        }
      ],
      "name": "placeBetYesNo",
      "outputs": [],
      "stateMutability": "payable",
      "type": "function"
    },
    {
      "inputs": [],
      "name": "platformBalance",
      "outputs": [
        {
          "internalType": "uint256",
          "name": "",
          "type": "uint256"
        }
      ],
      "stateMutability": "view",
      "type": "function"
    },
    {
      "inputs": [
        {
          "internalType": "uint32",
          "name": "_dstEid",
          "type": "uint32"
        },
        {
          "internalType": "string",
          "name": "_message",
          "type": "string"
        },
        {
          "internalType": "bytes",
          "name": "_options",
          "type": "bytes"
        },
        {
          "internalType": "bool",
          "name": "_payInLzToken",
          "type": "bool"
        }
      ],
      "name": "quote",
      "outputs": [
        {
          "components": [
            {
              "internalType": "uint256",
              "name": "nativeFee",
              "type": "uint256"
            },
            {
              "internalType": "uint256",
              "name": "lzTokenFee",
              "type": "uint256"
            }
          ],
          "internalType": "struct MessagingFee",
          "name": "fee",
          "type": "tuple"
        }
      ],
      "stateMutability": "view",
      "type": "function"
    },
    {
      "inputs": [
        {
          "internalType": "address",
          "name": "admin",
          "type": "address"
        }
      ],
      "name": "removeAdmin",
      "outputs": [],
      "stateMutability": "nonpayable",
      "type": "function"
    },
    {
      "inputs": [
        {
          "internalType": "address",
          "name": "creator",
          "type": "address"
        }
      ],
      "name": "removeBetCreator",
      "outputs": [],
      "stateMutability": "nonpayable",
      "type": "function"
    },
    {
      "inputs": [],
      "name": "renounceOwnership",
      "outputs": [],
      "stateMutability": "nonpayable",
      "type": "function"
    },
    {
      "inputs": [
        {
          "internalType": "uint32",
          "name": "_dstEid",
          "type": "uint32"
        },
        {
          "internalType": "string",
          "name": "_message",
          "type": "string"
        },
        {
          "internalType": "bytes",
          "name": "_options",
          "type": "bytes"
        }
      ],
      "name": "send",
      "outputs": [
        {
          "components": [
            {
              "internalType": "bytes32",
              "name": "guid",
              "type": "bytes32"
            },
            {
              "internalType": "uint64",
              "name": "nonce",
              "type": "uint64"
            },
            {
              "components": [
                {
                  "internalType": "uint256",
                  "name": "nativeFee",
                  "type": "uint256"
                },
                {
                  "internalType": "uint256",
                  "name": "lzTokenFee",
                  "type": "uint256"
                }
              ],
              "internalType": "struct MessagingFee",
              "name": "fee",
              "type": "tuple"
            }
          ],
          "internalType": "struct MessagingReceipt",
          "name": "receipt",
          "type": "tuple"
        }
      ],
      "stateMutability": "payable",
      "type": "function"
    },
    {
      "inputs": [
        {
          "internalType": "address",
          "name": "_delegate",
          "type": "address"
        }
      ],
      "name": "setDelegate",
      "outputs": [],
      "stateMutability": "nonpayable",
      "type": "function"
    },
    {
      "inputs": [
        {
          "components": [
            {
              "internalType": "uint32",
              "name": "eid",
              "type": "uint32"
            },
            {
              "internalType": "uint16",
              "name": "msgType",
              "type": "uint16"
            },
            {
              "internalType": "bytes",
              "name": "options",
              "type": "bytes"
            }
          ],
          "internalType": "struct EnforcedOptionParam[]",
          "name": "_enforcedOptions",
          "type": "tuple[]"
        }
      ],
      "name": "setEnforcedOptions",
      "outputs": [],
      "stateMutability": "nonpayable",
      "type": "function"
    },
    {
      "inputs": [
        {
          "internalType": "uint32",
          "name": "_eid",
          "type": "uint32"
        },
        {
          "internalType": "bytes32",
          "name": "_peer",
          "type": "bytes32"
        }
      ],
      "name": "setPeer",
      "outputs": [],
      "stateMutability": "nonpayable",
      "type": "function"
    },
    {
      "inputs": [
        {
          "internalType": "address",
          "name": "newOwner",
          "type": "address"
        }
      ],
      "name": "transferOwnership",
      "outputs": [],
      "stateMutability": "nonpayable",
      "type": "function"
    },
    {
      "inputs": [],
      "name": "withdrawPlatformFees",
      "outputs": [],
      "stateMutability": "nonpayable",
      "type": "function"
    }
  ],
  "transactionHash": "0x4818d1d3c90132aeb9797737a2aae464051e6ad35973ed71b834abf160d6c417",
  "args": [
    "0x6C7Ab2202C98C4227C5c46f1417D81144DA716Ff",
    "0x504b635B7E22F8DF7d037cf31639811AE583E9f0"
  ],
  "numDeployments": 1,
  "solcInputHash": "4a23ae58ce09dc9c55cf9605e78836dd",
  "bytecode": "0x60e0604052601560a09081527f4e6f7468696e67207265636569766564207965742e000000000000000000000060c0526003906200003e908262000241565b503480156200004c57600080fd5b5060405162004255380380620042558339810160408190526200006f916200032a565b81818181806001600160a01b038116620000a357604051631e4fbdf760e01b81526000600482015260240160405180910390fd5b620000ae816200014a565b506001600160a01b038083166080528116620000dd57604051632d618d8160e21b815260040160405180910390fd5b60805160405163ca5eb5e160e01b81526001600160a01b0383811660048301529091169063ca5eb5e190602401600060405180830381600087803b1580156200012557600080fd5b505af11580156200013a573d6000803e3d6000fd5b5050505050505050505062000362565b600080546001600160a01b038381166001600160a01b0319831681178455604051919092169283917f8be0079c531659141344cd1fd0a4f28419497f9722a3daafe3b4186f6b6457e09190a35050565b634e487b7160e01b600052604160045260246000fd5b600181811c90821680620001c557607f821691505b602082108103620001e657634e487b7160e01b600052602260045260246000fd5b50919050565b601f8211156200023c576000816000526020600020601f850160051c81016020861015620002175750805b601f850160051c820191505b81811015620002385782815560010162000223565b5050505b505050565b81516001600160401b038111156200025d576200025d6200019a565b62000275816200026e8454620001b0565b84620001ec565b602080601f831160018114620002ad5760008415620002945750858301515b600019600386901b1c1916600185901b17855562000238565b600085815260208120601f198616915b82811015620002de57888601518255948401946001909101908401620002bd565b5085821015620002fd5787850151600019600388901b60f8161c191681555b5050505050600190811b01905550565b80516001600160a01b03811681146200032557600080fd5b919050565b600080604083850312156200033e57600080fd5b62000349836200030d565b915062000359602084016200030d565b90509250929050565b608051613ead620003a8600039600081816103870152818161084a01528181611d90015281816128370152818161292501528181612a1c0152612ad30152613ead6000f3fe6080604052600436106102305760003560e01c8063a3776fe51161012e578063ca5eb5e1116100ab578063ec9790821161006f578063ec979082146106fd578063f2fde38b14610713578063f72a8f3514610733578063f77e5dd314610753578063ff7bd03d1461078057600080fd5b8063ca5eb5e114610667578063d0b7830b14610687578063de87b07d1461069c578063e0539e58146106ca578063e4e8eb11146106ea57600080fd5b8063b85ed636116100f2578063b85ed636146105a8578063b98bd070146105ca578063bb0b6a53146105ea578063bc70b35414610617578063c4789f5a1461063757600080fd5b8063a3776fe5146104d7578063b06c1ba3146104f7578063b0772d0b1461052f578063b1283e7714610551578063b511cd461461058857600080fd5b80635e280f11116101bc57806373d4a13a1161018057806373d4a13a1461042c578063779a9683146104415780637d25a05e1461046157806382413eac146104995780638da5cb5b146104b957600080fd5b80635e280f111461037557806362a5dbbc146103c1578063677bd9ff146103d757806370480275146103f7578063715018a61461041757600080fd5b80633400288b116102035780633400288b146102b157806334fbc9a1146102d1578063429b62e5146102f55780634afe62b5146103355780635535d4611461034857600080fd5b80630e58ca411461023557806313137d651461025757806317442b701461026a5780631785f53c14610291575b600080fd5b34801561024157600080fd5b50610255610250366004612cf6565b6107a0565b005b610255610265366004612d73565b610848565b34801561027657600080fd5b50604080516001815260026020820152015b60405180910390f35b34801561029d57600080fd5b506102556102ac366004612cf6565b610903565b3480156102bd57600080fd5b506102556102cc366004612e2b565b6109b6565b3480156102dd57600080fd5b506102e761012c81565b604051908152602001610288565b34801561030157600080fd5b50610325610310366004612cf6565b60046020526000908152604090205460ff1681565b6040519015158152602001610288565b610255610343366004612e55565b6109cc565b34801561035457600080fd5b50610368610363366004612e89565b6109d6565b6040516102889190612f0c565b34801561038157600080fd5b506103a97f000000000000000000000000000000000000000000000000000000000000000081565b6040516001600160a01b039091168152602001610288565b3480156103cd57600080fd5b506102e760065481565b3480156103e357600080fd5b506102556103f2366004612f1f565b610a7b565b34801561040357600080fd5b50610255610412366004612cf6565b610de8565b34801561042357600080fd5b50610255610e84565b34801561043857600080fd5b50610368610e98565b34801561044d57600080fd5b506102e761045c366004612f1f565b610ea5565b34801561046d57600080fd5b5061048161047c366004612e2b565b610ec6565b6040516001600160401b039091168152602001610288565b3480156104a557600080fd5b506103256104b4366004612f38565b610ecf565b3480156104c557600080fd5b506000546001600160a01b03166103a9565b3480156104e357600080fd5b506102556104f236600461313c565b610ee4565b34801561050357600080fd5b50610517610512366004612f1f565b61139e565b6040516102889c9b9a99989796959493929190613280565b34801561053b57600080fd5b506105446115eb565b604051610288919061331e565b34801561055d57600080fd5b5061057161056c366004612f1f565b6118c2565b6040516102889b9a99989796959493929190613442565b34801561059457600080fd5b506102e76105a3366004612f1f565b611ac6565b3480156105b457600080fd5b506105bd611b4f565b60405161028891906134d5565b3480156105d657600080fd5b506102556105e53660046134e8565b611ba7565b3480156105f657600080fd5b506102e761060536600461355c565b60016020526000908152604090205481565b34801561062357600080fd5b50610368610632366004613577565b611bc1565b34801561064357600080fd5b50610325610652366004612cf6565b60056020526000908152604090205460ff1681565b34801561067357600080fd5b50610255610682366004612cf6565b611d69565b34801561069357600080fd5b50610255611def565b3480156106a857600080fd5b506106bc6106b73660046135d7565b611eca565b6040516102889291906135f5565b6106dd6106d8366004613619565b611f5a565b6040516102889190613683565b6102556106f83660046136ce565b611fe3565b34801561070957600080fd5b506102e760085481565b34801561071f57600080fd5b5061025561072e366004612cf6565b612008565b34801561073f57600080fd5b5061025561074e366004612cf6565b612046565b34801561075f57600080fd5b5061077361076e3660046136f1565b612134565b6040516102889190613775565b34801561078c57600080fd5b5061032561079b36600461378c565b612178565b3360009081526004602052604090205460ff166107ff5760405162461bcd60e51b81526020600482015260186024820152774f6e6c792061646d696e2063616e2063616c6c207468697360401b60448201526064015b60405180910390fd5b6001600160a01b038116600081815260056020526040808220805460ff19169055517f0150c1993af1eca45720c8fff7407b690d999da31aa1b98381f3b025d5417bd09190a250565b7f00000000000000000000000000000000000000000000000000000000000000006001600160a01b03163314610893576040516391ac5e4f60e01b81523360048201526024016107f6565b602087018035906108ad906108a8908a61355c565b6121ae565b146108eb576108bf602088018861355c565b60405163309afaf360e21b815263ffffffff9091166004820152602088013560248201526044016107f6565b6108fa878787878787876121ea565b50505050505050565b61090b61220d565b6000546001600160a01b03166001600160a01b0316816001600160a01b03160361096d5760405162461bcd60e51b815260206004820152601360248201527221b0b73737ba103932b6b7bb329037bbb732b960691b60448201526064016107f6565b6001600160a01b038116600081815260046020526040808220805460ff19169055517fa3b62bc36326052d97ea62d63c3d60308ed4c3ea8ac079dd8499f1e9c4f80c0f9190a250565b6109be61220d565b6109c8828261223a565b5050565b6109c8828261228f565b6002602090815260009283526040808420909152908252902080546109fa906137a8565b80601f0160208091040260200160405190810160405280929190818152602001828054610a26906137a8565b8015610a735780601f10610a4857610100808354040283529160200191610a73565b820191906000526020600020905b815481529060010190602001808311610a5657829003601f168201915b505050505081565b600081118015610a8d57506008548111155b610aa95760405162461bcd60e51b81526004016107f6906137dc565b6000818152600760205260409020600481015460ff16610b015760405162461bcd60e51b815260206004820152601360248201527213585c9ad95d081b9bdd081c995cdbdb1d9959606a1b60448201526064016107f6565b336000908152600b820160205260409020600181015460ff1615610b675760405162461bcd60e51b815260206004820152601860248201527f57696e6e696e677320616c726561647920636c61696d6564000000000000000060448201526064016107f6565b6000805b83600d0154811015610bb0576000836000018281548110610b8e57610b8e61380b565b90600052602060002001541115610ba85760019150610bb0565b600101610b6b565b5080610bef5760405162461bcd60e51b815260206004820152600e60248201526d139bc818995d1cc81c1b1858d95960921b60448201526064016107f6565b600783015482546000908190859084908110610c0d57610c0d61380b565b90600052602060002001541115610d23576000856005018381548110610c3557610c3561380b565b906000526020600020015490506000805b87600d0154811015610c8f57848114610c8757876005018181548110610c6e57610c6e61380b565b906000526020600020015482610c849190613837565b91505b600101610c46565b508015610cfd578181876000018681548110610cad57610cad61380b565b9060005260206000200154610cc2919061384a565b610ccc9190613877565b866000018581548110610ce157610ce161380b565b9060005260206000200154610cf69190613837565b9250610d20565b856000018481548110610d1257610d1261380b565b906000526020600020015492505b50505b60008111610d6a5760405162461bcd60e51b81526020600482015260146024820152734e6f2077696e6e696e677320746f20636c61696d60601b60448201526064016107f6565b6001848101805460ff19169091179055604051339082156108fc029083906000818181858888f19350505050158015610da7573d6000803e3d6000fd5b50604051818152869033907f7472e24de4628e34b41a2aa1688ed4b46a9145b2de1cf93d74902473ccc1740d906020015b60405180910390a3505050505050565b610df061220d565b6001600160a01b038116610e385760405162461bcd60e51b815260206004820152600f60248201526e496e76616c6964206164647265737360881b60448201526064016107f6565b6001600160a01b038116600081815260046020526040808220805460ff19166001179055517f44d6d25963f097ad14f29f06854a01f575648a1ef82f30e562ccd3889717e3399190a250565b610e8c61220d565b610e966000612581565b565b600380546109fa906137a8565b60098181548110610eb557600080fd5b600091825260209091200154905081565b60005b92915050565b6001600160a01b03811630145b949350505050565b3360009081526005602052604090205460ff16610f435760405162461bcd60e51b815260206004820152601e60248201527f4f6e6c79206265742063726561746f722063616e2063616c6c2074686973000060448201526064016107f6565b428411610f925760405162461bcd60e51b815260206004820152601760248201527f496e76616c69642065787069726174696f6e206461746500000000000000000060448201526064016107f6565b6096831015610fe35760405162461bcd60e51b815260206004820152601b60248201527f566572696669636174696f6e2074696d6520746f6f2073686f7274000000000060448201526064016107f6565b620151808311156110365760405162461bcd60e51b815260206004820152601a60248201527f566572696669636174696f6e2074696d6520746f6f206c6f6e6700000000000060448201526064016107f6565b6002855110156110885760405162461bcd60e51b815260206004820152601b60248201527f4174206c656173742032206f7074696f6e73207265717569726564000000000060448201526064016107f6565b600a855111156110da5760405162461bcd60e51b815260206004820152601a60248201527f4d6178696d756d203130206f7074696f6e7320616c6c6f77656400000000000060448201526064016107f6565b604080518082018252600a8152693d913a34ba3632911d1160b11b6020808301919091528251808401845260118152701116113232b9b1b934b83a34b7b7111d1160791b8183015283518085018552600d81526c222c226f7074696f6e73223a5b60981b8184015293519293909290916000916111619186918e9187918f9188910161388b565b604051602081830303815290604052905060005b89518110156111f75780156111a7578160405160200161119591906138f6565b60405160208183030381529060405291505b818a82815181106111ba576111ba61380b565b60200260200101516111cb836125d1565b6040516020016111dd9392919061391b565b60408051601f198184030181529190529150600101611175565b5080604051602001611209919061398c565b60408051601f1981840301815291905260088054919250600061122b836139b2565b909155505060085460009081526007602052604090208061124c8c82613a1b565b506001810180546001600160a01b0319163317905560028101899055600381018890556008810161127d8382613a1b565b506009810161128c8882613a1b565b50600a8101805487919060ff191660018360078111156112ae576112ae613248565b021790555060001960078201558951600d82018190556001600160401b038111156112db576112db612f9e565b604051908082528060200260200182016040528015611304578160200160208202803683370190505b50805161131b916005840191602090910190612bc1565b50600854600980546001810182556000919091527f6e1540171b6c0c960b71a7020d9f60077f6af931a8bbf590da0223dacf75c7af018190556040517f208e61cb94f388de8317e3bf4569be2a912366b1d5a8df15cac962fea10cea2690611388908e908d908d90613ada565b60405180910390a2505050505050505050505050565b600060606000806000806060600080600060606000808d1180156113c457506008548d11155b6113e05760405162461bcd60e51b81526004016107f6906137dc565b6000600760008f815260200190815260200160002090508d816000018260010160009054906101000a90046001600160a01b0316836002015484600301548560040160009054906101000a900460ff16866005018760060154886007015489600a0160009054906101000a900460ff168a6009018b600d01548a8054611465906137a8565b80601f0160208091040260200160405190810160405280929190818152602001828054611491906137a8565b80156114de5780601f106114b3576101008083540402835291602001916114de565b820191906000526020600020905b8154815290600101906020018083116114c157829003601f168201915b50505050509a508580548060200260200160405190810160405280929190818152602001828054801561153057602002820191906000526020600020905b81548152602001906001019080831161151c575b50505050509550818054611543906137a8565b80601f016020809104026020016040519081016040528092919081815260200182805461156f906137a8565b80156115bc5780601f10611591576101008083540402835291602001916115bc565b820191906000526020600020905b81548152906001019060200180831161159f57829003601f168201915b505050505091509c509c509c509c509c509c509c509c509c509c509c509c505091939597999b5091939597999b565b6009546060906000816001600160401b0381111561160b5761160b612f9e565b60405190808252806020026020018201604052801561164457816020015b611631612c08565b8152602001906001900390816116295790505b50905060005b828110156118bb576000600982815481106116675761166761380b565b9060005260206000200154905060006007600083815260200190815260200160002090506040518061018001604052808381526020018260000180546116ac906137a8565b80601f01602080910402602001604051908101604052809291908181526020018280546116d8906137a8565b80156117255780601f106116fa57610100808354040283529160200191611725565b820191906000526020600020905b81548152906001019060200180831161170857829003601f168201915b505050918352505060018301546001600160a01b0316602080830191909152600284015460408084019190915260038501546060840152600485015460ff161515608084015260058501805482518185028101850190935280835260a09094019391929091908301828280156117ba57602002820191906000526020600020905b8154815260200190600101908083116117a6575b5050509183525050600683015460208201526007808401546040830152600a84015460609092019160ff16908111156117f5576117f5613248565b8152602001826009018054611809906137a8565b80601f0160208091040260200160405190810160405280929190818152602001828054611835906137a8565b80156118825780601f1061185757610100808354040283529160200191611882565b820191906000526020600020905b81548152906001019060200180831161186557829003601f168201915b5050505050815260200182600d01548152508484815181106118a6576118a661380b565b6020908102919091010152505060010161164a565b5092915050565b6007602052600090815260409020805481906118dd906137a8565b80601f0160208091040260200160405190810160405280929190818152602001828054611909906137a8565b80156119565780601f1061192b57610100808354040283529160200191611956565b820191906000526020600020905b81548152906001019060200180831161193957829003601f168201915b5050505060018301546002840154600385015460048601546006870154600788015460088901805498996001600160a01b0390971698959750939560ff9093169491939092916119a5906137a8565b80601f01602080910402602001604051908101604052809291908181526020018280546119d1906137a8565b8015611a1e5780601f106119f357610100808354040283529160200191611a1e565b820191906000526020600020905b815481529060010190602001808311611a0157829003601f168201915b505050505090806009018054611a33906137a8565b80601f0160208091040260200160405190810160405280929190818152602001828054611a5f906137a8565b8015611aac5780601f10611a8157610100808354040283529160200191611aac565b820191906000526020600020905b815481529060010190602001808311611a8f57829003601f168201915b50505050600a830154600d90930154919260ff169190508b565b60008082118015611ad957506008548211155b611af55760405162461bcd60e51b81526004016107f6906137dc565b600082815260076020526040812090805b82600d0154811015611b4757826005018181548110611b2757611b2761380b565b906000526020600020015482611b3d9190613837565b9150600101611b06565b509392505050565b60606009805480602002602001604051908101604052809291908181526020018280548015611b9d57602002820191906000526020600020905b815481526020019060010190808311611b89575b5050505050905090565b611baf61220d565b6109c8611bbc8284613aff565b6126d1565b63ffffffff8416600090815260026020908152604080832061ffff87168452909152812080546060929190611bf5906137a8565b80601f0160208091040260200160405190810160405280929190818152602001828054611c21906137a8565b8015611c6e5780601f10611c4357610100808354040283529160200191611c6e565b820191906000526020600020905b815481529060010190602001808311611c5157829003601f168201915b505050505090508051600003611cbe5783838080601f016020809104026020016040519081016040528093929190818152602001838380828437600092019190915250929450610edc9350505050565b6000839003611cce579050610edc565b60028310611d4c57611d1584848080601f0160208091040260200160405190810160405280939291908181526020018383808284376000920191909152506127d892505050565b80611d238460028188613bc8565b604051602001611d3593929190613bf2565b604051602081830303815290604052915050610edc565b8383604051639a6d49cd60e01b81526004016107f6929190613c1a565b611d7161220d565b60405163ca5eb5e160e01b81526001600160a01b0382811660048301527f0000000000000000000000000000000000000000000000000000000000000000169063ca5eb5e190602401600060405180830381600087803b158015611dd457600080fd5b505af1158015611de8573d6000803e3d6000fd5b5050505050565b611df761220d565b600060065411611e3f5760405162461bcd60e51b81526020600482015260136024820152724e6f206665657320746f20776974686472617760681b60448201526064016107f6565b600680546000909155611e5a6000546001600160a01b031690565b6001600160a01b03166108fc829081150290604051600060405180830381858888f19350505050158015611e92573d6000803e3d6000fd5b506040518181527f9870c8023baa016ac002ddfa7cdad341155acddddee3032c07d4baa4947ae643906020015b60405180910390a150565b60008181526007602090815260408083206001600160a01b0386168452600b01825280832060018101548154835181860281018601909452808452606095949293849360ff9093169290918491830182828015611f4657602002820191906000526020600020905b815481526020019060010190808311611f32575b5050505050915092509250505b9250929050565b611f62612c85565b600084604051602001611f759190612f0c565b60408051601f198184030181526020601f87018190048102840181019092528583529250611fd99188918491908890889081908401838280828437600092018290525060408051808201909152348152602081019190915292503391506128049050565b9695505050505050565b600081611ff1576000611ff4565b60015b60ff169050612003838261228f565b505050565b61201061220d565b6001600160a01b03811661203a57604051631e4fbdf760e01b8152600060048201526024016107f6565b61204381612581565b50565b3360009081526004602052604090205460ff166120a05760405162461bcd60e51b81526020600482015260186024820152774f6e6c792061646d696e2063616e2063616c6c207468697360401b60448201526064016107f6565b6001600160a01b0381166120e85760405162461bcd60e51b815260206004820152600f60248201526e496e76616c6964206164647265737360881b60448201526064016107f6565b6001600160a01b038116600081815260056020526040808220805460ff19166001179055517fe318786df0240be4ddd811f63c4948fadb57de75054aa449429e45b6eac9d09f9190a250565b604080518082019091526000808252602082015260008460405160200161215b9190612f0c565b6040516020818303038152906040529050611fd98682868661290f565b6000602082018035906001908390612190908661355c565b63ffffffff1681526020810191909152604001600020541492915050565b63ffffffff811660009081526001602052604081205480610ec95760405163f6ff4fb760e01b815263ffffffff841660048201526024016107f6565b6121f684860186613c49565b6003906122039082613a1b565b5050505050505050565b6000546001600160a01b03163314610e965760405163118cdaa760e01b81523360048201526024016107f6565b63ffffffff8216600081815260016020908152604091829020849055815192835282018390527f238399d427b947898edb290f5ff0f9109849b1c3ba196a42e35f00c50a54b98b910160405180910390a15050565b6000821180156122a157506008548211155b6122bd5760405162461bcd60e51b81526004016107f6906137dc565b6000828152600760205260409020600481015460ff16156123155760405162461bcd60e51b815260206004820152601260248201527113585c9ad95d081a5cc81c995cdbdb1d995960721b60448201526064016107f6565b8060020154421061235d5760405162461bcd60e51b815260206004820152601260248201527113585c9ad95d081a185cc8195e1c1a5c995960721b60448201526064016107f6565b600034116123b75760405162461bcd60e51b815260206004820152602160248201527f42657420616d6f756e74206d7573742062652067726561746572207468616e206044820152600360fc1b60648201526084016107f6565b80600d015482106124015760405162461bcd60e51b8152602060048201526014602482015273092dcecc2d8d2c840dee0e8d2dedc40d2dcc8caf60631b60448201526064016107f6565b600061271061241261012c3461384a565b61241c9190613877565b9050600061242a8234613c7d565b9050816006600082825461243e9190613837565b9091555050336000908152600b84016020526040812080549091036124df5783600d01546001600160401b0381111561247957612479612f9e565b6040519080825280602002602001820160405280156124a2578160200160208202803683370190505b5080516124b6918391602090910190612bc1565b50600c84018054600181018255600091825260209091200180546001600160a01b031916331790555b818460050186815481106124f5576124f561380b565b90600052602060002001600082825461250e9190613837565b9091555050805482908290879081106125295761252961380b565b9060005260206000200160008282546125429190613837565b90915550506040805183815260208101879052879133917f7363e6581df4db69463222156be4a09656528b9f1302890fa4c0b60819b69fc69101610dd8565b600080546001600160a01b038381166001600160a01b0319831681178455604051919092169283917f8be0079c531659141344cd1fd0a4f28419497f9722a3daafe3b4186f6b6457e09190a35050565b6060816000036125f85750506040805180820190915260018152600360fc1b602082015290565b8160005b8115612622578061260c816139b2565b915061261b9050600a83613877565b91506125fc565b6000816001600160401b0381111561263c5761263c612f9e565b6040519080825280601f01601f191660200182016040528015612666576020820181803683370190505b5090505b8415610edc5761267b600183613c7d565b9150612688600a86613c90565b612693906030613837565b60f81b8183815181106126a8576126a861380b565b60200101906001600160f81b031916908160001a9053506126ca600a86613877565b945061266a565b60005b81518110156127a8576127038282815181106126f2576126f261380b565b6020026020010151604001516127d8565b8181815181106127155761271561380b565b602002602001015160400151600260008484815181106127375761273761380b565b60200260200101516000015163ffffffff1663ffffffff16815260200190815260200160002060008484815181106127715761277161380b565b60200260200101516020015161ffff1661ffff168152602001908152602001600020908161279f9190613a1b565b506001016126d4565b507fbe4864a8e820971c0247f5992e2da559595f7bf076a21cb5928d443d2a13b67481604051611ebf9190613ca4565b600281015161ffff81166003146109c85781604051639a6d49cd60e01b81526004016107f69190612f0c565b61280c612c85565b600061281b84600001516129f0565b602085015190915015612835576128358460200151612a18565b7f00000000000000000000000000000000000000000000000000000000000000006001600160a01b0316632637a450826040518060a001604052808b63ffffffff1681526020016128858c6121ae565b81526020018a815260200189815260200160008960200151111515815250866040518463ffffffff1660e01b81526004016128c1929190613d21565b60806040518083038185885af11580156128df573d6000803e3d6000fd5b50505050506040513d601f19601f820116820180604052508101906129049190613de8565b979650505050505050565b60408051808201909152600080825260208201527f00000000000000000000000000000000000000000000000000000000000000006001600160a01b031663ddc28c586040518060a001604052808863ffffffff168152602001612972896121ae565b8152602001878152602001868152602001851515815250306040518363ffffffff1660e01b81526004016129a7929190613d21565b6040805180830381865afa1580156129c3573d6000803e3d6000fd5b505050506040513d601f19601f820116820180604052508101906129e79190613e3e565b95945050505050565b6000813414612a14576040516304fb820960e51b81523460048201526024016107f6565b5090565b60007f00000000000000000000000000000000000000000000000000000000000000006001600160a01b031663e4fe1d946040518163ffffffff1660e01b8152600401602060405180830381865afa158015612a78573d6000803e3d6000fd5b505050506040513d601f19601f82011682018060405250810190612a9c9190613e5a565b90506001600160a01b038116612ac5576040516329b99a9560e11b815260040160405180910390fd5b6040805133602482018190527f00000000000000000000000000000000000000000000000000000000000000006001600160a01b03818116604485015260648085018890528551808603909101815260849094019094526020830180516001600160e01b03166323b872dd60e01b1790526109c8938516928690612b4a908590612b50565b50505050565b600080602060008451602086016000885af180612b73576040513d6000823e3d81fd5b50506000513d91508115612b8b578060011415612b98565b6001600160a01b0384163b155b15612b4a57604051635274afe760e01b81526001600160a01b03851660048201526024016107f6565b828054828255906000526020600020908101928215612bfc579160200282015b82811115612bfc578251825591602001919060010190612be1565b50612a14929150612ccc565b604051806101800160405280600081526020016060815260200160006001600160a01b03168152602001600081526020016000815260200160001515815260200160608152602001600081526020016000815260200160006007811115612c7157612c71613248565b815260200160608152602001600081525090565b60405180606001604052806000801916815260200160006001600160401b03168152602001612cc7604051806040016040528060008152602001600081525090565b905290565b5b80821115612a145760008155600101612ccd565b6001600160a01b038116811461204357600080fd5b600060208284031215612d0857600080fd5b8135612d1381612ce1565b9392505050565b600060608284031215612d2c57600080fd5b50919050565b60008083601f840112612d4457600080fd5b5081356001600160401b03811115612d5b57600080fd5b602083019150836020828501011115611f5357600080fd5b600080600080600080600060e0888a031215612d8e57600080fd5b612d988989612d1a565b96506060880135955060808801356001600160401b0380821115612dbb57600080fd5b612dc78b838c01612d32565b909750955060a08a01359150612ddc82612ce1565b90935060c08901359080821115612df257600080fd5b50612dff8a828b01612d32565b989b979a50959850939692959293505050565b803563ffffffff81168114612e2657600080fd5b919050565b60008060408385031215612e3e57600080fd5b612e4783612e12565b946020939093013593505050565b60008060408385031215612e6857600080fd5b50508035926020909101359150565b803561ffff81168114612e2657600080fd5b60008060408385031215612e9c57600080fd5b612ea583612e12565b9150612eb360208401612e77565b90509250929050565b60005b83811015612ed7578181015183820152602001612ebf565b50506000910152565b60008151808452612ef8816020860160208601612ebc565b601f01601f19169290920160200192915050565b602081526000612d136020830184612ee0565b600060208284031215612f3157600080fd5b5035919050565b60008060008060a08587031215612f4e57600080fd5b612f588686612d1a565b935060608501356001600160401b03811115612f7357600080fd5b612f7f87828801612d32565b9094509250506080850135612f9381612ce1565b939692955090935050565b634e487b7160e01b600052604160045260246000fd5b604051606081016001600160401b0381118282101715612fd657612fd6612f9e565b60405290565b604051601f8201601f191681016001600160401b038111828210171561300457613004612f9e565b604052919050565b600082601f83011261301d57600080fd5b81356001600160401b0381111561303657613036612f9e565b613049601f8201601f1916602001612fdc565b81815284602083860101111561305e57600080fd5b816020850160208301376000918101602001919091529392505050565b60006001600160401b0382111561309457613094612f9e565b5060051b60200190565b600082601f8301126130af57600080fd5b813560206130c46130bf8361307b565b612fdc565b82815260059290921b840181019181810190868411156130e357600080fd5b8286015b848110156131225780356001600160401b038111156131065760008081fd5b6131148986838b010161300c565b8452509183019183016130e7565b509695505050505050565b803560088110612e2657600080fd5b600080600080600080600060e0888a03121561315757600080fd5b87356001600160401b038082111561316e57600080fd5b61317a8b838c0161300c565b985060208a013591508082111561319057600080fd5b61319c8b838c0161300c565b975060408a01359150808211156131b257600080fd5b6131be8b838c0161309e565b965060608a0135955060808a0135945060a08a01359150808211156131e257600080fd5b506131ef8a828b0161300c565b9250506131fe60c0890161312d565b905092959891949750929550565b60008151808452602080850194506020840160005b8381101561323d57815187529582019590820190600101613221565b509495945050505050565b634e487b7160e01b600052602160045260246000fd5b6008811061327c57634e487b7160e01b600052602160045260246000fd5b9052565b60006101808e835280602084015261329a8184018f612ee0565b6001600160a01b038e166040850152606084018d9052608084018c90528a151560a085015283810360c085015290506132d3818a61320c565b90508760e0840152866101008401526132f061012084018761325e565b8281036101408401526133038186612ee0565b915050826101608301529d9c50505050505050505050505050565b600060208083018184528085518083526040925060408601915060408160051b87010184880160005b8381101561343457603f1989840301855281516101808151855288820151818a87015261337682870182612ee0565b91505087820151613391898701826001600160a01b03169052565b50606082810151908601526080808301519086015260a08083015115159086015260c080830151868303828801526133c9838261320c565b9250505060e0808301518187015250610100808301518187015250610120808301516133f78288018261325e565b505061014080830151868303828801526134118382612ee0565b610160948501519790940196909652505094870194925090860190600101613347565b509098975050505050505050565b60006101608083526134568184018f612ee0565b905060018060a01b038d1660208401528b60408401528a606084015289151560808401528860a08401528760c084015282810360e08401526134988188612ee0565b90508281036101008401526134ad8187612ee0565b9150506134be61012083018561325e565b826101408301529c9b505050505050505050505050565b602081526000612d13602083018461320c565b600080602083850312156134fb57600080fd5b82356001600160401b038082111561351257600080fd5b818501915085601f83011261352657600080fd5b81358181111561353557600080fd5b8660208260051b850101111561354a57600080fd5b60209290920196919550909350505050565b60006020828403121561356e57600080fd5b612d1382612e12565b6000806000806060858703121561358d57600080fd5b61359685612e12565b93506135a460208601612e77565b925060408501356001600160401b038111156135bf57600080fd5b6135cb87828801612d32565b95989497509550505050565b600080604083850312156135ea57600080fd5b8235612e4781612ce1565b604081526000613608604083018561320c565b905082151560208301529392505050565b6000806000806060858703121561362f57600080fd5b61363885612e12565b935060208501356001600160401b038082111561365457600080fd5b6136608883890161300c565b9450604087013591508082111561367657600080fd5b506135cb87828801612d32565b6000608082019050825182526001600160401b03602084015116602083015260408301516118bb604084018280518252602090810151910152565b80358015158114612e2657600080fd5b600080604083850312156136e157600080fd5b82359150612eb3602084016136be565b6000806000806080858703121561370757600080fd5b61371085612e12565b935060208501356001600160401b038082111561372c57600080fd5b6137388883890161300c565b9450604087013591508082111561374e57600080fd5b5061375b8782880161300c565b92505061376a606086016136be565b905092959194509250565b815181526020808301519082015260408101610ec9565b60006060828403121561379e57600080fd5b612d138383612d1a565b600181811c908216806137bc57607f821691505b602082108103612d2c57634e487b7160e01b600052602260045260246000fd5b60208082526015908201527413585c9ad95d08191bd95cc81b9bdd08195e1a5cdd605a1b604082015260600190565b634e487b7160e01b600052603260045260246000fd5b634e487b7160e01b600052601160045260246000fd5b80820180821115610ec957610ec9613821565b8082028115828204841417610ec957610ec9613821565b634e487b7160e01b600052601260045260246000fd5b60008261388657613886613861565b500490565b6000865161389d818460208b01612ebc565b8651908301906138b1818360208b01612ebc565b86519101906138c4818360208a01612ebc565b85519101906138d7818360208901612ebc565b84519101906138ea818360208801612ebc565b01979650505050505050565b60008251613908818460208701612ebc565b600b60fa1b920191825250600101919050565b6000845161392d818460208901612ebc565b612d9160f11b908301908152845161394c816002840160208901612ebc565b6211161160e91b600292909101918201528351613970816005840160208801612ebc565b61225d60f01b6005929091019182015260070195945050505050565b6000825161399e818460208701612ebc565b615d7d60f01b920191825250600201919050565b6000600182016139c4576139c4613821565b5060010190565b601f821115612003576000816000526020600020601f850160051c810160208610156139f45750805b601f850160051c820191505b81811015613a1357828155600101613a00565b505050505050565b81516001600160401b03811115613a3457613a34612f9e565b613a4881613a4284546137a8565b846139cb565b602080601f831160018114613a7d5760008415613a655750858301515b600019600386901b1c1916600185901b178555613a13565b600085815260208120601f198616915b82811015613aac57888601518255948401946001909101908401613a8d565b5085821015613aca5787850151600019600388901b60f8161c191681555b5050505050600190811b01905550565b606081526000613aed6060830186612ee0565b60208301949094525060400152919050565b6000613b0d6130bf8461307b565b80848252602080830192508560051b850136811115613b2b57600080fd5b855b81811015613bbc5780356001600160401b0380821115613b4d5760008081fd5b818901915060608236031215613b635760008081fd5b613b6b612fb4565b613b7483612e12565b8152613b81868401612e77565b8682015260408084013583811115613b995760008081fd5b613ba53682870161300c565b918301919091525087525050938201938201613b2d565b50919695505050505050565b60008085851115613bd857600080fd5b83861115613be557600080fd5b5050820193919092039150565b60008451613c04818460208901612ebc565b8201838582376000930192835250909392505050565b60208152816020820152818360408301376000818301604090810191909152601f909201601f19160101919050565b600060208284031215613c5b57600080fd5b81356001600160401b03811115613c7157600080fd5b610edc8482850161300c565b81810381811115610ec957610ec9613821565b600082613c9f57613c9f613861565b500690565b600060208083018184528085518083526040925060408601915060408160051b87010184880160005b8381101561343457888303603f190185528151805163ffffffff1684528781015161ffff16888501528601516060878501819052613d0d81860183612ee0565b968901969450505090860190600101613ccd565b6040815263ffffffff8351166040820152602083015160608201526000604084015160a06080840152613d5760e0840182612ee0565b90506060850151603f198483030160a0850152613d748282612ee0565b60809690960151151560c08501525050506001600160a01b039190911660209091015290565b600060408284031215613dac57600080fd5b604051604081018181106001600160401b0382111715613dce57613dce612f9e565b604052825181526020928301519281019290925250919050565b600060808284031215613dfa57600080fd5b613e02612fb4565b8251815260208301516001600160401b0381168114613e2057600080fd5b6020820152613e328460408501613d9a565b60408201529392505050565b600060408284031215613e5057600080fd5b612d138383613d9a565b600060208284031215613e6c57600080fd5b8151612d1381612ce156fea26469706673582212202e36892ac009fec41116211e0127f36ad6b919c328674c5f122e9d2838c16b2664736f6c63430008160033",
  "devdoc": {
    "errors": {
      "OwnableInvalidOwner(address)": [
        {
          "details": "The owner is not a valid owner account. (eg. `address(0)`)"
        }
      ],
      "OwnableUnauthorizedAccount(address)": [
        {
          "details": "The caller account is not authorized to perform an operation."
        }
      ],
      "SafeERC20FailedOperation(address)": [
        {
          "details": "An operation with an ERC-20 token failed."
        }
      ]
    },
    "kind": "dev",
    "methods": {
      "allowInitializePath((uint32,bytes32,uint64))": {
        "details": "This indicates to the endpoint that the OApp has enabled msgs for this particular path to be received.This defaults to assuming if a peer has been set, its initialized. Can be overridden by the OApp if there is other logic to determine this.",
        "params": {
          "origin": "The origin information containing the source endpoint and sender address."
        },
        "returns": {
          "_0": "Whether the path has been initialized."
        }
      },
      "combineOptions(uint32,uint16,bytes)": {
        "details": "If there is an enforced lzReceive option: - {gasLimit: 200k, msg.value: 1 ether} AND a caller supplies a lzReceive option: {gasLimit: 100k, msg.value: 0.5 ether} - The resulting options will be {gasLimit: 300k, msg.value: 1.5 ether} when the message is executed on the remote lzReceive() function.This presence of duplicated options is handled off-chain in the verifier/executor.",
        "params": {
          "_eid": "The endpoint ID.",
          "_extraOptions": "Additional options passed by the caller.",
          "_msgType": "The OAPP message type."
        },
        "returns": {
          "_0": "options The combination of caller specified options AND enforced options."
        }
      },
      "isComposeMsgSender((uint32,bytes32,uint64),bytes,address)": {
        "details": "_origin The origin information containing the source endpoint and sender address.  - srcEid: The source chain endpoint ID.  - sender: The sender address on the src chain.  - nonce: The nonce of the message._message The lzReceive payload.Applications can optionally choose to implement separate composeMsg senders that are NOT the bridging layer.The default sender IS the OAppReceiver implementer.",
        "params": {
          "_sender": "The sender address."
        },
        "returns": {
          "_0": "isSender Is a valid sender."
        }
      },
      "lzReceive((uint32,bytes32,uint64),bytes32,bytes,address,bytes)": {
        "details": "Entry point for receiving messages or packets from the endpoint.Entry point for receiving msg/packet from the LayerZero endpoint.",
        "params": {
          "_executor": "The address of the executor for the received message.",
          "_extraData": "Additional arbitrary data provided by the corresponding executor.",
          "_guid": "The unique identifier for the received LayerZero message.",
          "_message": "The payload of the received message.",
          "_origin": "The origin information containing the source endpoint and sender address.  - srcEid: The source chain endpoint ID.  - sender: The sender address on the src chain.  - nonce: The nonce of the message."
        }
      },
      "nextNonce(uint32,bytes32)": {
        "details": "_srcEid The source endpoint ID._sender The sender address.The path nonce starts from 1. If 0 is returned it means that there is NO nonce ordered enforcement.Is required by the off-chain executor to determine the OApp expects msg execution is ordered.This is also enforced by the OApp.By default this is NOT enabled. ie. nextNonce is hardcoded to return 0.",
        "returns": {
          "nonce": "The next nonce."
        }
      },
      "oAppVersion()": {
        "returns": {
          "receiverVersion": "The version of the OAppReceiver.sol implementation.",
          "senderVersion": "The version of the OAppSender.sol implementation."
        }
      },
      "owner()": {
        "details": "Returns the address of the current owner."
      },
      "quote(uint32,string,bytes,bool)": {
        "params": {
          "_dstEid": "Destination chain's endpoint ID.",
          "_message": "The message.",
          "_options": "Message execution options (e.g., for sending gas to destination).",
          "_payInLzToken": "Whether to return fee in ZRO token."
        },
        "returns": {
          "fee": "A `MessagingFee` struct containing the calculated gas fee in either the native token or ZRO token."
        }
      },
      "renounceOwnership()": {
        "details": "Leaves the contract without owner. It will not be possible to call `onlyOwner` functions. Can only be called by the current owner. NOTE: Renouncing ownership will leave the contract without an owner, thereby disabling any functionality that is only available to the owner."
      },
      "send(uint32,string,bytes)": {
        "details": "Encodes the message as bytes and sends it using the `_lzSend` internal function.",
        "params": {
          "_dstEid": "The endpoint ID of the destination chain.",
          "_message": "The message string to be sent.",
          "_options": "Additional options for message execution."
        },
        "returns": {
          "receipt": "A `MessagingReceipt` struct containing details of the message sent."
        }
      },
      "setDelegate(address)": {
        "details": "Only the owner/admin of the OApp can call this function.Provides the ability for a delegate to set configs, on behalf of the OApp, directly on the Endpoint contract.",
        "params": {
          "_delegate": "The address of the delegate to be set."
        }
      },
      "setEnforcedOptions((uint32,uint16,bytes)[])": {
        "details": "Sets the enforced options for specific endpoint and message type combinations.Only the owner/admin of the OApp can call this function.Provides a way for the OApp to enforce things like paying for PreCrime, AND/OR minimum dst lzReceive gas amounts etc.These enforced options can vary as the potential options/execution on the remote may differ as per the msgType. eg. Amount of lzReceive() gas necessary to deliver a lzCompose() message adds overhead you dont want to pay if you are only making a standard LayerZero message ie. lzReceive() WITHOUT sendCompose().",
        "params": {
          "_enforcedOptions": "An array of EnforcedOptionParam structures specifying enforced options."
        }
      },
      "setPeer(uint32,bytes32)": {
        "details": "Only the owner/admin of the OApp can call this function.Indicates that the peer is trusted to send LayerZero messages to this OApp.Set this to bytes32(0) to remove the peer address.Peer is a bytes32 to accommodate non-evm chains.",
        "params": {
          "_eid": "The endpoint ID.",
          "_peer": "The address of the peer to be associated with the corresponding endpoint."
        }
      },
      "transferOwnership(address)": {
        "details": "Transfers ownership of the contract to a new account (`newOwner`). Can only be called by the current owner."
      }
    },
    "version": 1
  },
  "userdoc": {
    "kind": "user",
    "methods": {
      "allowInitializePath((uint32,bytes32,uint64))": {
        "notice": "Checks if the path initialization is allowed based on the provided origin."
      },
      "combineOptions(uint32,uint16,bytes)": {
        "notice": "Combines options for a given endpoint and message type."
      },
      "endpoint()": {
        "notice": "Retrieves the LayerZero endpoint associated with the OApp."
      },
      "isComposeMsgSender((uint32,bytes32,uint64),bytes,address)": {
        "notice": "Indicates whether an address is an approved composeMsg sender to the Endpoint."
      },
      "nextNonce(uint32,bytes32)": {
        "notice": "Retrieves the next nonce for a given source endpoint and sender address."
      },
      "oAppVersion()": {
        "notice": "Retrieves the OApp version information."
      },
      "peers(uint32)": {
        "notice": "Retrieves the peer (OApp) associated with a corresponding endpoint."
      },
      "quote(uint32,string,bytes,bool)": {
        "notice": "Quotes the gas needed to pay for the full omnichain transaction in native gas or ZRO token."
      },
      "send(uint32,string,bytes)": {
        "notice": "Sends a message from the source chain to a destination chain."
      },
      "setDelegate(address)": {
        "notice": "Sets the delegate address for the OApp."
      },
      "setPeer(uint32,bytes32)": {
        "notice": "Sets the peer address (OApp instance) for a corresponding endpoint."
      }
    },
    "version": 1
  },
  "storageLayout": {
    "storage": [
      {
        "astId": 1533,
        "contract": "contracts/FlowContract.sol:FlowContract",
        "label": "_owner",
        "offset": 0,
        "slot": "0",
        "type": "t_address"
      },
      {
        "astId": 785,
        "contract": "contracts/FlowContract.sol:FlowContract",
        "label": "peers",
        "offset": 0,
        "slot": "1",
        "type": "t_mapping(t_uint32,t_bytes32)"
      },
      {
        "astId": 1381,
        "contract": "contracts/FlowContract.sol:FlowContract",
        "label": "enforcedOptions",
        "offset": 0,
        "slot": "2",
        "type": "t_mapping(t_uint32,t_mapping(t_uint16,t_bytes_storage))"
      },
      {
        "astId": 2696,
        "contract": "contracts/FlowContract.sol:FlowContract",
        "label": "data",
        "offset": 0,
        "slot": "3",
        "type": "t_string_storage"
      },
      {
        "astId": 2700,
        "contract": "contracts/FlowContract.sol:FlowContract",
        "label": "admins",
        "offset": 0,
        "slot": "4",
        "type": "t_mapping(t_address,t_bool)"
      },
      {
        "astId": 2704,
        "contract": "contracts/FlowContract.sol:FlowContract",
        "label": "betCreators",
        "offset": 0,
        "slot": "5",
        "type": "t_mapping(t_address,t_bool)"
      },
      {
        "astId": 2709,
        "contract": "contracts/FlowContract.sol:FlowContract",
        "label": "platformBalance",
        "offset": 0,
        "slot": "6",
        "type": "t_uint256"
      },
      {
        "astId": 2764,
        "contract": "contracts/FlowContract.sol:FlowContract",
        "label": "markets",
        "offset": 0,
        "slot": "7",
        "type": "t_mapping(t_uint256,t_struct(Market)2753_storage)"
      },
      {
        "astId": 2766,
        "contract": "contracts/FlowContract.sol:FlowContract",
        "label": "marketCount",
        "offset": 0,
        "slot": "8",
        "type": "t_uint256"
      },
      {
        "astId": 2769,
        "contract": "contracts/FlowContract.sol:FlowContract",
        "label": "marketIds",
        "offset": 0,
        "slot": "9",
        "type": "t_array(t_uint256)dyn_storage"
      }
    ],
    "types": {
      "t_address": {
        "encoding": "inplace",
        "label": "address",
        "numberOfBytes": "20"
      },
      "t_array(t_address)dyn_storage": {
        "base": "t_address",
        "encoding": "dynamic_array",
        "label": "address[]",
        "numberOfBytes": "32"
      },
      "t_array(t_uint256)dyn_storage": {
        "base": "t_uint256",
        "encoding": "dynamic_array",
        "label": "uint256[]",
        "numberOfBytes": "32"
      },
      "t_bool": {
        "encoding": "inplace",
        "label": "bool",
        "numberOfBytes": "1"
      },
      "t_bytes32": {
        "encoding": "inplace",
        "label": "bytes32",
        "numberOfBytes": "32"
      },
      "t_bytes_storage": {
        "encoding": "bytes",
        "label": "bytes",
        "numberOfBytes": "32"
      },
      "t_enum(MarketCategory)2718": {
        "encoding": "inplace",
        "label": "enum FlowContract.MarketCategory",
        "numberOfBytes": "1"
      },
      "t_int256": {
        "encoding": "inplace",
        "label": "int256",
        "numberOfBytes": "32"
      },
      "t_mapping(t_address,t_bool)": {
        "encoding": "mapping",
        "key": "t_address",
        "label": "mapping(address => bool)",
        "numberOfBytes": "32",
        "value": "t_bool"
      },
      "t_mapping(t_address,t_struct(UserBet)2759_storage)": {
        "encoding": "mapping",
        "key": "t_address",
        "label": "mapping(address => struct FlowContract.UserBet)",
        "numberOfBytes": "32",
        "value": "t_struct(UserBet)2759_storage"
      },
      "t_mapping(t_uint16,t_bytes_storage)": {
        "encoding": "mapping",
        "key": "t_uint16",
        "label": "mapping(uint16 => bytes)",
        "numberOfBytes": "32",
        "value": "t_bytes_storage"
      },
      "t_mapping(t_uint256,t_struct(Market)2753_storage)": {
        "encoding": "mapping",
        "key": "t_uint256",
        "label": "mapping(uint256 => struct FlowContract.Market)",
        "numberOfBytes": "32",
        "value": "t_struct(Market)2753_storage"
      },
      "t_mapping(t_uint32,t_bytes32)": {
        "encoding": "mapping",
        "key": "t_uint32",
        "label": "mapping(uint32 => bytes32)",
        "numberOfBytes": "32",
        "value": "t_bytes32"
      },
      "t_mapping(t_uint32,t_mapping(t_uint16,t_bytes_storage))": {
        "encoding": "mapping",
        "key": "t_uint32",
        "label": "mapping(uint32 => mapping(uint16 => bytes))",
        "numberOfBytes": "32",
        "value": "t_mapping(t_uint16,t_bytes_storage)"
      },
      "t_string_storage": {
        "encoding": "bytes",
        "label": "string",
        "numberOfBytes": "32"
      },
      "t_struct(Market)2753_storage": {
        "encoding": "inplace",
        "label": "struct FlowContract.Market",
        "members": [
          {
            "astId": 2720,
            "contract": "contracts/FlowContract.sol:FlowContract",
            "label": "description",
            "offset": 0,
            "slot": "0",
            "type": "t_string_storage"
          },
          {
            "astId": 2722,
            "contract": "contracts/FlowContract.sol:FlowContract",
            "label": "creator",
            "offset": 0,
            "slot": "1",
            "type": "t_address"
          },
          {
            "astId": 2724,
            "contract": "contracts/FlowContract.sol:FlowContract",
            "label": "expirationDate",
            "offset": 0,
            "slot": "2",
            "type": "t_uint256"
          },
          {
            "astId": 2726,
            "contract": "contracts/FlowContract.sol:FlowContract",
            "label": "verificationTime",
            "offset": 0,
            "slot": "3",
            "type": "t_uint256"
          },
          {
            "astId": 2728,
            "contract": "contracts/FlowContract.sol:FlowContract",
            "label": "isResolved",
            "offset": 0,
            "slot": "4",
            "type": "t_bool"
          },
          {
            "astId": 2731,
            "contract": "contracts/FlowContract.sol:FlowContract",
            "label": "optionAmounts",
            "offset": 0,
            "slot": "5",
            "type": "t_array(t_uint256)dyn_storage"
          },
          {
            "astId": 2733,
            "contract": "contracts/FlowContract.sol:FlowContract",
            "label": "requestTime",
            "offset": 0,
            "slot": "6",
            "type": "t_uint256"
          },
          {
            "astId": 2735,
            "contract": "contracts/FlowContract.sol:FlowContract",
            "label": "outcome",
            "offset": 0,
            "slot": "7",
            "type": "t_int256"
          },
          {
            "astId": 2737,
            "contract": "contracts/FlowContract.sol:FlowContract",
            "label": "questionText",
            "offset": 0,
            "slot": "8",
            "type": "t_bytes_storage"
          },
          {
            "astId": 2739,
            "contract": "contracts/FlowContract.sol:FlowContract",
            "label": "imageUrl",
            "offset": 0,
            "slot": "9",
            "type": "t_string_storage"
          },
          {
            "astId": 2742,
            "contract": "contracts/FlowContract.sol:FlowContract",
            "label": "category",
            "offset": 0,
            "slot": "10",
            "type": "t_enum(MarketCategory)2718"
          },
          {
            "astId": 2747,
            "contract": "contracts/FlowContract.sol:FlowContract",
            "label": "userBets",
            "offset": 0,
            "slot": "11",
            "type": "t_mapping(t_address,t_struct(UserBet)2759_storage)"
          },
          {
            "astId": 2750,
            "contract": "contracts/FlowContract.sol:FlowContract",
            "label": "bettors",
            "offset": 0,
            "slot": "12",
            "type": "t_array(t_address)dyn_storage"
          },
          {
            "astId": 2752,
            "contract": "contracts/FlowContract.sol:FlowContract",
            "label": "optionCount",
            "offset": 0,
            "slot": "13",
            "type": "t_uint256"
          }
        ],
        "numberOfBytes": "448"
      },
      "t_struct(UserBet)2759_storage": {
        "encoding": "inplace",
        "label": "struct FlowContract.UserBet",
        "members": [
          {
            "astId": 2756,
            "contract": "contracts/FlowContract.sol:FlowContract",
            "label": "optionAmounts",
            "offset": 0,
            "slot": "0",
            "type": "t_array(t_uint256)dyn_storage"
          },
          {
            "astId": 2758,
            "contract": "contracts/FlowContract.sol:FlowContract",
            "label": "claimed",
            "offset": 0,
            "slot": "1",
            "type": "t_bool"
          }
        ],
        "numberOfBytes": "64"
      },
      "t_uint16": {
        "encoding": "inplace",
        "label": "uint16",
        "numberOfBytes": "2"
      },
      "t_uint256": {
        "encoding": "inplace",
        "label": "uint256",
        "numberOfBytes": "32"
      },
      "t_uint32": {
        "encoding": "inplace",
        "label": "uint32",
        "numberOfBytes": "4"
      }
    }
  }
}