{
  "address": "0x962abA481752e6736c2A4D9B864742Bbb54E7F1d",
  "abi": [
    {
      "inputs": [
        {
          "internalType": "address",
          "name": "_endpoint",
          "type": "address"
        },
        {
          "internalType": "address",
          "name": "_delegate",
          "type": "address"
        }
      ],
      "stateMutability": "nonpayable",
      "type": "constructor"
    },
    {
      "inputs": [],
      "name": "InvalidDelegate",
      "type": "error"
    },
    {
      "inputs": [],
      "name": "InvalidEndpointCall",
      "type": "error"
    },
    {
      "inputs": [
        {
          "internalType": "bytes",
          "name": "options",
          "type": "bytes"
        }
      ],
      "name": "InvalidOptions",
      "type": "error"
    },
    {
      "inputs": [],
      "name": "LzTokenUnavailable",
      "type": "error"
    },
    {
      "inputs": [
        {
          "internalType": "uint32",
          "name": "eid",
          "type": "uint32"
        }
      ],
      "name": "NoPeer",
      "type": "error"
    },
    {
      "inputs": [
        {
          "internalType": "uint256",
          "name": "msgValue",
          "type": "uint256"
        }
      ],
      "name": "NotEnoughNative",
      "type": "error"
    },
    {
      "inputs": [
        {
          "internalType": "address",
          "name": "addr",
          "type": "address"
        }
      ],
      "name": "OnlyEndpoint",
      "type": "error"
    },
    {
      "inputs": [
        {
          "internalType": "uint32",
          "name": "eid",
          "type": "uint32"
        },
        {
          "internalType": "bytes32",
          "name": "sender",
          "type": "bytes32"
        }
      ],
      "name": "OnlyPeer",
      "type": "error"
    },
    {
      "inputs": [
        {
          "internalType": "address",
          "name": "owner",
          "type": "address"
        }
      ],
      "name": "OwnableInvalidOwner",
      "type": "error"
    },
    {
      "inputs": [
        {
          "internalType": "address",
          "name": "account",
          "type": "address"
        }
      ],
      "name": "OwnableUnauthorizedAccount",
      "type": "error"
    },
    {
      "inputs": [
        {
          "internalType": "address",
          "name": "token",
          "type": "address"
        }
      ],
      "name": "SafeERC20FailedOperation",
      "type": "error"
    },
    {
      "anonymous": false,
      "inputs": [
        {
          "components": [
            {
              "internalType": "uint32",
              "name": "eid",
              "type": "uint32"
            },
            {
              "internalType": "uint16",
              "name": "msgType",
              "type": "uint16"
            },
            {
              "internalType": "bytes",
              "name": "options",
              "type": "bytes"
            }
          ],
          "indexed": false,
          "internalType": "struct EnforcedOptionParam[]",
          "name": "_enforcedOptions",
          "type": "tuple[]"
        }
      ],
      "name": "EnforcedOptionSet",
      "type": "event"
    },
    {
      "anonymous": false,
      "inputs": [
        {
          "indexed": true,
          "internalType": "uint256",
          "name": "marketId",
          "type": "uint256"
        },
        {
          "indexed": false,
          "internalType": "uint256",
          "name": "reward",
          "type": "uint256"
        },
        {
          "indexed": false,
          "internalType": "uint256",
          "name": "bond",
          "type": "uint256"
        },
        {
          "indexed": false,
          "internalType": "bytes",
          "name": "questionText",
          "type": "bytes"
        }
      ],
      "name": "MarketCreated",
      "type": "event"
    },
    {
      "anonymous": false,
      "inputs": [
        {
          "indexed": true,
          "internalType": "uint256",
          "name": "marketId",
          "type": "uint256"
        },
        {
          "indexed": false,
          "internalType": "int256",
          "name": "outcome",
          "type": "int256"
        }
      ],
      "name": "MarketSettled",
      "type": "event"
    },
    {
      "anonymous": false,
      "inputs": [
        {
          "indexed": true,
          "internalType": "uint256",
          "name": "marketId",
          "type": "uint256"
        },
        {
          "indexed": false,
          "internalType": "bytes",
          "name": "questionText",
          "type": "bytes"
        },
        {
          "indexed": false,
          "internalType": "uint256",
          "name": "timestamp",
          "type": "uint256"
        }
      ],
      "name": "OracleRequestCreated",
      "type": "event"
    },
    {
      "anonymous": false,
      "inputs": [
        {
          "indexed": true,
          "internalType": "address",
          "name": "previousOwner",
          "type": "address"
        },
        {
          "indexed": true,
          "internalType": "address",
          "name": "newOwner",
          "type": "address"
        }
      ],
      "name": "OwnershipTransferred",
      "type": "event"
    },
    {
      "anonymous": false,
      "inputs": [
        {
          "indexed": false,
          "internalType": "uint32",
          "name": "eid",
          "type": "uint32"
        },
        {
          "indexed": false,
          "internalType": "bytes32",
          "name": "peer",
          "type": "bytes32"
        }
      ],
      "name": "PeerSet",
      "type": "event"
    },
    {
      "anonymous": false,
      "inputs": [
        {
          "indexed": true,
          "internalType": "uint256",
          "name": "marketId",
          "type": "uint256"
        },
        {
          "indexed": false,
          "internalType": "int256",
          "name": "outcome",
          "type": "int256"
        },
        {
          "indexed": false,
          "internalType": "uint32",
          "name": "dstEid",
          "type": "uint32"
        }
      ],
      "name": "ResultSent",
      "type": "event"
    },
    {
      "inputs": [],
      "name": "NO_ANSWER_POSSIBLE",
      "outputs": [
        {
          "internalType": "int256",
          "name": "",
          "type": "int256"
        }
      ],
      "stateMutability": "view",
      "type": "function"
    },
    {
      "inputs": [],
      "name": "TOO_EARLY_RESPONSE",
      "outputs": [
        {
          "internalType": "int256",
          "name": "",
          "type": "int256"
        }
      ],
      "stateMutability": "view",
      "type": "function"
    },
    {
      "inputs": [
        {
          "components": [
            {
              "internalType": "uint32",
              "name": "srcEid",
              "type": "uint32"
            },
            {
              "internalType": "bytes32",
              "name": "sender",
              "type": "bytes32"
            },
            {
              "internalType": "uint64",
              "name": "nonce",
              "type": "uint64"
            }
          ],
          "internalType": "struct Origin",
          "name": "origin",
          "type": "tuple"
        }
      ],
      "name": "allowInitializePath",
      "outputs": [
        {
          "internalType": "bool",
          "name": "",
          "type": "bool"
        }
      ],
      "stateMutability": "view",
      "type": "function"
    },
    {
      "inputs": [
        {
          "internalType": "uint32",
          "name": "_eid",
          "type": "uint32"
        },
        {
          "internalType": "uint16",
          "name": "_msgType",
          "type": "uint16"
        },
        {
          "internalType": "bytes",
          "name": "_extraOptions",
          "type": "bytes"
        }
      ],
      "name": "combineOptions",
      "outputs": [
        {
          "internalType": "bytes",
          "name": "",
          "type": "bytes"
        }
      ],
      "stateMutability": "view",
      "type": "function"
    },
    {
      "inputs": [
        {
          "internalType": "uint256",
          "name": "marketId",
          "type": "uint256"
        },
        {
          "internalType": "uint256",
          "name": "reward",
          "type": "uint256"
        },
        {
          "internalType": "uint256",
          "name": "bond",
          "type": "uint256"
        },
        {
          "internalType": "string",
          "name": "jsonQuestion",
          "type": "string"
        },
        {
          "internalType": "uint256",
          "name": "verificationTime",
          "type": "uint256"
        },
        {
          "internalType": "uint256",
          "name": "optionCount",
          "type": "uint256"
        }
      ],
      "name": "createMarket",
      "outputs": [],
      "stateMutability": "nonpayable",
      "type": "function"
    },
    {
      "inputs": [],
      "name": "data",
      "outputs": [
        {
          "internalType": "string",
          "name": "",
          "type": "string"
        }
      ],
      "stateMutability": "view",
      "type": "function"
    },
    {
      "inputs": [],
      "name": "depositETH",
      "outputs": [],
      "stateMutability": "payable",
      "type": "function"
    },
    {
      "inputs": [],
      "name": "endpoint",
      "outputs": [
        {
          "internalType": "contract ILayerZeroEndpointV2",
          "name": "",
          "type": "address"
        }
      ],
      "stateMutability": "view",
      "type": "function"
    },
    {
      "inputs": [
        {
          "internalType": "uint32",
          "name": "eid",
          "type": "uint32"
        },
        {
          "internalType": "uint16",
          "name": "msgType",
          "type": "uint16"
        }
      ],
      "name": "enforcedOptions",
      "outputs": [
        {
          "internalType": "bytes",
          "name": "enforcedOption",
          "type": "bytes"
        }
      ],
      "stateMutability": "view",
      "type": "function"
    },
    {
      "inputs": [
        {
          "internalType": "uint256",
          "name": "marketId",
          "type": "uint256"
        }
      ],
      "name": "getMarket",
      "outputs": [
        {
          "internalType": "uint256",
          "name": "_marketId",
          "type": "uint256"
        },
        {
          "internalType": "uint256",
          "name": "reward",
          "type": "uint256"
        },
        {
          "internalType": "uint256",
          "name": "bond",
          "type": "uint256"
        },
        {
          "internalType": "bytes",
          "name": "questionText",
          "type": "bytes"
        },
        {
          "internalType": "uint256",
          "name": "verificationTime",
          "type": "uint256"
        },
        {
          "internalType": "uint256",
          "name": "optionCount",
          "type": "uint256"
        },
        {
          "internalType": "bool",
          "name": "isResolved",
          "type": "bool"
        },
        {
          "internalType": "int256",
          "name": "outcome",
          "type": "int256"
        },
        {
          "internalType": "uint256",
          "name": "_requestTime",
          "type": "uint256"
        },
        {
          "internalType": "bool",
          "name": "exists",
          "type": "bool"
        }
      ],
      "stateMutability": "view",
      "type": "function"
    },
    {
      "inputs": [],
      "name": "getWETHBalance",
      "outputs": [
        {
          "internalType": "uint256",
          "name": "",
          "type": "uint256"
        }
      ],
      "stateMutability": "view",
      "type": "function"
    },
    {
      "inputs": [],
      "name": "identifier",
      "outputs": [
        {
          "internalType": "bytes32",
          "name": "",
          "type": "bytes32"
        }
      ],
      "stateMutability": "view",
      "type": "function"
    },
    {
      "inputs": [
        {
          "components": [
            {
              "internalType": "uint32",
              "name": "srcEid",
              "type": "uint32"
            },
            {
              "internalType": "bytes32",
              "name": "sender",
              "type": "bytes32"
            },
            {
              "internalType": "uint64",
              "name": "nonce",
              "type": "uint64"
            }
          ],
          "internalType": "struct Origin",
          "name": "",
          "type": "tuple"
        },
        {
          "internalType": "bytes",
          "name": "",
          "type": "bytes"
        },
        {
          "internalType": "address",
          "name": "_sender",
          "type": "address"
        }
      ],
      "name": "isComposeMsgSender",
      "outputs": [
        {
          "internalType": "bool",
          "name": "",
          "type": "bool"
        }
      ],
      "stateMutability": "view",
      "type": "function"
    },
    {
      "inputs": [
        {
          "components": [
            {
              "internalType": "uint32",
              "name": "srcEid",
              "type": "uint32"
            },
            {
              "internalType": "bytes32",
              "name": "sender",
              "type": "bytes32"
            },
            {
              "internalType": "uint64",
              "name": "nonce",
              "type": "uint64"
            }
          ],
          "internalType": "struct Origin",
          "name": "_origin",
          "type": "tuple"
        },
        {
          "internalType": "bytes32",
          "name": "_guid",
          "type": "bytes32"
        },
        {
          "internalType": "bytes",
          "name": "_message",
          "type": "bytes"
        },
        {
          "internalType": "address",
          "name": "_executor",
          "type": "address"
        },
        {
          "internalType": "bytes",
          "name": "_extraData",
          "type": "bytes"
        }
      ],
      "name": "lzReceive",
      "outputs": [],
      "stateMutability": "payable",
      "type": "function"
    },
    {
      "inputs": [],
      "name": "marketCount",
      "outputs": [
        {
          "internalType": "uint256",
          "name": "",
          "type": "uint256"
        }
      ],
      "stateMutability": "view",
      "type": "function"
    },
    {
      "inputs": [
        {
          "internalType": "uint256",
          "name": "",
          "type": "uint256"
        }
      ],
      "name": "markets",
      "outputs": [
        {
          "internalType": "uint256",
          "name": "marketId",
          "type": "uint256"
        },
        {
          "internalType": "uint256",
          "name": "reward",
          "type": "uint256"
        },
        {
          "internalType": "uint256",
          "name": "bond",
          "type": "uint256"
        },
        {
          "internalType": "bytes",
          "name": "questionText",
          "type": "bytes"
        },
        {
          "internalType": "uint256",
          "name": "verificationTime",
          "type": "uint256"
        },
        {
          "internalType": "uint256",
          "name": "optionCount",
          "type": "uint256"
        },
        {
          "internalType": "bool",
          "name": "isResolved",
          "type": "bool"
        },
        {
          "internalType": "int256",
          "name": "outcome",
          "type": "int256"
        },
        {
          "internalType": "uint256",
          "name": "requestTime",
          "type": "uint256"
        },
        {
          "internalType": "bool",
          "name": "exists",
          "type": "bool"
        },
        {
          "internalType": "bool",
          "name": "isEventBased",
          "type": "bool"
        }
      ],
      "stateMutability": "view",
      "type": "function"
    },
    {
      "inputs": [
        {
          "internalType": "uint32",
          "name": "",
          "type": "uint32"
        },
        {
          "internalType": "bytes32",
          "name": "",
          "type": "bytes32"
        }
      ],
      "name": "nextNonce",
      "outputs": [
        {
          "internalType": "uint64",
          "name": "nonce",
          "type": "uint64"
        }
      ],
      "stateMutability": "view",
      "type": "function"
    },
    {
      "inputs": [],
      "name": "oAppVersion",
      "outputs": [
        {
          "internalType": "uint64",
          "name": "senderVersion",
          "type": "uint64"
        },
        {
          "internalType": "uint64",
          "name": "receiverVersion",
          "type": "uint64"
        }
      ],
      "stateMutability": "pure",
      "type": "function"
    },
    {
      "inputs": [],
      "name": "owner",
      "outputs": [
        {
          "internalType": "address",
          "name": "",
          "type": "address"
        }
      ],
      "stateMutability": "view",
      "type": "function"
    },
    {
      "inputs": [
        {
          "internalType": "uint32",
          "name": "eid",
          "type": "uint32"
        }
      ],
      "name": "peers",
      "outputs": [
        {
          "internalType": "bytes32",
          "name": "peer",
          "type": "bytes32"
        }
      ],
      "stateMutability": "view",
      "type": "function"
    },
    {
      "inputs": [
        {
          "internalType": "uint32",
          "name": "_dstEid",
          "type": "uint32"
        },
        {
          "internalType": "string",
          "name": "_message",
          "type": "string"
        },
        {
          "internalType": "bytes",
          "name": "_options",
          "type": "bytes"
        },
        {
          "internalType": "bool",
          "name": "_payInLzToken",
          "type": "bool"
        }
      ],
      "name": "quote",
      "outputs": [
        {
          "components": [
            {
              "internalType": "uint256",
              "name": "nativeFee",
              "type": "uint256"
            },
            {
              "internalType": "uint256",
              "name": "lzTokenFee",
              "type": "uint256"
            }
          ],
          "internalType": "struct MessagingFee",
          "name": "fee",
          "type": "tuple"
        }
      ],
      "stateMutability": "view",
      "type": "function"
    },
    {
      "inputs": [],
      "name": "renounceOwnership",
      "outputs": [],
      "stateMutability": "nonpayable",
      "type": "function"
    },
    {
      "inputs": [
        {
          "internalType": "uint256",
          "name": "marketId",
          "type": "uint256"
        }
      ],
      "name": "requestSettlement",
      "outputs": [],
      "stateMutability": "nonpayable",
      "type": "function"
    },
    {
      "inputs": [
        {
          "internalType": "uint32",
          "name": "_dstEid",
          "type": "uint32"
        },
        {
          "internalType": "string",
          "name": "_message",
          "type": "string"
        },
        {
          "internalType": "bytes",
          "name": "_options",
          "type": "bytes"
        }
      ],
      "name": "send",
      "outputs": [
        {
          "components": [
            {
              "internalType": "bytes32",
              "name": "guid",
              "type": "bytes32"
            },
            {
              "internalType": "uint64",
              "name": "nonce",
              "type": "uint64"
            },
            {
              "components": [
                {
                  "internalType": "uint256",
                  "name": "nativeFee",
                  "type": "uint256"
                },
                {
                  "internalType": "uint256",
                  "name": "lzTokenFee",
                  "type": "uint256"
                }
              ],
              "internalType": "struct MessagingFee",
              "name": "fee",
              "type": "tuple"
            }
          ],
          "internalType": "struct MessagingReceipt",
          "name": "receipt",
          "type": "tuple"
        }
      ],
      "stateMutability": "payable",
      "type": "function"
    },
    {
      "inputs": [
        {
          "internalType": "address",
          "name": "_delegate",
          "type": "address"
        }
      ],
      "name": "setDelegate",
      "outputs": [],
      "stateMutability": "nonpayable",
      "type": "function"
    },
    {
      "inputs": [
        {
          "components": [
            {
              "internalType": "uint32",
              "name": "eid",
              "type": "uint32"
            },
            {
              "internalType": "uint16",
              "name": "msgType",
              "type": "uint16"
            },
            {
              "internalType": "bytes",
              "name": "options",
              "type": "bytes"
            }
          ],
          "internalType": "struct EnforcedOptionParam[]",
          "name": "_enforcedOptions",
          "type": "tuple[]"
        }
      ],
      "name": "setEnforcedOptions",
      "outputs": [],
      "stateMutability": "nonpayable",
      "type": "function"
    },
    {
      "inputs": [
        {
          "internalType": "uint32",
          "name": "_eid",
          "type": "uint32"
        },
        {
          "internalType": "bytes32",
          "name": "_peer",
          "type": "bytes32"
        }
      ],
      "name": "setPeer",
      "outputs": [],
      "stateMutability": "nonpayable",
      "type": "function"
    },
    {
      "inputs": [
        {
          "internalType": "uint256",
          "name": "marketId",
          "type": "uint256"
        }
      ],
      "name": "settleMarket",
      "outputs": [],
      "stateMutability": "payable",
      "type": "function"
    },
    {
      "inputs": [
        {
          "internalType": "address",
          "name": "newOwner",
          "type": "address"
        }
      ],
      "name": "transferOwnership",
      "outputs": [],
      "stateMutability": "nonpayable",
      "type": "function"
    },
    {
      "inputs": [],
      "name": "weth",
      "outputs": [
        {
          "internalType": "contract IWETH",
          "name": "",
          "type": "address"
        }
      ],
      "stateMutability": "view",
      "type": "function"
    },
    {
      "stateMutability": "payable",
      "type": "receive"
    }
  ],
  "transactionHash": "0xa5efb1d6cf1ccaaf09be19760512a085741dc24e0be8c0038059dd2e6543edd1",
  "args": [
    "0x6EDCE65403992e310A62460808c4b910D972f10f",
    "0x504b635B7E22F8DF7d037cf31639811AE583E9f0"
  ],
  "numDeployments": 1,
  "solcInputHash": "4a23ae58ce09dc9c55cf9605e78836dd",
  "bytecode": "0x600380546001600160a01b0319908116737b79995e5f793a07bc00c21412e50ecae098e7f91790915560048054909116739f1263b8f0355673619168b5b8c0248f1d03e88c17905560e0604052601560a09081527f4e6f7468696e67207265636569766564207965742e000000000000000000000060c0526005906200008690826200029a565b506008805463ffffffff19166176c1179055348015620000a557600080fd5b506040516200345a3803806200345a833981016040819052620000c89162000383565b81818181806001600160a01b038116620000fc57604051631e4fbdf760e01b81526000600482015260240160405180910390fd5b6200010781620001a3565b506001600160a01b0380831660805281166200013657604051632d618d8160e21b815260040160405180910390fd5b60805160405163ca5eb5e160e01b81526001600160a01b0383811660048301529091169063ca5eb5e190602401600060405180830381600087803b1580156200017e57600080fd5b505af115801562000193573d6000803e3d6000fd5b50505050505050505050620003bb565b600080546001600160a01b038381166001600160a01b0319831681178455604051919092169283917f8be0079c531659141344cd1fd0a4f28419497f9722a3daafe3b4186f6b6457e09190a35050565b634e487b7160e01b600052604160045260246000fd5b600181811c908216806200021e57607f821691505b6020821081036200023f57634e487b7160e01b600052602260045260246000fd5b50919050565b601f82111562000295576000816000526020600020601f850160051c81016020861015620002705750805b601f850160051c820191505b8181101562000291578281556001016200027c565b5050505b505050565b81516001600160401b03811115620002b657620002b6620001f3565b620002ce81620002c7845462000209565b8462000245565b602080601f831160018114620003065760008415620002ed5750858301515b600019600386901b1c1916600185901b17855562000291565b600085815260208120601f198616915b82811015620003375788860151825594840194600190910190840162000316565b5085821015620003565787850151600019600388901b60f8161c191681555b5050505050600190811b01905550565b80516001600160a01b03811681146200037e57600080fd5b919050565b600080604083850312156200039757600080fd5b620003a28362000366565b9150620003b26020840162000366565b90509250929050565b608051613059620004016000396000818161034f015281816106c701528181610b5101528181611c9901528181611d8701528181611e7e0152611f3501526130596000f3fe6080604052600436106101d05760003560e01c8063b98bd070116100f7578063eb44fdd311610095578063f6326fb311610064578063f6326fb3146105e6578063f77e5dd3146105ee578063ff7bd03d1461061b578063ff8c1a8c1461063b57600080fd5b8063eb44fdd31461055a578063ec97908214610590578063f2fde38b146105a6578063f4fc6cdb146105c657600080fd5b8063ca5eb5e1116100d1578063ca5eb5e1146104e7578063db0b569e14610507578063dead94011461051a578063e0539e581461053a57600080fd5b8063b98bd0701461047a578063bb0b6a531461049a578063bc70b354146104c757600080fd5b80635e280f111161016f5780637d25a05e1161013e5780637d25a05e146103bd57806382413eac146103f55780638da5cb5b14610425578063b1283e771461044357600080fd5b80635e280f111461033d578063715018a61461037157806373d4a13a146103865780637998a1c41461039b57600080fd5b806317442b70116101ab57806317442b70146102965780633400288b146102b85780633fc8cef3146102d85780635535d4611461031057600080fd5b8062cbb73b146102405780631125fa731461026857806313137d651461028357600080fd5b3661023b57600360009054906101000a90046001600160a01b03166001600160a01b031663d0e30db0346040518263ffffffff1660e01b81526004016000604051808303818588803b15801561022557600080fd5b505af1158015610239573d6000803e3d6000fd5b005b600080fd5b34801561024c57600080fd5b50610255610653565b6040519081526020015b60405180910390f35b34801561027457600080fd5b506102556001600160ff1b0381565b6102396102913660046120df565b6106c5565b3480156102a257600080fd5b506040805160018152600260208201520161025f565b3480156102c457600080fd5b506102396102d3366004612197565b610785565b3480156102e457600080fd5b506003546102f8906001600160a01b031681565b6040516001600160a01b03909116815260200161025f565b34801561031c57600080fd5b5061033061032b3660046121d3565b61079b565b60405161025f9190612256565b34801561034957600080fd5b506102f87f000000000000000000000000000000000000000000000000000000000000000081565b34801561037d57600080fd5b50610239610840565b34801561039257600080fd5b50610330610854565b3480156103a757600080fd5b5061025560008051602061300483398151915281565b3480156103c957600080fd5b506103dd6103d8366004612197565b610861565b6040516001600160401b03909116815260200161025f565b34801561040157600080fd5b50610415610410366004612270565b61086a565b604051901515815260200161025f565b34801561043157600080fd5b506000546001600160a01b03166102f8565b34801561044f57600080fd5b5061046361045e3660046122d6565b61087f565b60405161025f9b9a999897969594939291906122ef565b34801561048657600080fd5b50610239610495366004612356565b610968565b3480156104a657600080fd5b506102556104b53660046123ca565b60016020526000908152604090205481565b3480156104d357600080fd5b506103306104e23660046123e5565b610982565b3480156104f357600080fd5b50610239610502366004612445565b610b2a565b6102396105153660046122d6565b610bb0565b34801561052657600080fd5b50610239610535366004612562565b610f44565b61054d6105483660046125cd565b6111a1565b60405161025f9190612637565b34801561056657600080fd5b5061057a6105753660046122d6565b61122a565b60405161025f9a99989796959493929190612679565b34801561059c57600080fd5b5061025560075481565b3480156105b257600080fd5b506102396105c1366004612445565b61135b565b3480156105d257600080fd5b506102396105e13660046122d6565b611399565b61023961192d565b3480156105fa57600080fd5b5061060e6106093660046126e6565b61197d565b60405161025f9190612761565b34801561062757600080fd5b50610415610636366004612778565b6119c1565b34801561064757600080fd5b50610255600160ff1b81565b6003546040516370a0823160e01b81523060048201526000916001600160a01b0316906370a0823190602401602060405180830381865afa15801561069c573d6000803e3d6000fd5b505050506040513d601f19601f820116820180604052508101906106c09190612794565b905090565b7f00000000000000000000000000000000000000000000000000000000000000006001600160a01b03163314610715576040516391ac5e4f60e01b81523360048201526024015b60405180910390fd5b6020870180359061072f9061072a908a6123ca565b6119f7565b1461076d5761074160208801886123ca565b60405163309afaf360e21b815263ffffffff90911660048201526020880135602482015260440161070c565b61077c87878787878787611a33565b50505050505050565b61078d611a56565b6107978282611a83565b5050565b6002602090815260009283526040808420909152908252902080546107bf906127ad565b80601f01602080910402602001604051908101604052809291908181526020018280546107eb906127ad565b80156108385780601f1061080d57610100808354040283529160200191610838565b820191906000526020600020905b81548152906001019060200180831161081b57829003601f168201915b505050505081565b610848611a56565b6108526000611ad8565b565b600580546107bf906127ad565b60005b92915050565b6001600160a01b03811630145b949350505050565b6006602052600090815260409020805460018201546002830154600384018054939492939192916108af906127ad565b80601f01602080910402602001604051908101604052809291908181526020018280546108db906127ad565b80156109285780601f106108fd57610100808354040283529160200191610928565b820191906000526020600020905b81548152906001019060200180831161090b57829003601f168201915b505050600484015460058501546006860154600787015460088801546009909801549697939692955060ff9182169450929180821691610100909104168b565b610970611a56565b61079761097d82846127e1565b611b28565b63ffffffff8416600090815260026020908152604080832061ffff871684529091528120805460609291906109b6906127ad565b80601f01602080910402602001604051908101604052809291908181526020018280546109e2906127ad565b8015610a2f5780601f10610a0457610100808354040283529160200191610a2f565b820191906000526020600020905b815481529060010190602001808311610a1257829003601f168201915b505050505090508051600003610a7f5783838080601f0160208091040260200160405190810160405280939291908181526020018383808284376000920191909152509294506108779350505050565b6000839003610a8f579050610877565b60028310610b0d57610ad684848080601f016020809104026020016040519081016040528093929190818152602001838380828437600092019190915250611c3a92505050565b80610ae484600281886128b6565b604051602001610af6939291906128e0565b604051602081830303815290604052915050610877565b8383604051639a6d49cd60e01b815260040161070c929190612908565b610b32611a56565b60405163ca5eb5e160e01b81526001600160a01b0382811660048301527f0000000000000000000000000000000000000000000000000000000000000000169063ca5eb5e190602401600060405180830381600087803b158015610b9557600080fd5b505af1158015610ba9573d6000803e3d6000fd5b5050505050565b6000818152600660205260409020600981015460ff16610be25760405162461bcd60e51b815260040161070c90612937565b600681015460ff1615610c315760405162461bcd60e51b815260206004820152601760248201527613585c9ad95d08185b1c9958591e481c995cdbdb1d9959604a1b604482015260640161070c565b6000816008015411610c855760405162461bcd60e51b815260206004820152601860248201527f536574746c656d656e74206e6f74207265717565737465640000000000000000604482015260640161070c565b80600401548160080154610c999190612966565b421015610ce85760405162461bcd60e51b815260206004820152601c60248201527f566572696669636174696f6e2074696d65206e6f742070617373656400000000604482015260640161070c565b60048054600883015460405163a9904f9b60e01b81526000936001600160a01b039093169263a9904f9b92610d35923092600080516020613004833981519152929160038a019101612a04565b61020060405180830381865afa925050508015610d6f575060408051601f3d908101601f19168201909252610d6c91810190612af5565b60015b610dbb5760405162461bcd60e51b815260206004820152601d60248201527f4661696c656420746f20676574206f7261636c6520726573706f6e7365000000604482015260640161070c565b60c001519050600160ff1b8103610e2b5760405162461bcd60e51b815260206004820152602e60248201527f4f7261636c6520726573706f6e73653a20546f6f206561726c7920746f20646560448201526d1d195c9b5a5b99481c995cdd5b1d60921b606482015260840161070c565b6001600160ff1b038103610e8d5760405162461bcd60e51b815260206004820152602360248201527f4f7261636c6520726573706f6e73653a204e6f20616e7377657220706f737369604482015262626c6560e81b606482015260840161070c565b60008112158015610ea15750816005015481105b610eed5760405162461bcd60e51b815260206004820181905260248201527f496e76616c6964206f7074696f6e20696e6465782066726f6d206f7261636c65604482015260640161070c565b60068201805460ff191660011790556007820181905560405183907fca3a568dfb73dd7b7b3c0b28f130edbf4b688f534869c3de083664c43c11430e90610f379084815260200190565b60405180910390a2505050565b60008681526006602052604090206009015460ff1615610f9e5760405162461bcd60e51b81526020600482015260156024820152744d61726b657420616c72656164792065786973747360581b604482015260640161070c565b610168821015610ff05760405162461bcd60e51b815260206004820152601b60248201527f566572696669636174696f6e2074696d6520746f6f2073686f72740000000000604482015260640161070c565b620151808211156110435760405162461bcd60e51b815260206004820152601a60248201527f566572696669636174696f6e2074696d6520746f6f206c6f6e67000000000000604482015260640161070c565b60028110156110945760405162461bcd60e51b815260206004820152601b60248201527f4174206c656173742032206f7074696f6e732072657175697265640000000000604482015260640161070c565b6000851180156110a45750600084115b6110e95760405162461bcd60e51b8152602060048201526016602482015275125b9d985b1a59081c995dd85c99081bdc88189bdb9960521b604482015260640161070c565b60008681526006602052604090208681556001810186905560028101859055600381016111168582612bf1565b50600481018390556005810182905560068101805460ff1916905560001960078083019190915560098201805461ffff19166101011790555487111561115c5760078790555b867f24f820b288b9e0d4966fec47bd5c7c974b08f8f155fe8a31fa3fbf95f4d7d77687878760405161119093929190612cb0565b60405180910390a250505050505050565b6111a9612023565b6000846040516020016111bc9190612256565b60408051601f198184030181526020601f87018190048102840181019092528583529250611220918891849190889088908190840183828082843760009201829052506040805180820190915234815260208101919091529250339150611c669050565b9695505050505050565b60008181526006602052604081206009810154829182916060918391829182918291829182919060ff166112705760405162461bcd60e51b815260040161070c90612937565b80546001820154600283015460048401546005850154600686015460078701546008880154600989015460038a0180549096959460ff908116949392169087906112b9906127ad565b80601f01602080910402602001604051908101604052809291908181526020018280546112e5906127ad565b80156113325780601f1061130757610100808354040283529160200191611332565b820191906000526020600020905b81548152906001019060200180831161131557829003601f168201915b505050505096509a509a509a509a509a509a509a509a509a509a50509193959799509193959799565b611363611a56565b6001600160a01b03811661138d57604051631e4fbdf760e01b81526000600482015260240161070c565b61139681611ad8565b50565b6000818152600660205260409020600981015460ff166113cb5760405162461bcd60e51b815260040161070c90612937565b600681015460ff161561141a5760405162461bcd60e51b815260206004820152601760248201527613585c9ad95d08185b1c9958591e481c995cdbdb1d9959604a1b604482015260640161070c565b60088101541561146c5760405162461bcd60e51b815260206004820152601c60248201527f536574746c656d656e7420616c72656164792072657175657374656400000000604482015260640161070c565b806001015481600201546114809190612966565b6003546040516370a0823160e01b81523060048201526001600160a01b03909116906370a0823190602401602060405180830381865afa1580156114c8573d6000803e3d6000fd5b505050506040513d601f19601f820116820180604052508101906114ec9190612794565b101561153a5760405162461bcd60e51b815260206004820152601960248201527f496e73756666696369656e7420574554482062616c616e636500000000000000604482015260640161070c565b426008820155600354600454600183015460028401546001600160a01b039384169363095ea7b393169161156d91612966565b6040516001600160e01b031960e085901b1681526001600160a01b03909216600483015260248201526044016020604051808303816000875af11580156115b8573d6000803e3d6000fd5b505050506040513d601f19601f820116820180604052508101906115dc9190612ccf565b61161f5760405162461bcd60e51b815260206004820152601460248201527315d1551208185c1c1c9bdd985b0819985a5b195960621b604482015260640161070c565b60048054600883015460018401546040516311df92f160e01b81526001600160a01b03909316936311df92f193611684936000805160206130048339815191529390926003890192737b79995e5f793a07bc00c21412e50ecae098e7f9929101612cec565b6020604051808303816000875af11580156116a3573d6000803e3d6000fd5b505050506040513d601f19601f820116820180604052508101906116c79190612794565b5060048054600883015460028401546040516356ad3aad60e11b81526001600160a01b039093169363ad5a755a9361171693600080516020613004833981519152939092600389019201612d28565b6020604051808303816000875af1158015611735573d6000803e3d6000fd5b505050506040513d601f19601f820116820180604052508101906117599190612794565b506004805460088301548383015460405163239e22ff60e11b81526001600160a01b039093169363473c45fe936117a793600080516020613004833981519152939092600389019201612d28565b600060405180830381600087803b1580156117c157600080fd5b505af11580156117d5573d6000803e3d6000fd5b505050506009810154610100900460ff16156118e85760048054600883015460405163120698af60e01b81526001600160a01b039092169263120698af9261183492600080516020613004833981519152929091600388019101612d58565b600060405180830381600087803b15801561184e57600080fd5b505af1158015611862573d6000803e3d6000fd5b505060048054600885015460405163f327b07560e01b81526001600160a01b03909216945063f327b07593506118b592600080516020613004833981519152926003880191600091829160019101612d77565b600060405180830381600087803b1580156118cf57600080fd5b505af11580156118e3573d6000803e3d6000fd5b505050505b817f1bac1f5e61d784f9a7419341739a059a77d9e9402717546a273a13197ac71706826003018360080154604051611921929190612db6565b60405180910390a25050565b600360009054906101000a90046001600160a01b03166001600160a01b031663d0e30db0346040518263ffffffff1660e01b81526004016000604051808303818588803b158015610b9557600080fd5b60408051808201909152600080825260208201526000846040516020016119a49190612256565b604051602081830303815290604052905061122086828686611d71565b60006020820180359060019083906119d990866123ca565b63ffffffff1681526020810191909152604001600020541492915050565b63ffffffff8116600090815260016020526040812054806108645760405163f6ff4fb760e01b815263ffffffff8416600482015260240161070c565b611a3f84860186612dd8565b600590611a4c9082612bf1565b5050505050505050565b6000546001600160a01b031633146108525760405163118cdaa760e01b815233600482015260240161070c565b63ffffffff8216600081815260016020908152604091829020849055815192835282018390527f238399d427b947898edb290f5ff0f9109849b1c3ba196a42e35f00c50a54b98b910160405180910390a15050565b600080546001600160a01b038381166001600160a01b0319831681178455604051919092169283917f8be0079c531659141344cd1fd0a4f28419497f9722a3daafe3b4186f6b6457e09190a35050565b60005b8151811015611bff57611b5a828281518110611b4957611b49612e0c565b602002602001015160400151611c3a565b818181518110611b6c57611b6c612e0c565b60200260200101516040015160026000848481518110611b8e57611b8e612e0c565b60200260200101516000015163ffffffff1663ffffffff1681526020019081526020016000206000848481518110611bc857611bc8612e0c565b60200260200101516020015161ffff1661ffff1681526020019081526020016000209081611bf69190612bf1565b50600101611b2b565b507fbe4864a8e820971c0247f5992e2da559595f7bf076a21cb5928d443d2a13b67481604051611c2f9190612e22565b60405180910390a150565b600281015161ffff81166003146107975781604051639a6d49cd60e01b815260040161070c9190612256565b611c6e612023565b6000611c7d8460000151611e52565b602085015190915015611c9757611c978460200151611e7a565b7f00000000000000000000000000000000000000000000000000000000000000006001600160a01b0316632637a450826040518060a001604052808b63ffffffff168152602001611ce78c6119f7565b81526020018a815260200189815260200160008960200151111515815250866040518463ffffffff1660e01b8152600401611d23929190612ead565b60806040518083038185885af1158015611d41573d6000803e3d6000fd5b50505050506040513d601f19601f82011682018060405250810190611d669190612f74565b979650505050505050565b60408051808201909152600080825260208201527f00000000000000000000000000000000000000000000000000000000000000006001600160a01b031663ddc28c586040518060a001604052808863ffffffff168152602001611dd4896119f7565b8152602001878152602001868152602001851515815250306040518363ffffffff1660e01b8152600401611e09929190612ead565b6040805180830381865afa158015611e25573d6000803e3d6000fd5b505050506040513d601f19601f82011682018060405250810190611e499190612fca565b95945050505050565b6000813414611e76576040516304fb820960e51b815234600482015260240161070c565b5090565b60007f00000000000000000000000000000000000000000000000000000000000000006001600160a01b031663e4fe1d946040518163ffffffff1660e01b8152600401602060405180830381865afa158015611eda573d6000803e3d6000fd5b505050506040513d601f19601f82011682018060405250810190611efe9190612fe6565b90506001600160a01b038116611f27576040516329b99a9560e11b815260040160405180910390fd5b6040805133602482018190527f00000000000000000000000000000000000000000000000000000000000000006001600160a01b03818116604485015260648085018890528551808603909101815260849094019094526020830180516001600160e01b03166323b872dd60e01b179052610797938516928690611fac908590611fb2565b50505050565b600080602060008451602086016000885af180611fd5576040513d6000823e3d81fd5b50506000513d91508115611fed578060011415611ffa565b6001600160a01b0384163b155b15611fac57604051635274afe760e01b81526001600160a01b038516600482015260240161070c565b60405180606001604052806000801916815260200160006001600160401b03168152602001612065604051806040016040528060008152602001600081525090565b905290565b60006060828403121561207c57600080fd5b50919050565b60008083601f84011261209457600080fd5b5081356001600160401b038111156120ab57600080fd5b6020830191508360208285010111156120c357600080fd5b9250929050565b6001600160a01b038116811461139657600080fd5b600080600080600080600060e0888a0312156120fa57600080fd5b612104898961206a565b96506060880135955060808801356001600160401b038082111561212757600080fd5b6121338b838c01612082565b909750955060a08a01359150612148826120ca565b90935060c0890135908082111561215e57600080fd5b5061216b8a828b01612082565b989b979a50959850939692959293505050565b803563ffffffff8116811461219257600080fd5b919050565b600080604083850312156121aa57600080fd5b6121b38361217e565b946020939093013593505050565b803561ffff8116811461219257600080fd5b600080604083850312156121e657600080fd5b6121ef8361217e565b91506121fd602084016121c1565b90509250929050565b60005b83811015612221578181015183820152602001612209565b50506000910152565b60008151808452612242816020860160208601612206565b601f01601f19169290920160200192915050565b602081526000612269602083018461222a565b9392505050565b60008060008060a0858703121561228657600080fd5b612290868661206a565b935060608501356001600160401b038111156122ab57600080fd5b6122b787828801612082565b90945092505060808501356122cb816120ca565b939692955090935050565b6000602082840312156122e857600080fd5b5035919050565b60006101608d83528c60208401528b60408401528060608401526123158184018c61222a565b608084019a909a52505060a081019690965293151560c086015260e08501929092526101008401521515610120830152151561014090910152949350505050565b6000806020838503121561236957600080fd5b82356001600160401b038082111561238057600080fd5b818501915085601f83011261239457600080fd5b8135818111156123a357600080fd5b8660208260051b85010111156123b857600080fd5b60209290920196919550909350505050565b6000602082840312156123dc57600080fd5b6122698261217e565b600080600080606085870312156123fb57600080fd5b6124048561217e565b9350612412602086016121c1565b925060408501356001600160401b0381111561242d57600080fd5b61243987828801612082565b95989497509550505050565b60006020828403121561245757600080fd5b8135612269816120ca565b634e487b7160e01b600052604160045260246000fd5b604051606081016001600160401b038111828210171561249a5761249a612462565b60405290565b60405161014081016001600160401b038111828210171561249a5761249a612462565b604051601f8201601f191681016001600160401b03811182821017156124eb576124eb612462565b604052919050565b600082601f83011261250457600080fd5b81356001600160401b0381111561251d5761251d612462565b612530601f8201601f19166020016124c3565b81815284602083860101111561254557600080fd5b816020850160208301376000918101602001919091529392505050565b60008060008060008060c0878903121561257b57600080fd5b86359550602087013594506040870135935060608701356001600160401b038111156125a657600080fd5b6125b289828a016124f3565b9350506080870135915060a087013590509295509295509295565b600080600080606085870312156125e357600080fd5b6125ec8561217e565b935060208501356001600160401b038082111561260857600080fd5b612614888389016124f3565b9450604087013591508082111561262a57600080fd5b5061243987828801612082565b6000608082019050825182526001600160401b0360208401511660208301526040830151612672604084018280518252602090810151910152565b5092915050565b60006101408c83528b60208401528a604084015280606084015261269f8184018b61222a565b6080840199909952505060a081019590955292151560c085015260e0840191909152610100830152151561012090910152949350505050565b801515811461139657600080fd5b600080600080608085870312156126fc57600080fd5b6127058561217e565b935060208501356001600160401b038082111561272157600080fd5b61272d888389016124f3565b9450604087013591508082111561274357600080fd5b50612750878288016124f3565b92505060608501356122cb816126d8565b815181526020808301519082015260408101610864565b60006060828403121561278a57600080fd5b612269838361206a565b6000602082840312156127a657600080fd5b5051919050565b600181811c908216806127c157607f821691505b60208210810361207c57634e487b7160e01b600052602260045260246000fd5b60006001600160401b03808411156127fb576127fb612462565b8360051b602061280c8183016124c3565b86815291850191818101903684111561282457600080fd5b865b848110156128aa5780358681111561283e5760008081fd5b880160603682900312156128525760008081fd5b61285a612478565b6128638261217e565b81526128708683016121c1565b86820152604080830135898111156128885760008081fd5b612894368286016124f3565b9183019190915250845250918301918301612826565b50979650505050505050565b600080858511156128c657600080fd5b838611156128d357600080fd5b5050820193919092039150565b600084516128f2818460208901612206565b8201838582376000930192835250909392505050565b60208152816020820152818360408301376000818301604090810191909152601f909201601f19160101919050565b60208082526015908201527413585c9ad95d08191bd95cc81b9bdd08195e1a5cdd605a1b604082015260600190565b8082018082111561086457634e487b7160e01b600052601160045260246000fd5b60008154612994816127ad565b8085526020600183811680156129b157600181146129cb576129f9565b60ff1985168884015283151560051b8801830195506129f9565b866000528260002060005b858110156129f15781548a82018601529083019084016129d6565b890184019650505b505050505092915050565b60018060a01b03851681528360208201528260408201526080606082015260006112206080830184612987565b8051612192816120ca565b8051612192816126d8565b600060e08284031215612a5957600080fd5b60405160e081018181106001600160401b0382111715612a7b57612a7b612462565b80604052508091508251612a8e816126d8565b81526020830151612a9e816126d8565b60208201526040830151612ab1816126d8565b60408201526060830151612ac4816126d8565b6060820152612ad560808401612a3c565b608082015260a083015160a082015260c083015160c08201525092915050565b60006102008284031215612b0857600080fd5b612b106124a0565b612b1983612a31565b8152612b2760208401612a31565b6020820152612b3860408401612a31565b6040820152612b4960608401612a3c565b6060820152612b5b8460808501612a47565b608082015261016083015160a082015261018083015160c08201526101a083015160e08201526101c08301516101008201526101e09092015161012083015250919050565b601f821115612bec576000816000526020600020601f850160051c81016020861015612bc95750805b601f850160051c820191505b81811015612be857828155600101612bd5565b5050505b505050565b81516001600160401b03811115612c0a57612c0a612462565b612c1e81612c1884546127ad565b84612ba0565b602080601f831160018114612c535760008415612c3b5750858301515b600019600386901b1c1916600185901b178555612be8565b600085815260208120601f198616915b82811015612c8257888601518255948401946001909101908401612c63565b5085821015612ca05787850151600019600388901b60f8161c191681555b5050505050600190811b01905550565b838152826020820152606060408201526000611e49606083018461222a565b600060208284031215612ce157600080fd5b8151612269816126d8565b85815284602082015260a060408201526000612d0b60a0830186612987565b6001600160a01b0394909416606083015250608001529392505050565b848152836020820152608060408201526000612d476080830185612987565b905082606083015295945050505050565b838152826020820152606060408201526000611e496060830184612987565b86815285602082015260c060408201526000612d9660c0830187612987565b9415156060830152509115156080830152151560a0909101529392505050565b604081526000612dc96040830185612987565b90508260208301529392505050565b600060208284031215612dea57600080fd5b81356001600160401b03811115612e0057600080fd5b610877848285016124f3565b634e487b7160e01b600052603260045260246000fd5b600060208083018184528085518083526040925060408601915060408160051b87010184880160005b83811015612e9f57888303603f190185528151805163ffffffff1684528781015161ffff16888501528601516060878501819052612e8b8186018361222a565b968901969450505090860190600101612e4b565b509098975050505050505050565b6040815263ffffffff8351166040820152602083015160608201526000604084015160a06080840152612ee360e084018261222a565b90506060850151603f198483030160a0850152612f00828261222a565b60809690960151151560c08501525050506001600160a01b039190911660209091015290565b600060408284031215612f3857600080fd5b604051604081018181106001600160401b0382111715612f5a57612f5a612462565b604052825181526020928301519281019290925250919050565b600060808284031215612f8657600080fd5b612f8e612478565b8251815260208301516001600160401b0381168114612fac57600080fd5b6020820152612fbe8460408501612f26565b60408201529392505050565b600060408284031215612fdc57600080fd5b6122698383612f26565b600060208284031215612ff857600080fd5b8151612269816120ca56fe4d554c5449504c455f43484f4943455f51554552590000000000000000000000a26469706673582212206a3354fd5e45cf8fc762c2103c57ba4c6ccdb2c8ff7b2f6ddabc6f561cffb2fd64736f6c63430008160033",
  "devdoc": {
    "errors": {
      "OwnableInvalidOwner(address)": [
        {
          "details": "The owner is not a valid owner account. (eg. `address(0)`)"
        }
      ],
      "OwnableUnauthorizedAccount(address)": [
        {
          "details": "The caller account is not authorized to perform an operation."
        }
      ],
      "SafeERC20FailedOperation(address)": [
        {
          "details": "An operation with an ERC-20 token failed."
        }
      ]
    },
    "kind": "dev",
    "methods": {
      "allowInitializePath((uint32,bytes32,uint64))": {
        "details": "This indicates to the endpoint that the OApp has enabled msgs for this particular path to be received.This defaults to assuming if a peer has been set, its initialized. Can be overridden by the OApp if there is other logic to determine this.",
        "params": {
          "origin": "The origin information containing the source endpoint and sender address."
        },
        "returns": {
          "_0": "Whether the path has been initialized."
        }
      },
      "combineOptions(uint32,uint16,bytes)": {
        "details": "If there is an enforced lzReceive option: - {gasLimit: 200k, msg.value: 1 ether} AND a caller supplies a lzReceive option: {gasLimit: 100k, msg.value: 0.5 ether} - The resulting options will be {gasLimit: 300k, msg.value: 1.5 ether} when the message is executed on the remote lzReceive() function.This presence of duplicated options is handled off-chain in the verifier/executor.",
        "params": {
          "_eid": "The endpoint ID.",
          "_extraOptions": "Additional options passed by the caller.",
          "_msgType": "The OAPP message type."
        },
        "returns": {
          "_0": "options The combination of caller specified options AND enforced options."
        }
      },
      "isComposeMsgSender((uint32,bytes32,uint64),bytes,address)": {
        "details": "_origin The origin information containing the source endpoint and sender address.  - srcEid: The source chain endpoint ID.  - sender: The sender address on the src chain.  - nonce: The nonce of the message._message The lzReceive payload.Applications can optionally choose to implement separate composeMsg senders that are NOT the bridging layer.The default sender IS the OAppReceiver implementer.",
        "params": {
          "_sender": "The sender address."
        },
        "returns": {
          "_0": "isSender Is a valid sender."
        }
      },
      "lzReceive((uint32,bytes32,uint64),bytes32,bytes,address,bytes)": {
        "details": "Entry point for receiving messages or packets from the endpoint.Entry point for receiving msg/packet from the LayerZero endpoint.",
        "params": {
          "_executor": "The address of the executor for the received message.",
          "_extraData": "Additional arbitrary data provided by the corresponding executor.",
          "_guid": "The unique identifier for the received LayerZero message.",
          "_message": "The payload of the received message.",
          "_origin": "The origin information containing the source endpoint and sender address.  - srcEid: The source chain endpoint ID.  - sender: The sender address on the src chain.  - nonce: The nonce of the message."
        }
      },
      "nextNonce(uint32,bytes32)": {
        "details": "_srcEid The source endpoint ID._sender The sender address.The path nonce starts from 1. If 0 is returned it means that there is NO nonce ordered enforcement.Is required by the off-chain executor to determine the OApp expects msg execution is ordered.This is also enforced by the OApp.By default this is NOT enabled. ie. nextNonce is hardcoded to return 0.",
        "returns": {
          "nonce": "The next nonce."
        }
      },
      "oAppVersion()": {
        "returns": {
          "receiverVersion": "The version of the OAppReceiver.sol implementation.",
          "senderVersion": "The version of the OAppSender.sol implementation."
        }
      },
      "owner()": {
        "details": "Returns the address of the current owner."
      },
      "quote(uint32,string,bytes,bool)": {
        "params": {
          "_dstEid": "Destination chain's endpoint ID.",
          "_message": "The message.",
          "_options": "Message execution options (e.g., for sending gas to destination).",
          "_payInLzToken": "Whether to return fee in ZRO token."
        },
        "returns": {
          "fee": "A `MessagingFee` struct containing the calculated gas fee in either the native token or ZRO token."
        }
      },
      "renounceOwnership()": {
        "details": "Leaves the contract without owner. It will not be possible to call `onlyOwner` functions. Can only be called by the current owner. NOTE: Renouncing ownership will leave the contract without an owner, thereby disabling any functionality that is only available to the owner."
      },
      "send(uint32,string,bytes)": {
        "details": "Encodes the message as bytes and sends it using the `_lzSend` internal function.",
        "params": {
          "_dstEid": "The endpoint ID of the destination chain.",
          "_message": "The message string to be sent.",
          "_options": "Additional options for message execution."
        },
        "returns": {
          "receipt": "A `MessagingReceipt` struct containing details of the message sent."
        }
      },
      "setDelegate(address)": {
        "details": "Only the owner/admin of the OApp can call this function.Provides the ability for a delegate to set configs, on behalf of the OApp, directly on the Endpoint contract.",
        "params": {
          "_delegate": "The address of the delegate to be set."
        }
      },
      "setEnforcedOptions((uint32,uint16,bytes)[])": {
        "details": "Sets the enforced options for specific endpoint and message type combinations.Only the owner/admin of the OApp can call this function.Provides a way for the OApp to enforce things like paying for PreCrime, AND/OR minimum dst lzReceive gas amounts etc.These enforced options can vary as the potential options/execution on the remote may differ as per the msgType. eg. Amount of lzReceive() gas necessary to deliver a lzCompose() message adds overhead you dont want to pay if you are only making a standard LayerZero message ie. lzReceive() WITHOUT sendCompose().",
        "params": {
          "_enforcedOptions": "An array of EnforcedOptionParam structures specifying enforced options."
        }
      },
      "setPeer(uint32,bytes32)": {
        "details": "Only the owner/admin of the OApp can call this function.Indicates that the peer is trusted to send LayerZero messages to this OApp.Set this to bytes32(0) to remove the peer address.Peer is a bytes32 to accommodate non-evm chains.",
        "params": {
          "_eid": "The endpoint ID.",
          "_peer": "The address of the peer to be associated with the corresponding endpoint."
        }
      },
      "transferOwnership(address)": {
        "details": "Transfers ownership of the contract to a new account (`newOwner`). Can only be called by the current owner."
      }
    },
    "version": 1
  },
  "userdoc": {
    "kind": "user",
    "methods": {
      "allowInitializePath((uint32,bytes32,uint64))": {
        "notice": "Checks if the path initialization is allowed based on the provided origin."
      },
      "combineOptions(uint32,uint16,bytes)": {
        "notice": "Combines options for a given endpoint and message type."
      },
      "endpoint()": {
        "notice": "Retrieves the LayerZero endpoint associated with the OApp."
      },
      "isComposeMsgSender((uint32,bytes32,uint64),bytes,address)": {
        "notice": "Indicates whether an address is an approved composeMsg sender to the Endpoint."
      },
      "nextNonce(uint32,bytes32)": {
        "notice": "Retrieves the next nonce for a given source endpoint and sender address."
      },
      "oAppVersion()": {
        "notice": "Retrieves the OApp version information."
      },
      "peers(uint32)": {
        "notice": "Retrieves the peer (OApp) associated with a corresponding endpoint."
      },
      "quote(uint32,string,bytes,bool)": {
        "notice": "Quotes the gas needed to pay for the full omnichain transaction in native gas or ZRO token."
      },
      "send(uint32,string,bytes)": {
        "notice": "Sends a message from the source chain to a destination chain."
      },
      "setDelegate(address)": {
        "notice": "Sets the delegate address for the OApp."
      },
      "setPeer(uint32,bytes32)": {
        "notice": "Sets the peer address (OApp instance) for a corresponding endpoint."
      }
    },
    "version": 1
  },
  "storageLayout": {
    "storage": [
      {
        "astId": 1533,
        "contract": "contracts/SepoliaContract.sol:SepoliaContract",
        "label": "_owner",
        "offset": 0,
        "slot": "0",
        "type": "t_address"
      },
      {
        "astId": 785,
        "contract": "contracts/SepoliaContract.sol:SepoliaContract",
        "label": "peers",
        "offset": 0,
        "slot": "1",
        "type": "t_mapping(t_uint32,t_bytes32)"
      },
      {
        "astId": 1381,
        "contract": "contracts/SepoliaContract.sol:SepoliaContract",
        "label": "enforcedOptions",
        "offset": 0,
        "slot": "2",
        "type": "t_mapping(t_uint32,t_mapping(t_uint16,t_bytes_storage))"
      },
      {
        "astId": 4114,
        "contract": "contracts/SepoliaContract.sol:SepoliaContract",
        "label": "weth",
        "offset": 0,
        "slot": "3",
        "type": "t_contract(IWETH)4101"
      },
      {
        "astId": 4120,
        "contract": "contracts/SepoliaContract.sol:SepoliaContract",
        "label": "oo",
        "offset": 0,
        "slot": "4",
        "type": "t_contract(OptimisticOracleV2Interface)2677"
      },
      {
        "astId": 4143,
        "contract": "contracts/SepoliaContract.sol:SepoliaContract",
        "label": "data",
        "offset": 0,
        "slot": "5",
        "type": "t_string_storage"
      },
      {
        "astId": 4171,
        "contract": "contracts/SepoliaContract.sol:SepoliaContract",
        "label": "markets",
        "offset": 0,
        "slot": "6",
        "type": "t_mapping(t_uint256,t_struct(Market)4166_storage)"
      },
      {
        "astId": 4173,
        "contract": "contracts/SepoliaContract.sol:SepoliaContract",
        "label": "marketCount",
        "offset": 0,
        "slot": "7",
        "type": "t_uint256"
      },
      {
        "astId": 4208,
        "contract": "contracts/SepoliaContract.sol:SepoliaContract",
        "label": "flowEndpointId",
        "offset": 0,
        "slot": "8",
        "type": "t_uint32"
      }
    ],
    "types": {
      "t_address": {
        "encoding": "inplace",
        "label": "address",
        "numberOfBytes": "20"
      },
      "t_bool": {
        "encoding": "inplace",
        "label": "bool",
        "numberOfBytes": "1"
      },
      "t_bytes32": {
        "encoding": "inplace",
        "label": "bytes32",
        "numberOfBytes": "32"
      },
      "t_bytes_storage": {
        "encoding": "bytes",
        "label": "bytes",
        "numberOfBytes": "32"
      },
      "t_contract(IWETH)4101": {
        "encoding": "inplace",
        "label": "contract IWETH",
        "numberOfBytes": "20"
      },
      "t_contract(OptimisticOracleV2Interface)2677": {
        "encoding": "inplace",
        "label": "contract OptimisticOracleV2Interface",
        "numberOfBytes": "20"
      },
      "t_int256": {
        "encoding": "inplace",
        "label": "int256",
        "numberOfBytes": "32"
      },
      "t_mapping(t_uint16,t_bytes_storage)": {
        "encoding": "mapping",
        "key": "t_uint16",
        "label": "mapping(uint16 => bytes)",
        "numberOfBytes": "32",
        "value": "t_bytes_storage"
      },
      "t_mapping(t_uint256,t_struct(Market)4166_storage)": {
        "encoding": "mapping",
        "key": "t_uint256",
        "label": "mapping(uint256 => struct SepoliaContract.Market)",
        "numberOfBytes": "32",
        "value": "t_struct(Market)4166_storage"
      },
      "t_mapping(t_uint32,t_bytes32)": {
        "encoding": "mapping",
        "key": "t_uint32",
        "label": "mapping(uint32 => bytes32)",
        "numberOfBytes": "32",
        "value": "t_bytes32"
      },
      "t_mapping(t_uint32,t_mapping(t_uint16,t_bytes_storage))": {
        "encoding": "mapping",
        "key": "t_uint32",
        "label": "mapping(uint32 => mapping(uint16 => bytes))",
        "numberOfBytes": "32",
        "value": "t_mapping(t_uint16,t_bytes_storage)"
      },
      "t_string_storage": {
        "encoding": "bytes",
        "label": "string",
        "numberOfBytes": "32"
      },
      "t_struct(Market)4166_storage": {
        "encoding": "inplace",
        "label": "struct SepoliaContract.Market",
        "members": [
          {
            "astId": 4145,
            "contract": "contracts/SepoliaContract.sol:SepoliaContract",
            "label": "marketId",
            "offset": 0,
            "slot": "0",
            "type": "t_uint256"
          },
          {
            "astId": 4147,
            "contract": "contracts/SepoliaContract.sol:SepoliaContract",
            "label": "reward",
            "offset": 0,
            "slot": "1",
            "type": "t_uint256"
          },
          {
            "astId": 4149,
            "contract": "contracts/SepoliaContract.sol:SepoliaContract",
            "label": "bond",
            "offset": 0,
            "slot": "2",
            "type": "t_uint256"
          },
          {
            "astId": 4151,
            "contract": "contracts/SepoliaContract.sol:SepoliaContract",
            "label": "questionText",
            "offset": 0,
            "slot": "3",
            "type": "t_bytes_storage"
          },
          {
            "astId": 4153,
            "contract": "contracts/SepoliaContract.sol:SepoliaContract",
            "label": "verificationTime",
            "offset": 0,
            "slot": "4",
            "type": "t_uint256"
          },
          {
            "astId": 4155,
            "contract": "contracts/SepoliaContract.sol:SepoliaContract",
            "label": "optionCount",
            "offset": 0,
            "slot": "5",
            "type": "t_uint256"
          },
          {
            "astId": 4157,
            "contract": "contracts/SepoliaContract.sol:SepoliaContract",
            "label": "isResolved",
            "offset": 0,
            "slot": "6",
            "type": "t_bool"
          },
          {
            "astId": 4159,
            "contract": "contracts/SepoliaContract.sol:SepoliaContract",
            "label": "outcome",
            "offset": 0,
            "slot": "7",
            "type": "t_int256"
          },
          {
            "astId": 4161,
            "contract": "contracts/SepoliaContract.sol:SepoliaContract",
            "label": "requestTime",
            "offset": 0,
            "slot": "8",
            "type": "t_uint256"
          },
          {
            "astId": 4163,
            "contract": "contracts/SepoliaContract.sol:SepoliaContract",
            "label": "exists",
            "offset": 0,
            "slot": "9",
            "type": "t_bool"
          },
          {
            "astId": 4165,
            "contract": "contracts/SepoliaContract.sol:SepoliaContract",
            "label": "isEventBased",
            "offset": 1,
            "slot": "9",
            "type": "t_bool"
          }
        ],
        "numberOfBytes": "320"
      },
      "t_uint16": {
        "encoding": "inplace",
        "label": "uint16",
        "numberOfBytes": "2"
      },
      "t_uint256": {
        "encoding": "inplace",
        "label": "uint256",
        "numberOfBytes": "32"
      },
      "t_uint32": {
        "encoding": "inplace",
        "label": "uint32",
        "numberOfBytes": "4"
      }
    }
  }
}