{
  "address": "0xb80f4395aA198f48567763f2e9789505c05F45F4",
  "abi": [
    {
      "inputs": [
        {
          "internalType": "address",
          "name": "_endpoint",
          "type": "address"
        },
        {
          "internalType": "address",
          "name": "_delegate",
          "type": "address"
        }
      ],
      "stateMutability": "nonpayable",
      "type": "constructor"
    },
    {
      "inputs": [],
      "name": "InvalidDelegate",
      "type": "error"
    },
    {
      "inputs": [],
      "name": "InvalidEndpointCall",
      "type": "error"
    },
    {
      "inputs": [
        {
          "internalType": "bytes",
          "name": "options",
          "type": "bytes"
        }
      ],
      "name": "InvalidOptions",
      "type": "error"
    },
    {
      "inputs": [],
      "name": "LzTokenUnavailable",
      "type": "error"
    },
    {
      "inputs": [
        {
          "internalType": "uint32",
          "name": "eid",
          "type": "uint32"
        }
      ],
      "name": "NoPeer",
      "type": "error"
    },
    {
      "inputs": [
        {
          "internalType": "uint256",
          "name": "msgValue",
          "type": "uint256"
        }
      ],
      "name": "NotEnoughNative",
      "type": "error"
    },
    {
      "inputs": [
        {
          "internalType": "address",
          "name": "addr",
          "type": "address"
        }
      ],
      "name": "OnlyEndpoint",
      "type": "error"
    },
    {
      "inputs": [
        {
          "internalType": "uint32",
          "name": "eid",
          "type": "uint32"
        },
        {
          "internalType": "bytes32",
          "name": "sender",
          "type": "bytes32"
        }
      ],
      "name": "OnlyPeer",
      "type": "error"
    },
    {
      "inputs": [
        {
          "internalType": "address",
          "name": "owner",
          "type": "address"
        }
      ],
      "name": "OwnableInvalidOwner",
      "type": "error"
    },
    {
      "inputs": [
        {
          "internalType": "address",
          "name": "account",
          "type": "address"
        }
      ],
      "name": "OwnableUnauthorizedAccount",
      "type": "error"
    },
    {
      "inputs": [
        {
          "internalType": "address",
          "name": "token",
          "type": "address"
        }
      ],
      "name": "SafeERC20FailedOperation",
      "type": "error"
    },
    {
      "anonymous": false,
      "inputs": [
        {
          "components": [
            {
              "internalType": "uint32",
              "name": "eid",
              "type": "uint32"
            },
            {
              "internalType": "uint16",
              "name": "msgType",
              "type": "uint16"
            },
            {
              "internalType": "bytes",
              "name": "options",
              "type": "bytes"
            }
          ],
          "indexed": false,
          "internalType": "struct EnforcedOptionParam[]",
          "name": "_enforcedOptions",
          "type": "tuple[]"
        }
      ],
      "name": "EnforcedOptionSet",
      "type": "event"
    },
    {
      "anonymous": false,
      "inputs": [
        {
          "indexed": true,
          "internalType": "uint256",
          "name": "marketId",
          "type": "uint256"
        },
        {
          "indexed": false,
          "internalType": "uint256",
          "name": "reward",
          "type": "uint256"
        },
        {
          "indexed": false,
          "internalType": "uint256",
          "name": "bond",
          "type": "uint256"
        },
        {
          "indexed": false,
          "internalType": "bytes",
          "name": "questionText",
          "type": "bytes"
        }
      ],
      "name": "MarketCreated",
      "type": "event"
    },
    {
      "anonymous": false,
      "inputs": [
        {
          "indexed": true,
          "internalType": "uint256",
          "name": "marketId",
          "type": "uint256"
        },
        {
          "indexed": false,
          "internalType": "int256",
          "name": "outcome",
          "type": "int256"
        }
      ],
      "name": "MarketSettled",
      "type": "event"
    },
    {
      "anonymous": false,
      "inputs": [
        {
          "indexed": true,
          "internalType": "uint256",
          "name": "marketId",
          "type": "uint256"
        },
        {
          "indexed": false,
          "internalType": "bytes",
          "name": "questionText",
          "type": "bytes"
        },
        {
          "indexed": false,
          "internalType": "uint256",
          "name": "timestamp",
          "type": "uint256"
        }
      ],
      "name": "OracleRequestCreated",
      "type": "event"
    },
    {
      "anonymous": false,
      "inputs": [
        {
          "indexed": true,
          "internalType": "address",
          "name": "previousOwner",
          "type": "address"
        },
        {
          "indexed": true,
          "internalType": "address",
          "name": "newOwner",
          "type": "address"
        }
      ],
      "name": "OwnershipTransferred",
      "type": "event"
    },
    {
      "anonymous": false,
      "inputs": [
        {
          "indexed": false,
          "internalType": "uint32",
          "name": "eid",
          "type": "uint32"
        },
        {
          "indexed": false,
          "internalType": "bytes32",
          "name": "peer",
          "type": "bytes32"
        }
      ],
      "name": "PeerSet",
      "type": "event"
    },
    {
      "anonymous": false,
      "inputs": [
        {
          "indexed": true,
          "internalType": "uint256",
          "name": "marketId",
          "type": "uint256"
        },
        {
          "indexed": false,
          "internalType": "int256",
          "name": "outcome",
          "type": "int256"
        },
        {
          "indexed": false,
          "internalType": "uint32",
          "name": "dstEid",
          "type": "uint32"
        }
      ],
      "name": "ResultSent",
      "type": "event"
    },
    {
      "inputs": [],
      "name": "NO_ANSWER_POSSIBLE",
      "outputs": [
        {
          "internalType": "int256",
          "name": "",
          "type": "int256"
        }
      ],
      "stateMutability": "view",
      "type": "function"
    },
    {
      "inputs": [],
      "name": "TOO_EARLY_RESPONSE",
      "outputs": [
        {
          "internalType": "int256",
          "name": "",
          "type": "int256"
        }
      ],
      "stateMutability": "view",
      "type": "function"
    },
    {
      "inputs": [
        {
          "components": [
            {
              "internalType": "uint32",
              "name": "srcEid",
              "type": "uint32"
            },
            {
              "internalType": "bytes32",
              "name": "sender",
              "type": "bytes32"
            },
            {
              "internalType": "uint64",
              "name": "nonce",
              "type": "uint64"
            }
          ],
          "internalType": "struct Origin",
          "name": "origin",
          "type": "tuple"
        }
      ],
      "name": "allowInitializePath",
      "outputs": [
        {
          "internalType": "bool",
          "name": "",
          "type": "bool"
        }
      ],
      "stateMutability": "view",
      "type": "function"
    },
    {
      "inputs": [
        {
          "internalType": "uint32",
          "name": "_eid",
          "type": "uint32"
        },
        {
          "internalType": "uint16",
          "name": "_msgType",
          "type": "uint16"
        },
        {
          "internalType": "bytes",
          "name": "_extraOptions",
          "type": "bytes"
        }
      ],
      "name": "combineOptions",
      "outputs": [
        {
          "internalType": "bytes",
          "name": "",
          "type": "bytes"
        }
      ],
      "stateMutability": "view",
      "type": "function"
    },
    {
      "inputs": [
        {
          "internalType": "uint256",
          "name": "marketId",
          "type": "uint256"
        },
        {
          "internalType": "uint256",
          "name": "reward",
          "type": "uint256"
        },
        {
          "internalType": "uint256",
          "name": "bond",
          "type": "uint256"
        },
        {
          "internalType": "string",
          "name": "jsonQuestion",
          "type": "string"
        },
        {
          "internalType": "uint256",
          "name": "verificationTime",
          "type": "uint256"
        },
        {
          "internalType": "uint256",
          "name": "optionCount",
          "type": "uint256"
        }
      ],
      "name": "createMarket",
      "outputs": [],
      "stateMutability": "nonpayable",
      "type": "function"
    },
    {
      "inputs": [],
      "name": "data",
      "outputs": [
        {
          "internalType": "string",
          "name": "",
          "type": "string"
        }
      ],
      "stateMutability": "view",
      "type": "function"
    },
    {
      "inputs": [],
      "name": "depositETH",
      "outputs": [],
      "stateMutability": "payable",
      "type": "function"
    },
    {
      "inputs": [],
      "name": "endpoint",
      "outputs": [
        {
          "internalType": "contract ILayerZeroEndpointV2",
          "name": "",
          "type": "address"
        }
      ],
      "stateMutability": "view",
      "type": "function"
    },
    {
      "inputs": [
        {
          "internalType": "uint32",
          "name": "eid",
          "type": "uint32"
        },
        {
          "internalType": "uint16",
          "name": "msgType",
          "type": "uint16"
        }
      ],
      "name": "enforcedOptions",
      "outputs": [
        {
          "internalType": "bytes",
          "name": "enforcedOption",
          "type": "bytes"
        }
      ],
      "stateMutability": "view",
      "type": "function"
    },
    {
      "inputs": [
        {
          "internalType": "uint256",
          "name": "marketId",
          "type": "uint256"
        }
      ],
      "name": "getMarket",
      "outputs": [
        {
          "internalType": "uint256",
          "name": "_marketId",
          "type": "uint256"
        },
        {
          "internalType": "uint256",
          "name": "reward",
          "type": "uint256"
        },
        {
          "internalType": "uint256",
          "name": "bond",
          "type": "uint256"
        },
        {
          "internalType": "bytes",
          "name": "questionText",
          "type": "bytes"
        },
        {
          "internalType": "uint256",
          "name": "verificationTime",
          "type": "uint256"
        },
        {
          "internalType": "uint256",
          "name": "optionCount",
          "type": "uint256"
        },
        {
          "internalType": "bool",
          "name": "isResolved",
          "type": "bool"
        },
        {
          "internalType": "int256",
          "name": "outcome",
          "type": "int256"
        },
        {
          "internalType": "uint256",
          "name": "_requestTime",
          "type": "uint256"
        },
        {
          "internalType": "bool",
          "name": "exists",
          "type": "bool"
        }
      ],
      "stateMutability": "view",
      "type": "function"
    },
    {
      "inputs": [],
      "name": "getWETHBalance",
      "outputs": [
        {
          "internalType": "uint256",
          "name": "",
          "type": "uint256"
        }
      ],
      "stateMutability": "view",
      "type": "function"
    },
    {
      "inputs": [],
      "name": "identifier",
      "outputs": [
        {
          "internalType": "bytes32",
          "name": "",
          "type": "bytes32"
        }
      ],
      "stateMutability": "view",
      "type": "function"
    },
    {
      "inputs": [
        {
          "components": [
            {
              "internalType": "uint32",
              "name": "srcEid",
              "type": "uint32"
            },
            {
              "internalType": "bytes32",
              "name": "sender",
              "type": "bytes32"
            },
            {
              "internalType": "uint64",
              "name": "nonce",
              "type": "uint64"
            }
          ],
          "internalType": "struct Origin",
          "name": "",
          "type": "tuple"
        },
        {
          "internalType": "bytes",
          "name": "",
          "type": "bytes"
        },
        {
          "internalType": "address",
          "name": "_sender",
          "type": "address"
        }
      ],
      "name": "isComposeMsgSender",
      "outputs": [
        {
          "internalType": "bool",
          "name": "",
          "type": "bool"
        }
      ],
      "stateMutability": "view",
      "type": "function"
    },
    {
      "inputs": [
        {
          "components": [
            {
              "internalType": "uint32",
              "name": "srcEid",
              "type": "uint32"
            },
            {
              "internalType": "bytes32",
              "name": "sender",
              "type": "bytes32"
            },
            {
              "internalType": "uint64",
              "name": "nonce",
              "type": "uint64"
            }
          ],
          "internalType": "struct Origin",
          "name": "_origin",
          "type": "tuple"
        },
        {
          "internalType": "bytes32",
          "name": "_guid",
          "type": "bytes32"
        },
        {
          "internalType": "bytes",
          "name": "_message",
          "type": "bytes"
        },
        {
          "internalType": "address",
          "name": "_executor",
          "type": "address"
        },
        {
          "internalType": "bytes",
          "name": "_extraData",
          "type": "bytes"
        }
      ],
      "name": "lzReceive",
      "outputs": [],
      "stateMutability": "payable",
      "type": "function"
    },
    {
      "inputs": [],
      "name": "marketCount",
      "outputs": [
        {
          "internalType": "uint256",
          "name": "",
          "type": "uint256"
        }
      ],
      "stateMutability": "view",
      "type": "function"
    },
    {
      "inputs": [
        {
          "internalType": "uint256",
          "name": "",
          "type": "uint256"
        }
      ],
      "name": "markets",
      "outputs": [
        {
          "internalType": "uint256",
          "name": "marketId",
          "type": "uint256"
        },
        {
          "internalType": "uint256",
          "name": "reward",
          "type": "uint256"
        },
        {
          "internalType": "uint256",
          "name": "bond",
          "type": "uint256"
        },
        {
          "internalType": "bytes",
          "name": "questionText",
          "type": "bytes"
        },
        {
          "internalType": "uint256",
          "name": "verificationTime",
          "type": "uint256"
        },
        {
          "internalType": "uint256",
          "name": "optionCount",
          "type": "uint256"
        },
        {
          "internalType": "bool",
          "name": "isResolved",
          "type": "bool"
        },
        {
          "internalType": "int256",
          "name": "outcome",
          "type": "int256"
        },
        {
          "internalType": "uint256",
          "name": "requestTime",
          "type": "uint256"
        },
        {
          "internalType": "bool",
          "name": "exists",
          "type": "bool"
        },
        {
          "internalType": "bool",
          "name": "isEventBased",
          "type": "bool"
        }
      ],
      "stateMutability": "view",
      "type": "function"
    },
    {
      "inputs": [
        {
          "internalType": "uint32",
          "name": "",
          "type": "uint32"
        },
        {
          "internalType": "bytes32",
          "name": "",
          "type": "bytes32"
        }
      ],
      "name": "nextNonce",
      "outputs": [
        {
          "internalType": "uint64",
          "name": "nonce",
          "type": "uint64"
        }
      ],
      "stateMutability": "view",
      "type": "function"
    },
    {
      "inputs": [],
      "name": "oAppVersion",
      "outputs": [
        {
          "internalType": "uint64",
          "name": "senderVersion",
          "type": "uint64"
        },
        {
          "internalType": "uint64",
          "name": "receiverVersion",
          "type": "uint64"
        }
      ],
      "stateMutability": "pure",
      "type": "function"
    },
    {
      "inputs": [],
      "name": "owner",
      "outputs": [
        {
          "internalType": "address",
          "name": "",
          "type": "address"
        }
      ],
      "stateMutability": "view",
      "type": "function"
    },
    {
      "inputs": [
        {
          "internalType": "uint32",
          "name": "eid",
          "type": "uint32"
        }
      ],
      "name": "peers",
      "outputs": [
        {
          "internalType": "bytes32",
          "name": "peer",
          "type": "bytes32"
        }
      ],
      "stateMutability": "view",
      "type": "function"
    },
    {
      "inputs": [
        {
          "internalType": "uint32",
          "name": "_dstEid",
          "type": "uint32"
        },
        {
          "internalType": "string",
          "name": "_message",
          "type": "string"
        },
        {
          "internalType": "bytes",
          "name": "_options",
          "type": "bytes"
        },
        {
          "internalType": "bool",
          "name": "_payInLzToken",
          "type": "bool"
        }
      ],
      "name": "quote",
      "outputs": [
        {
          "components": [
            {
              "internalType": "uint256",
              "name": "nativeFee",
              "type": "uint256"
            },
            {
              "internalType": "uint256",
              "name": "lzTokenFee",
              "type": "uint256"
            }
          ],
          "internalType": "struct MessagingFee",
          "name": "fee",
          "type": "tuple"
        }
      ],
      "stateMutability": "view",
      "type": "function"
    },
    {
      "inputs": [],
      "name": "renounceOwnership",
      "outputs": [],
      "stateMutability": "nonpayable",
      "type": "function"
    },
    {
      "inputs": [
        {
          "internalType": "uint256",
          "name": "marketId",
          "type": "uint256"
        }
      ],
      "name": "requestSettlement",
      "outputs": [],
      "stateMutability": "nonpayable",
      "type": "function"
    },
    {
      "inputs": [
        {
          "internalType": "uint32",
          "name": "_dstEid",
          "type": "uint32"
        },
        {
          "internalType": "string",
          "name": "_message",
          "type": "string"
        },
        {
          "internalType": "bytes",
          "name": "_options",
          "type": "bytes"
        }
      ],
      "name": "send",
      "outputs": [
        {
          "components": [
            {
              "internalType": "bytes32",
              "name": "guid",
              "type": "bytes32"
            },
            {
              "internalType": "uint64",
              "name": "nonce",
              "type": "uint64"
            },
            {
              "components": [
                {
                  "internalType": "uint256",
                  "name": "nativeFee",
                  "type": "uint256"
                },
                {
                  "internalType": "uint256",
                  "name": "lzTokenFee",
                  "type": "uint256"
                }
              ],
              "internalType": "struct MessagingFee",
              "name": "fee",
              "type": "tuple"
            }
          ],
          "internalType": "struct MessagingReceipt",
          "name": "receipt",
          "type": "tuple"
        }
      ],
      "stateMutability": "payable",
      "type": "function"
    },
    {
      "inputs": [
        {
          "internalType": "uint256",
          "name": "marketId",
          "type": "uint256"
        }
      ],
      "name": "sendMarketResult",
      "outputs": [
        {
          "components": [
            {
              "internalType": "bytes32",
              "name": "guid",
              "type": "bytes32"
            },
            {
              "internalType": "uint64",
              "name": "nonce",
              "type": "uint64"
            },
            {
              "components": [
                {
                  "internalType": "uint256",
                  "name": "nativeFee",
                  "type": "uint256"
                },
                {
                  "internalType": "uint256",
                  "name": "lzTokenFee",
                  "type": "uint256"
                }
              ],
              "internalType": "struct MessagingFee",
              "name": "fee",
              "type": "tuple"
            }
          ],
          "internalType": "struct MessagingReceipt",
          "name": "receipt",
          "type": "tuple"
        }
      ],
      "stateMutability": "payable",
      "type": "function"
    },
    {
      "inputs": [
        {
          "internalType": "address",
          "name": "_delegate",
          "type": "address"
        }
      ],
      "name": "setDelegate",
      "outputs": [],
      "stateMutability": "nonpayable",
      "type": "function"
    },
    {
      "inputs": [
        {
          "components": [
            {
              "internalType": "uint32",
              "name": "eid",
              "type": "uint32"
            },
            {
              "internalType": "uint16",
              "name": "msgType",
              "type": "uint16"
            },
            {
              "internalType": "bytes",
              "name": "options",
              "type": "bytes"
            }
          ],
          "internalType": "struct EnforcedOptionParam[]",
          "name": "_enforcedOptions",
          "type": "tuple[]"
        }
      ],
      "name": "setEnforcedOptions",
      "outputs": [],
      "stateMutability": "nonpayable",
      "type": "function"
    },
    {
      "inputs": [
        {
          "internalType": "uint32",
          "name": "_eid",
          "type": "uint32"
        },
        {
          "internalType": "bytes32",
          "name": "_peer",
          "type": "bytes32"
        }
      ],
      "name": "setPeer",
      "outputs": [],
      "stateMutability": "nonpayable",
      "type": "function"
    },
    {
      "inputs": [
        {
          "internalType": "uint256",
          "name": "marketId",
          "type": "uint256"
        }
      ],
      "name": "settleMarket",
      "outputs": [],
      "stateMutability": "payable",
      "type": "function"
    },
    {
      "inputs": [
        {
          "internalType": "address",
          "name": "newOwner",
          "type": "address"
        }
      ],
      "name": "transferOwnership",
      "outputs": [],
      "stateMutability": "nonpayable",
      "type": "function"
    },
    {
      "inputs": [],
      "name": "weth",
      "outputs": [
        {
          "internalType": "contract IWETH",
          "name": "",
          "type": "address"
        }
      ],
      "stateMutability": "view",
      "type": "function"
    },
    {
      "stateMutability": "payable",
      "type": "receive"
    }
  ],
  "transactionHash": "0xf8fb45d1073c9116246c8d663bf81376700b174035b994b03d31adba553b602d",
  "args": [
    "0x6EDCE65403992e310A62460808c4b910D972f10f",
    "0x504b635B7E22F8DF7d037cf31639811AE583E9f0"
  ],
  "numDeployments": 1,
  "solcInputHash": "1ea68fe196db437b170f822ed09cc3e4",
  "bytecode": "0x600380546001600160a01b0319908116737b79995e5f793a07bc00c21412e50ecae098e7f91790915560048054909116739f1263b8f0355673619168b5b8c0248f1d03e88c17905560e0604052601560a09081527f4e6f7468696e67207265636569766564207965742e000000000000000000000060c0526005906200008690826200029a565b506008805463ffffffff19166176c1179055348015620000a557600080fd5b506040516200388e3803806200388e833981016040819052620000c89162000383565b81818181806001600160a01b038116620000fc57604051631e4fbdf760e01b81526000600482015260240160405180910390fd5b6200010781620001a3565b506001600160a01b0380831660805281166200013657604051632d618d8160e21b815260040160405180910390fd5b60805160405163ca5eb5e160e01b81526001600160a01b0383811660048301529091169063ca5eb5e190602401600060405180830381600087803b1580156200017e57600080fd5b505af115801562000193573d6000803e3d6000fd5b50505050505050505050620003bb565b600080546001600160a01b038381166001600160a01b0319831681178455604051919092169283917f8be0079c531659141344cd1fd0a4f28419497f9722a3daafe3b4186f6b6457e09190a35050565b634e487b7160e01b600052604160045260246000fd5b600181811c908216806200021e57607f821691505b6020821081036200023f57634e487b7160e01b600052602260045260246000fd5b50919050565b601f82111562000295576000816000526020600020601f850160051c81016020861015620002705750805b601f850160051c820191505b8181101562000291578281556001016200027c565b5050505b505050565b81516001600160401b03811115620002b657620002b6620001f3565b620002ce81620002c7845462000209565b8462000245565b602080601f831160018114620003065760008415620002ed5750858301515b600019600386901b1c1916600185901b17855562000291565b600085815260208120601f198616915b82811015620003375788860151825594840194600190910190840162000316565b5085821015620003565787850151600019600388901b60f8161c191681555b5050505050600190811b01905550565b80516001600160a01b03811681146200037e57600080fd5b919050565b600080604083850312156200039757600080fd5b620003a28362000366565b9150620003b26020840162000366565b90509250929050565b60805161348d620004016000396000818161035a015281816106e501528181610b6f01528181611df801528181611f320152818161202901526120e2015261348d6000f3fe6080604052600436106101db5760003560e01c8063b98bd07011610102578063ec97908211610095578063f6326fb311610064578063f6326fb314610604578063f77e5dd31461060c578063ff7bd03d14610639578063ff8c1a8c1461065957600080fd5b8063ec9790821461059b578063edcc7566146105b1578063f2fde38b146105c4578063f4fc6cdb146105e457600080fd5b8063db0b569e116100d1578063db0b569e14610512578063dead940114610525578063e0539e5814610545578063eb44fdd31461056557600080fd5b8063b98bd07014610485578063bb0b6a53146104a5578063bc70b354146104d2578063ca5eb5e1146104f257600080fd5b80635e280f111161017a5780637d25a05e116101495780637d25a05e146103c857806382413eac146104005780638da5cb5b14610430578063b1283e771461044e57600080fd5b80635e280f1114610348578063715018a61461037c57806373d4a13a146103915780637998a1c4146103a657600080fd5b806317442b70116101b657806317442b70146102a15780633400288b146102c35780633fc8cef3146102e35780635535d4611461031b57600080fd5b8062cbb73b1461024b5780631125fa731461027357806313137d651461028e57600080fd5b3661024657600360009054906101000a90046001600160a01b03166001600160a01b031663d0e30db0346040518263ffffffff1660e01b81526004016000604051808303818588803b15801561023057600080fd5b505af1158015610244573d6000803e3d6000fd5b005b600080fd5b34801561025757600080fd5b50610260610671565b6040519081526020015b60405180910390f35b34801561027f57600080fd5b506102606001600160ff1b0381565b61024461029c3660046123df565b6106e3565b3480156102ad57600080fd5b506040805160018152600260208201520161026a565b3480156102cf57600080fd5b506102446102de366004612497565b6107a3565b3480156102ef57600080fd5b50600354610303906001600160a01b031681565b6040516001600160a01b03909116815260200161026a565b34801561032757600080fd5b5061033b6103363660046124d3565b6107b9565b60405161026a9190612556565b34801561035457600080fd5b506103037f000000000000000000000000000000000000000000000000000000000000000081565b34801561038857600080fd5b5061024461085e565b34801561039d57600080fd5b5061033b610872565b3480156103b257600080fd5b5061026060008051602061343883398151915281565b3480156103d457600080fd5b506103e86103e3366004612497565b61087f565b6040516001600160401b03909116815260200161026a565b34801561040c57600080fd5b5061042061041b366004612570565b610888565b604051901515815260200161026a565b34801561043c57600080fd5b506000546001600160a01b0316610303565b34801561045a57600080fd5b5061046e6104693660046125d6565b61089d565b60405161026a9b9a999897969594939291906125ef565b34801561049157600080fd5b506102446104a0366004612656565b610986565b3480156104b157600080fd5b506102606104c03660046126ca565b60016020526000908152604090205481565b3480156104de57600080fd5b5061033b6104ed3660046126e5565b6109a0565b3480156104fe57600080fd5b5061024461050d366004612745565b610b48565b6102446105203660046125d6565b610bce565b34801561053157600080fd5b50610244610540366004612862565b610f62565b6105586105533660046128cd565b6111bf565b60405161026a9190612937565b34801561057157600080fd5b506105856105803660046125d6565b611248565b60405161026a9a99989796959493929190612979565b3480156105a757600080fd5b5061026060075481565b6105586105bf3660046125d6565b611379565b3480156105d057600080fd5b506102446105df366004612745565b6114ba565b3480156105f057600080fd5b506102446105ff3660046125d6565b6114f8565b610244611a8c565b34801561061857600080fd5b5061062c6106273660046129e6565b611adc565b60405161026a9190612a61565b34801561064557600080fd5b50610420610654366004612a78565b611b20565b34801561066557600080fd5b50610260600160ff1b81565b6003546040516370a0823160e01b81523060048201526000916001600160a01b0316906370a0823190602401602060405180830381865afa1580156106ba573d6000803e3d6000fd5b505050506040513d601f19601f820116820180604052508101906106de9190612a94565b905090565b7f00000000000000000000000000000000000000000000000000000000000000006001600160a01b03163314610733576040516391ac5e4f60e01b81523360048201526024015b60405180910390fd5b6020870180359061074d90610748908a6126ca565b611b56565b1461078b5761075f60208801886126ca565b60405163309afaf360e21b815263ffffffff90911660048201526020880135602482015260440161072a565b61079a87878787878787611b92565b50505050505050565b6107ab611bb5565b6107b58282611be2565b5050565b6002602090815260009283526040808420909152908252902080546107dd90612aad565b80601f016020809104026020016040519081016040528092919081815260200182805461080990612aad565b80156108565780601f1061082b57610100808354040283529160200191610856565b820191906000526020600020905b81548152906001019060200180831161083957829003601f168201915b505050505081565b610866611bb5565b6108706000611c37565b565b600580546107dd90612aad565b60005b92915050565b6001600160a01b03811630145b949350505050565b6006602052600090815260409020805460018201546002830154600384018054939492939192916108cd90612aad565b80601f01602080910402602001604051908101604052809291908181526020018280546108f990612aad565b80156109465780601f1061091b57610100808354040283529160200191610946565b820191906000526020600020905b81548152906001019060200180831161092957829003601f168201915b505050600484015460058501546006860154600787015460088801546009909801549697939692955060ff9182169450929180821691610100909104168b565b61098e611bb5565b6107b561099b8284612ae1565b611c87565b63ffffffff8416600090815260026020908152604080832061ffff871684529091528120805460609291906109d490612aad565b80601f0160208091040260200160405190810160405280929190818152602001828054610a0090612aad565b8015610a4d5780601f10610a2257610100808354040283529160200191610a4d565b820191906000526020600020905b815481529060010190602001808311610a3057829003601f168201915b505050505090508051600003610a9d5783838080601f0160208091040260200160405190810160405280939291908181526020018383808284376000920191909152509294506108959350505050565b6000839003610aad579050610895565b60028310610b2b57610af484848080601f016020809104026020016040519081016040528093929190818152602001838380828437600092019190915250611d9992505050565b80610b028460028188612bb6565b604051602001610b1493929190612be0565b604051602081830303815290604052915050610895565b8383604051639a6d49cd60e01b815260040161072a929190612c08565b610b50611bb5565b60405163ca5eb5e160e01b81526001600160a01b0382811660048301527f0000000000000000000000000000000000000000000000000000000000000000169063ca5eb5e190602401600060405180830381600087803b158015610bb357600080fd5b505af1158015610bc7573d6000803e3d6000fd5b5050505050565b6000818152600660205260409020600981015460ff16610c005760405162461bcd60e51b815260040161072a90612c37565b600681015460ff1615610c4f5760405162461bcd60e51b815260206004820152601760248201527613585c9ad95d08185b1c9958591e481c995cdbdb1d9959604a1b604482015260640161072a565b6000816008015411610ca35760405162461bcd60e51b815260206004820152601860248201527f536574746c656d656e74206e6f74207265717565737465640000000000000000604482015260640161072a565b80600401548160080154610cb79190612c7c565b421015610d065760405162461bcd60e51b815260206004820152601c60248201527f566572696669636174696f6e2074696d65206e6f742070617373656400000000604482015260640161072a565b60048054600883015460405163a9904f9b60e01b81526000936001600160a01b039093169263a9904f9b92610d53923092600080516020613438833981519152929160038a019101612d0c565b61020060405180830381865afa925050508015610d8d575060408051601f3d908101601f19168201909252610d8a91810190612dfd565b60015b610dd95760405162461bcd60e51b815260206004820152601d60248201527f4661696c656420746f20676574206f7261636c6520726573706f6e7365000000604482015260640161072a565b60c001519050600160ff1b8103610e495760405162461bcd60e51b815260206004820152602e60248201527f4f7261636c6520726573706f6e73653a20546f6f206561726c7920746f20646560448201526d1d195c9b5a5b99481c995cdd5b1d60921b606482015260840161072a565b6001600160ff1b038103610eab5760405162461bcd60e51b815260206004820152602360248201527f4f7261636c6520726573706f6e73653a204e6f20616e7377657220706f737369604482015262626c6560e81b606482015260840161072a565b60008112158015610ebf5750816005015481105b610f0b5760405162461bcd60e51b815260206004820181905260248201527f496e76616c6964206f7074696f6e20696e6465782066726f6d206f7261636c65604482015260640161072a565b60068201805460ff191660011790556007820181905560405183907fca3a568dfb73dd7b7b3c0b28f130edbf4b688f534869c3de083664c43c11430e90610f559084815260200190565b60405180910390a2505050565b60008681526006602052604090206009015460ff1615610fbc5760405162461bcd60e51b81526020600482015260156024820152744d61726b657420616c72656164792065786973747360581b604482015260640161072a565b61016882101561100e5760405162461bcd60e51b815260206004820152601b60248201527f566572696669636174696f6e2074696d6520746f6f2073686f72740000000000604482015260640161072a565b620151808211156110615760405162461bcd60e51b815260206004820152601a60248201527f566572696669636174696f6e2074696d6520746f6f206c6f6e67000000000000604482015260640161072a565b60028110156110b25760405162461bcd60e51b815260206004820152601b60248201527f4174206c656173742032206f7074696f6e732072657175697265640000000000604482015260640161072a565b6000851180156110c25750600084115b6111075760405162461bcd60e51b8152602060048201526016602482015275125b9d985b1a59081c995dd85c99081bdc88189bdb9960521b604482015260640161072a565b60008681526006602052604090208681556001810186905560028101859055600381016111348582612ef9565b50600481018390556005810182905560068101805460ff1916905560001960078083019190915560098201805461ffff19166101011790555487111561117a5760078790555b867f24f820b288b9e0d4966fec47bd5c7c974b08f8f155fe8a31fa3fbf95f4d7d7768787876040516111ae93929190612fb8565b60405180910390a250505050505050565b6111c7612323565b6000846040516020016111da9190612556565b60408051601f198184030181526020601f8701819004810284018101909252858352925061123e918891849190889088908190840183828082843760009201829052506040805180820190915234815260208101919091529250339150611dc59050565b9695505050505050565b60008181526006602052604081206009810154829182916060918391829182918291829182919060ff1661128e5760405162461bcd60e51b815260040161072a90612c37565b80546001820154600283015460048401546005850154600686015460078701546008880154600989015460038a0180549096959460ff908116949392169087906112d790612aad565b80601f016020809104026020016040519081016040528092919081815260200182805461130390612aad565b80156113505780601f1061132557610100808354040283529160200191611350565b820191906000526020600020905b81548152906001019060200180831161133357829003601f168201915b505050505096509a509a509a509a509a509a509a509a509a509a50509193959799509193959799565b611381612323565b6000828152600660205260409020600981015460ff166113b35760405162461bcd60e51b815260040161072a90612c37565b600681015460ff166114075760405162461bcd60e51b815260206004820152601760248201527f4d61726b6574206e6f7420796574207265736f6c766564000000000000000000604482015260640161072a565b6000611417848360070154611ed0565b6008546040519192506114679163ffffffff9091169061143b908490602001612556565b60408051601f198184030181526000808452606084018352346020850190815292840152919033611dc5565b60078301546008546040805192835263ffffffff909116602083015291945085917fc88402aebbfa5f5c11d0e92085e0c6640ae522437553f29b72edbe604a0a7e11910160405180910390a25050919050565b6114c2611bb5565b6001600160a01b0381166114ec57604051631e4fbdf760e01b81526000600482015260240161072a565b6114f581611c37565b50565b6000818152600660205260409020600981015460ff1661152a5760405162461bcd60e51b815260040161072a90612c37565b600681015460ff16156115795760405162461bcd60e51b815260206004820152601760248201527613585c9ad95d08185b1c9958591e481c995cdbdb1d9959604a1b604482015260640161072a565b6008810154156115cb5760405162461bcd60e51b815260206004820152601c60248201527f536574746c656d656e7420616c72656164792072657175657374656400000000604482015260640161072a565b806001015481600201546115df9190612c7c565b6003546040516370a0823160e01b81523060048201526001600160a01b03909116906370a0823190602401602060405180830381865afa158015611627573d6000803e3d6000fd5b505050506040513d601f19601f8201168201806040525081019061164b9190612a94565b10156116995760405162461bcd60e51b815260206004820152601960248201527f496e73756666696369656e7420574554482062616c616e636500000000000000604482015260640161072a565b426008820155600354600454600183015460028401546001600160a01b039384169363095ea7b39316916116cc91612c7c565b6040516001600160e01b031960e085901b1681526001600160a01b03909216600483015260248201526044016020604051808303816000875af1158015611717573d6000803e3d6000fd5b505050506040513d601f19601f8201168201806040525081019061173b9190612fd7565b61177e5760405162461bcd60e51b815260206004820152601460248201527315d1551208185c1c1c9bdd985b0819985a5b195960621b604482015260640161072a565b60048054600883015460018401546040516311df92f160e01b81526001600160a01b03909316936311df92f1936117e3936000805160206134388339815191529390926003890192737b79995e5f793a07bc00c21412e50ecae098e7f9929101612ff4565b6020604051808303816000875af1158015611802573d6000803e3d6000fd5b505050506040513d601f19601f820116820180604052508101906118269190612a94565b5060048054600883015460028401546040516356ad3aad60e11b81526001600160a01b039093169363ad5a755a9361187593600080516020613438833981519152939092600389019201613030565b6020604051808303816000875af1158015611894573d6000803e3d6000fd5b505050506040513d601f19601f820116820180604052508101906118b89190612a94565b506004805460088301548383015460405163239e22ff60e11b81526001600160a01b039093169363473c45fe9361190693600080516020613438833981519152939092600389019201613030565b600060405180830381600087803b15801561192057600080fd5b505af1158015611934573d6000803e3d6000fd5b505050506009810154610100900460ff1615611a475760048054600883015460405163120698af60e01b81526001600160a01b039092169263120698af9261199392600080516020613438833981519152929091600388019101613060565b600060405180830381600087803b1580156119ad57600080fd5b505af11580156119c1573d6000803e3d6000fd5b505060048054600885015460405163f327b07560e01b81526001600160a01b03909216945063f327b0759350611a149260008051602061343883398151915292600388019160009182916001910161307f565b600060405180830381600087803b158015611a2e57600080fd5b505af1158015611a42573d6000803e3d6000fd5b505050505b817f1bac1f5e61d784f9a7419341739a059a77d9e9402717546a273a13197ac71706826003018360080154604051611a809291906130be565b60405180910390a25050565b600360009054906101000a90046001600160a01b03166001600160a01b031663d0e30db0346040518263ffffffff1660e01b81526004016000604051808303818588803b158015610bb357600080fd5b6040805180820190915260008082526020820152600084604051602001611b039190612556565b604051602081830303815290604052905061123e86828686611f1c565b6000602082018035906001908390611b3890866126ca565b63ffffffff1681526020810191909152604001600020541492915050565b63ffffffff8116600090815260016020526040812054806108825760405163f6ff4fb760e01b815263ffffffff8416600482015260240161072a565b611b9e848601866130e0565b600590611bab9082612ef9565b5050505050505050565b6000546001600160a01b031633146108705760405163118cdaa760e01b815233600482015260240161072a565b63ffffffff8216600081815260016020908152604091829020849055815192835282018390527f238399d427b947898edb290f5ff0f9109849b1c3ba196a42e35f00c50a54b98b910160405180910390a15050565b600080546001600160a01b038381166001600160a01b0319831681178455604051919092169283917f8be0079c531659141344cd1fd0a4f28419497f9722a3daafe3b4186f6b6457e09190a35050565b60005b8151811015611d5e57611cb9828281518110611ca857611ca8613114565b602002602001015160400151611d99565b818181518110611ccb57611ccb613114565b60200260200101516040015160026000848481518110611ced57611ced613114565b60200260200101516000015163ffffffff1663ffffffff1681526020019081526020016000206000848481518110611d2757611d27613114565b60200260200101516020015161ffff1661ffff1681526020019081526020016000209081611d559190612ef9565b50600101611c8a565b507fbe4864a8e820971c0247f5992e2da559595f7bf076a21cb5928d443d2a13b67481604051611d8e919061312a565b60405180910390a150565b600281015161ffff81166003146107b55781604051639a6d49cd60e01b815260040161072a9190612556565b611dcd612323565b6000611ddc8460000151611ffd565b602085015190915015611df657611df68460200151612025565b7f00000000000000000000000000000000000000000000000000000000000000006001600160a01b0316632637a450826040518060a001604052808b63ffffffff168152602001611e468c611b56565b81526020018a815260200189815260200160008960200151111515815250866040518463ffffffff1660e01b8152600401611e829291906131b5565b60806040518083038185885af1158015611ea0573d6000803e3d6000fd5b50505050506040513d601f19601f82011682018060405250810190611ec5919061327c565b979650505050505050565b6000828152600660205260409020606090611eea84612107565b611ef384612207565b604051602001611f049291906132d2565b60405160208183030381529060405291505092915050565b60408051808201909152600080825260208201527f00000000000000000000000000000000000000000000000000000000000000006001600160a01b031663ddc28c586040518060a001604052808863ffffffff168152602001611f7f89611b56565b8152602001878152602001868152602001851515815250306040518363ffffffff1660e01b8152600401611fb49291906131b5565b6040805180830381865afa158015611fd0573d6000803e3d6000fd5b505050506040513d601f19601f82011682018060405250810190611ff4919061334f565b95945050505050565b6000813414612021576040516304fb820960e51b815234600482015260240161072a565b5090565b60007f00000000000000000000000000000000000000000000000000000000000000006001600160a01b031663e4fe1d946040518163ffffffff1660e01b8152600401602060405180830381865afa158015612085573d6000803e3d6000fd5b505050506040513d601f19601f820116820180604052508101906120a9919061336b565b90506001600160a01b0381166120d2576040516329b99a9560e11b815260040160405180910390fd5b6107b56001600160a01b038216337f000000000000000000000000000000000000000000000000000000000000000085612252565b60608160000361212e5750506040805180820190915260018152600360fc1b602082015290565b8160005b8115612158578061214281613388565b91506121519050600a836133b7565b9150612132565b6000816001600160401b0381111561217257612172612762565b6040519080825280601f01601f19166020018201604052801561219c576020820181803683370190505b5090505b8415610895576121b16001836133cb565b91506121be600a866133de565b6121c9906030612c7c565b60f81b8183815181106121de576121de613114565b60200101906001600160f81b031916908160001a905350612200600a866133b7565b94506121a0565b606060008212156122495761222361221e836133f2565b612107565b604051602001612233919061340e565b6040516020818303038152906040529050919050565b61088282612107565b604080516001600160a01b0385811660248301528416604482015260648082018490528251808303909101815260849091019091526020810180516001600160e01b03166323b872dd60e01b1790526122ac9085906122b2565b50505050565b600080602060008451602086016000885af1806122d5576040513d6000823e3d81fd5b50506000513d915081156122ed5780600114156122fa565b6001600160a01b0384163b155b156122ac57604051635274afe760e01b81526001600160a01b038516600482015260240161072a565b60405180606001604052806000801916815260200160006001600160401b03168152602001612365604051806040016040528060008152602001600081525090565b905290565b60006060828403121561237c57600080fd5b50919050565b60008083601f84011261239457600080fd5b5081356001600160401b038111156123ab57600080fd5b6020830191508360208285010111156123c357600080fd5b9250929050565b6001600160a01b03811681146114f557600080fd5b600080600080600080600060e0888a0312156123fa57600080fd5b612404898961236a565b96506060880135955060808801356001600160401b038082111561242757600080fd5b6124338b838c01612382565b909750955060a08a01359150612448826123ca565b90935060c0890135908082111561245e57600080fd5b5061246b8a828b01612382565b989b979a50959850939692959293505050565b803563ffffffff8116811461249257600080fd5b919050565b600080604083850312156124aa57600080fd5b6124b38361247e565b946020939093013593505050565b803561ffff8116811461249257600080fd5b600080604083850312156124e657600080fd5b6124ef8361247e565b91506124fd602084016124c1565b90509250929050565b60005b83811015612521578181015183820152602001612509565b50506000910152565b60008151808452612542816020860160208601612506565b601f01601f19169290920160200192915050565b602081526000612569602083018461252a565b9392505050565b60008060008060a0858703121561258657600080fd5b612590868661236a565b935060608501356001600160401b038111156125ab57600080fd5b6125b787828801612382565b90945092505060808501356125cb816123ca565b939692955090935050565b6000602082840312156125e857600080fd5b5035919050565b60006101608d83528c60208401528b60408401528060608401526126158184018c61252a565b608084019a909a52505060a081019690965293151560c086015260e08501929092526101008401521515610120830152151561014090910152949350505050565b6000806020838503121561266957600080fd5b82356001600160401b038082111561268057600080fd5b818501915085601f83011261269457600080fd5b8135818111156126a357600080fd5b8660208260051b85010111156126b857600080fd5b60209290920196919550909350505050565b6000602082840312156126dc57600080fd5b6125698261247e565b600080600080606085870312156126fb57600080fd5b6127048561247e565b9350612712602086016124c1565b925060408501356001600160401b0381111561272d57600080fd5b61273987828801612382565b95989497509550505050565b60006020828403121561275757600080fd5b8135612569816123ca565b634e487b7160e01b600052604160045260246000fd5b604051606081016001600160401b038111828210171561279a5761279a612762565b60405290565b60405161014081016001600160401b038111828210171561279a5761279a612762565b604051601f8201601f191681016001600160401b03811182821017156127eb576127eb612762565b604052919050565b600082601f83011261280457600080fd5b81356001600160401b0381111561281d5761281d612762565b612830601f8201601f19166020016127c3565b81815284602083860101111561284557600080fd5b816020850160208301376000918101602001919091529392505050565b60008060008060008060c0878903121561287b57600080fd5b86359550602087013594506040870135935060608701356001600160401b038111156128a657600080fd5b6128b289828a016127f3565b9350506080870135915060a087013590509295509295509295565b600080600080606085870312156128e357600080fd5b6128ec8561247e565b935060208501356001600160401b038082111561290857600080fd5b612914888389016127f3565b9450604087013591508082111561292a57600080fd5b5061273987828801612382565b6000608082019050825182526001600160401b0360208401511660208301526040830151612972604084018280518252602090810151910152565b5092915050565b60006101408c83528b60208401528a604084015280606084015261299f8184018b61252a565b6080840199909952505060a081019590955292151560c085015260e0840191909152610100830152151561012090910152949350505050565b80151581146114f557600080fd5b600080600080608085870312156129fc57600080fd5b612a058561247e565b935060208501356001600160401b0380821115612a2157600080fd5b612a2d888389016127f3565b94506040870135915080821115612a4357600080fd5b50612a50878288016127f3565b92505060608501356125cb816129d8565b815181526020808301519082015260408101610882565b600060608284031215612a8a57600080fd5b612569838361236a565b600060208284031215612aa657600080fd5b5051919050565b600181811c90821680612ac157607f821691505b60208210810361237c57634e487b7160e01b600052602260045260246000fd5b60006001600160401b0380841115612afb57612afb612762565b8360051b6020612b0c8183016127c3565b868152918501918181019036841115612b2457600080fd5b865b84811015612baa57803586811115612b3e5760008081fd5b88016060368290031215612b525760008081fd5b612b5a612778565b612b638261247e565b8152612b708683016124c1565b8682015260408083013589811115612b885760008081fd5b612b94368286016127f3565b9183019190915250845250918301918301612b26565b50979650505050505050565b60008085851115612bc657600080fd5b83861115612bd357600080fd5b5050820193919092039150565b60008451612bf2818460208901612506565b8201838582376000930192835250909392505050565b60208152816020820152818360408301376000818301604090810191909152601f909201601f19160101919050565b60208082526015908201527413585c9ad95d08191bd95cc81b9bdd08195e1a5cdd605a1b604082015260600190565b634e487b7160e01b600052601160045260246000fd5b8082018082111561088257610882612c66565b60008154612c9c81612aad565b808552602060018381168015612cb95760018114612cd357612d01565b60ff1985168884015283151560051b880183019550612d01565b866000528260002060005b85811015612cf95781548a8201860152908301908401612cde565b890184019650505b505050505092915050565b60018060a01b038516815283602082015282604082015260806060820152600061123e6080830184612c8f565b8051612492816123ca565b8051612492816129d8565b600060e08284031215612d6157600080fd5b60405160e081018181106001600160401b0382111715612d8357612d83612762565b80604052508091508251612d96816129d8565b81526020830151612da6816129d8565b60208201526040830151612db9816129d8565b60408201526060830151612dcc816129d8565b6060820152612ddd60808401612d44565b608082015260a083015160a082015260c083015160c08201525092915050565b60006102008284031215612e1057600080fd5b612e186127a0565b612e2183612d39565b8152612e2f60208401612d39565b6020820152612e4060408401612d39565b6040820152612e5160608401612d44565b6060820152612e638460808501612d4f565b608082015261016083015160a082015261018083015160c08201526101a083015160e08201526101c08301516101008201526101e09092015161012083015250919050565b601f821115612ef4576000816000526020600020601f850160051c81016020861015612ed15750805b601f850160051c820191505b81811015612ef057828155600101612edd565b5050505b505050565b81516001600160401b03811115612f1257612f12612762565b612f2681612f208454612aad565b84612ea8565b602080601f831160018114612f5b5760008415612f435750858301515b600019600386901b1c1916600185901b178555612ef0565b600085815260208120601f198616915b82811015612f8a57888601518255948401946001909101908401612f6b565b5085821015612fa85787850151600019600388901b60f8161c191681555b5050505050600190811b01905550565b838152826020820152606060408201526000611ff4606083018461252a565b600060208284031215612fe957600080fd5b8151612569816129d8565b85815284602082015260a06040820152600061301360a0830186612c8f565b6001600160a01b0394909416606083015250608001529392505050565b84815283602082015260806040820152600061304f6080830185612c8f565b905082606083015295945050505050565b838152826020820152606060408201526000611ff46060830184612c8f565b86815285602082015260c06040820152600061309e60c0830187612c8f565b9415156060830152509115156080830152151560a0909101529392505050565b6040815260006130d16040830185612c8f565b90508260208301529392505050565b6000602082840312156130f257600080fd5b81356001600160401b0381111561310857600080fd5b610895848285016127f3565b634e487b7160e01b600052603260045260246000fd5b600060208083018184528085518083526040925060408601915060408160051b87010184880160005b838110156131a757888303603f190185528151805163ffffffff1684528781015161ffff168885015286015160608785018190526131938186018361252a565b968901969450505090860190600101613153565b509098975050505050505050565b6040815263ffffffff8351166040820152602083015160608201526000604084015160a060808401526131eb60e084018261252a565b90506060850151603f198483030160a0850152613208828261252a565b60809690960151151560c08501525050506001600160a01b039190911660209091015290565b60006040828403121561324057600080fd5b604051604081018181106001600160401b038211171561326257613262612762565b604052825181526020928301519281019290925250919050565b60006080828403121561328e57600080fd5b613296612778565b8251815260208301516001600160401b03811681146132b457600080fd5b60208201526132c6846040850161322e565b60408201529392505050565b6b3d9136b0b935b2ba24b2111d60a11b815282516000906132fa81600c850160208801612506565b6a161137baba31b7b6b2911d60a91b600c918401918201528351613325816017840160208801612506565b702c227265736f6c766564223a747275657d60781b60179290910191820152602801949350505050565b60006040828403121561336157600080fd5b612569838361322e565b60006020828403121561337d57600080fd5b8151612569816123ca565b60006001820161339a5761339a612c66565b5060010190565b634e487b7160e01b600052601260045260246000fd5b6000826133c6576133c66133a1565b500490565b8181038181111561088257610882612c66565b6000826133ed576133ed6133a1565b500690565b6000600160ff1b820161340757613407612c66565b5060000390565b602d60f81b81526000825161342a816001850160208701612506565b919091016001019291505056fe4d554c5449504c455f43484f4943455f51554552590000000000000000000000a264697066735822122036b32fb7531c1a496faa0fbb1be97a60c227424106a778478aba56ab2c18a6ed64736f6c63430008160033",
  "devdoc": {
    "errors": {
      "OwnableInvalidOwner(address)": [
        {
          "details": "The owner is not a valid owner account. (eg. `address(0)`)"
        }
      ],
      "OwnableUnauthorizedAccount(address)": [
        {
          "details": "The caller account is not authorized to perform an operation."
        }
      ],
      "SafeERC20FailedOperation(address)": [
        {
          "details": "An operation with an ERC-20 token failed."
        }
      ]
    },
    "kind": "dev",
    "methods": {
      "allowInitializePath((uint32,bytes32,uint64))": {
        "details": "This indicates to the endpoint that the OApp has enabled msgs for this particular path to be received.This defaults to assuming if a peer has been set, its initialized. Can be overridden by the OApp if there is other logic to determine this.",
        "params": {
          "origin": "The origin information containing the source endpoint and sender address."
        },
        "returns": {
          "_0": "Whether the path has been initialized."
        }
      },
      "combineOptions(uint32,uint16,bytes)": {
        "details": "If there is an enforced lzReceive option: - {gasLimit: 200k, msg.value: 1 ether} AND a caller supplies a lzReceive option: {gasLimit: 100k, msg.value: 0.5 ether} - The resulting options will be {gasLimit: 300k, msg.value: 1.5 ether} when the message is executed on the remote lzReceive() function.This presence of duplicated options is handled off-chain in the verifier/executor.",
        "params": {
          "_eid": "The endpoint ID.",
          "_extraOptions": "Additional options passed by the caller.",
          "_msgType": "The OAPP message type."
        },
        "returns": {
          "_0": "options The combination of caller specified options AND enforced options."
        }
      },
      "isComposeMsgSender((uint32,bytes32,uint64),bytes,address)": {
        "details": "_origin The origin information containing the source endpoint and sender address.  - srcEid: The source chain endpoint ID.  - sender: The sender address on the src chain.  - nonce: The nonce of the message._message The lzReceive payload.Applications can optionally choose to implement separate composeMsg senders that are NOT the bridging layer.The default sender IS the OAppReceiver implementer.",
        "params": {
          "_sender": "The sender address."
        },
        "returns": {
          "_0": "isSender Is a valid sender."
        }
      },
      "lzReceive((uint32,bytes32,uint64),bytes32,bytes,address,bytes)": {
        "details": "Entry point for receiving messages or packets from the endpoint.Entry point for receiving msg/packet from the LayerZero endpoint.",
        "params": {
          "_executor": "The address of the executor for the received message.",
          "_extraData": "Additional arbitrary data provided by the corresponding executor.",
          "_guid": "The unique identifier for the received LayerZero message.",
          "_message": "The payload of the received message.",
          "_origin": "The origin information containing the source endpoint and sender address.  - srcEid: The source chain endpoint ID.  - sender: The sender address on the src chain.  - nonce: The nonce of the message."
        }
      },
      "nextNonce(uint32,bytes32)": {
        "details": "_srcEid The source endpoint ID._sender The sender address.The path nonce starts from 1. If 0 is returned it means that there is NO nonce ordered enforcement.Is required by the off-chain executor to determine the OApp expects msg execution is ordered.This is also enforced by the OApp.By default this is NOT enabled. ie. nextNonce is hardcoded to return 0.",
        "returns": {
          "nonce": "The next nonce."
        }
      },
      "oAppVersion()": {
        "returns": {
          "receiverVersion": "The version of the OAppReceiver.sol implementation.",
          "senderVersion": "The version of the OAppSender.sol implementation."
        }
      },
      "owner()": {
        "details": "Returns the address of the current owner."
      },
      "quote(uint32,string,bytes,bool)": {
        "params": {
          "_dstEid": "Destination chain's endpoint ID.",
          "_message": "The message.",
          "_options": "Message execution options (e.g., for sending gas to destination).",
          "_payInLzToken": "Whether to return fee in ZRO token."
        },
        "returns": {
          "fee": "A `MessagingFee` struct containing the calculated gas fee in either the native token or ZRO token."
        }
      },
      "renounceOwnership()": {
        "details": "Leaves the contract without owner. It will not be possible to call `onlyOwner` functions. Can only be called by the current owner. NOTE: Renouncing ownership will leave the contract without an owner, thereby disabling any functionality that is only available to the owner."
      },
      "send(uint32,string,bytes)": {
        "details": "Encodes the message as bytes and sends it using the `_lzSend` internal function.",
        "params": {
          "_dstEid": "The endpoint ID of the destination chain.",
          "_message": "The message string to be sent.",
          "_options": "Additional options for message execution."
        },
        "returns": {
          "receipt": "A `MessagingReceipt` struct containing details of the message sent."
        }
      },
      "sendMarketResult(uint256)": {
        "params": {
          "marketId": "The ID of the market to send"
        },
        "returns": {
          "receipt": "The messaging receipt"
        }
      },
      "setDelegate(address)": {
        "details": "Only the owner/admin of the OApp can call this function.Provides the ability for a delegate to set configs, on behalf of the OApp, directly on the Endpoint contract.",
        "params": {
          "_delegate": "The address of the delegate to be set."
        }
      },
      "setEnforcedOptions((uint32,uint16,bytes)[])": {
        "details": "Sets the enforced options for specific endpoint and message type combinations.Only the owner/admin of the OApp can call this function.Provides a way for the OApp to enforce things like paying for PreCrime, AND/OR minimum dst lzReceive gas amounts etc.These enforced options can vary as the potential options/execution on the remote may differ as per the msgType. eg. Amount of lzReceive() gas necessary to deliver a lzCompose() message adds overhead you dont want to pay if you are only making a standard LayerZero message ie. lzReceive() WITHOUT sendCompose().",
        "params": {
          "_enforcedOptions": "An array of EnforcedOptionParam structures specifying enforced options."
        }
      },
      "setPeer(uint32,bytes32)": {
        "details": "Only the owner/admin of the OApp can call this function.Indicates that the peer is trusted to send LayerZero messages to this OApp.Set this to bytes32(0) to remove the peer address.Peer is a bytes32 to accommodate non-evm chains.",
        "params": {
          "_eid": "The endpoint ID.",
          "_peer": "The address of the peer to be associated with the corresponding endpoint."
        }
      },
      "transferOwnership(address)": {
        "details": "Transfers ownership of the contract to a new account (`newOwner`). Can only be called by the current owner."
      }
    },
    "version": 1
  },
  "userdoc": {
    "kind": "user",
    "methods": {
      "allowInitializePath((uint32,bytes32,uint64))": {
        "notice": "Checks if the path initialization is allowed based on the provided origin."
      },
      "combineOptions(uint32,uint16,bytes)": {
        "notice": "Combines options for a given endpoint and message type."
      },
      "endpoint()": {
        "notice": "Retrieves the LayerZero endpoint associated with the OApp."
      },
      "isComposeMsgSender((uint32,bytes32,uint64),bytes,address)": {
        "notice": "Indicates whether an address is an approved composeMsg sender to the Endpoint."
      },
      "nextNonce(uint32,bytes32)": {
        "notice": "Retrieves the next nonce for a given source endpoint and sender address."
      },
      "oAppVersion()": {
        "notice": "Retrieves the OApp version information."
      },
      "peers(uint32)": {
        "notice": "Retrieves the peer (OApp) associated with a corresponding endpoint."
      },
      "quote(uint32,string,bytes,bool)": {
        "notice": "Quotes the gas needed to pay for the full omnichain transaction in native gas or ZRO token."
      },
      "send(uint32,string,bytes)": {
        "notice": "Sends a message from the source chain to a destination chain."
      },
      "sendMarketResult(uint256)": {
        "notice": "Sends a market result to Flow network"
      },
      "setDelegate(address)": {
        "notice": "Sets the delegate address for the OApp."
      },
      "setPeer(uint32,bytes32)": {
        "notice": "Sets the peer address (OApp instance) for a corresponding endpoint."
      }
    },
    "version": 1
  },
  "storageLayout": {
    "storage": [
      {
        "astId": 1533,
        "contract": "contracts/SepoliaContract.sol:SepoliaContract",
        "label": "_owner",
        "offset": 0,
        "slot": "0",
        "type": "t_address"
      },
      {
        "astId": 785,
        "contract": "contracts/SepoliaContract.sol:SepoliaContract",
        "label": "peers",
        "offset": 0,
        "slot": "1",
        "type": "t_mapping(t_uint32,t_bytes32)"
      },
      {
        "astId": 1381,
        "contract": "contracts/SepoliaContract.sol:SepoliaContract",
        "label": "enforcedOptions",
        "offset": 0,
        "slot": "2",
        "type": "t_mapping(t_uint32,t_mapping(t_uint16,t_bytes_storage))"
      },
      {
        "astId": 4663,
        "contract": "contracts/SepoliaContract.sol:SepoliaContract",
        "label": "weth",
        "offset": 0,
        "slot": "3",
        "type": "t_contract(IWETH)4650"
      },
      {
        "astId": 4669,
        "contract": "contracts/SepoliaContract.sol:SepoliaContract",
        "label": "oo",
        "offset": 0,
        "slot": "4",
        "type": "t_contract(OptimisticOracleV2Interface)2677"
      },
      {
        "astId": 4692,
        "contract": "contracts/SepoliaContract.sol:SepoliaContract",
        "label": "data",
        "offset": 0,
        "slot": "5",
        "type": "t_string_storage"
      },
      {
        "astId": 4720,
        "contract": "contracts/SepoliaContract.sol:SepoliaContract",
        "label": "markets",
        "offset": 0,
        "slot": "6",
        "type": "t_mapping(t_uint256,t_struct(Market)4715_storage)"
      },
      {
        "astId": 4722,
        "contract": "contracts/SepoliaContract.sol:SepoliaContract",
        "label": "marketCount",
        "offset": 0,
        "slot": "7",
        "type": "t_uint256"
      },
      {
        "astId": 4757,
        "contract": "contracts/SepoliaContract.sol:SepoliaContract",
        "label": "flowEndpointId",
        "offset": 0,
        "slot": "8",
        "type": "t_uint32"
      }
    ],
    "types": {
      "t_address": {
        "encoding": "inplace",
        "label": "address",
        "numberOfBytes": "20"
      },
      "t_bool": {
        "encoding": "inplace",
        "label": "bool",
        "numberOfBytes": "1"
      },
      "t_bytes32": {
        "encoding": "inplace",
        "label": "bytes32",
        "numberOfBytes": "32"
      },
      "t_bytes_storage": {
        "encoding": "bytes",
        "label": "bytes",
        "numberOfBytes": "32"
      },
      "t_contract(IWETH)4650": {
        "encoding": "inplace",
        "label": "contract IWETH",
        "numberOfBytes": "20"
      },
      "t_contract(OptimisticOracleV2Interface)2677": {
        "encoding": "inplace",
        "label": "contract OptimisticOracleV2Interface",
        "numberOfBytes": "20"
      },
      "t_int256": {
        "encoding": "inplace",
        "label": "int256",
        "numberOfBytes": "32"
      },
      "t_mapping(t_uint16,t_bytes_storage)": {
        "encoding": "mapping",
        "key": "t_uint16",
        "label": "mapping(uint16 => bytes)",
        "numberOfBytes": "32",
        "value": "t_bytes_storage"
      },
      "t_mapping(t_uint256,t_struct(Market)4715_storage)": {
        "encoding": "mapping",
        "key": "t_uint256",
        "label": "mapping(uint256 => struct SepoliaContract.Market)",
        "numberOfBytes": "32",
        "value": "t_struct(Market)4715_storage"
      },
      "t_mapping(t_uint32,t_bytes32)": {
        "encoding": "mapping",
        "key": "t_uint32",
        "label": "mapping(uint32 => bytes32)",
        "numberOfBytes": "32",
        "value": "t_bytes32"
      },
      "t_mapping(t_uint32,t_mapping(t_uint16,t_bytes_storage))": {
        "encoding": "mapping",
        "key": "t_uint32",
        "label": "mapping(uint32 => mapping(uint16 => bytes))",
        "numberOfBytes": "32",
        "value": "t_mapping(t_uint16,t_bytes_storage)"
      },
      "t_string_storage": {
        "encoding": "bytes",
        "label": "string",
        "numberOfBytes": "32"
      },
      "t_struct(Market)4715_storage": {
        "encoding": "inplace",
        "label": "struct SepoliaContract.Market",
        "members": [
          {
            "astId": 4694,
            "contract": "contracts/SepoliaContract.sol:SepoliaContract",
            "label": "marketId",
            "offset": 0,
            "slot": "0",
            "type": "t_uint256"
          },
          {
            "astId": 4696,
            "contract": "contracts/SepoliaContract.sol:SepoliaContract",
            "label": "reward",
            "offset": 0,
            "slot": "1",
            "type": "t_uint256"
          },
          {
            "astId": 4698,
            "contract": "contracts/SepoliaContract.sol:SepoliaContract",
            "label": "bond",
            "offset": 0,
            "slot": "2",
            "type": "t_uint256"
          },
          {
            "astId": 4700,
            "contract": "contracts/SepoliaContract.sol:SepoliaContract",
            "label": "questionText",
            "offset": 0,
            "slot": "3",
            "type": "t_bytes_storage"
          },
          {
            "astId": 4702,
            "contract": "contracts/SepoliaContract.sol:SepoliaContract",
            "label": "verificationTime",
            "offset": 0,
            "slot": "4",
            "type": "t_uint256"
          },
          {
            "astId": 4704,
            "contract": "contracts/SepoliaContract.sol:SepoliaContract",
            "label": "optionCount",
            "offset": 0,
            "slot": "5",
            "type": "t_uint256"
          },
          {
            "astId": 4706,
            "contract": "contracts/SepoliaContract.sol:SepoliaContract",
            "label": "isResolved",
            "offset": 0,
            "slot": "6",
            "type": "t_bool"
          },
          {
            "astId": 4708,
            "contract": "contracts/SepoliaContract.sol:SepoliaContract",
            "label": "outcome",
            "offset": 0,
            "slot": "7",
            "type": "t_int256"
          },
          {
            "astId": 4710,
            "contract": "contracts/SepoliaContract.sol:SepoliaContract",
            "label": "requestTime",
            "offset": 0,
            "slot": "8",
            "type": "t_uint256"
          },
          {
            "astId": 4712,
            "contract": "contracts/SepoliaContract.sol:SepoliaContract",
            "label": "exists",
            "offset": 0,
            "slot": "9",
            "type": "t_bool"
          },
          {
            "astId": 4714,
            "contract": "contracts/SepoliaContract.sol:SepoliaContract",
            "label": "isEventBased",
            "offset": 1,
            "slot": "9",
            "type": "t_bool"
          }
        ],
        "numberOfBytes": "320"
      },
      "t_uint16": {
        "encoding": "inplace",
        "label": "uint16",
        "numberOfBytes": "2"
      },
      "t_uint256": {
        "encoding": "inplace",
        "label": "uint256",
        "numberOfBytes": "32"
      },
      "t_uint32": {
        "encoding": "inplace",
        "label": "uint32",
        "numberOfBytes": "4"
      }
    }
  }
}