{
  "address": "0x654536Bbec1BA8eC03d90d9C77e70efcBD80791A",
  "abi": [
    {
      "inputs": [
        {
          "internalType": "address",
          "name": "_endpoint",
          "type": "address"
        },
        {
          "internalType": "address",
          "name": "_delegate",
          "type": "address"
        }
      ],
      "stateMutability": "nonpayable",
      "type": "constructor"
    },
    {
      "inputs": [],
      "name": "InvalidDelegate",
      "type": "error"
    },
    {
      "inputs": [],
      "name": "InvalidEndpointCall",
      "type": "error"
    },
    {
      "inputs": [
        {
          "internalType": "bytes",
          "name": "options",
          "type": "bytes"
        }
      ],
      "name": "InvalidOptions",
      "type": "error"
    },
    {
      "inputs": [],
      "name": "LzTokenUnavailable",
      "type": "error"
    },
    {
      "inputs": [
        {
          "internalType": "uint32",
          "name": "eid",
          "type": "uint32"
        }
      ],
      "name": "NoPeer",
      "type": "error"
    },
    {
      "inputs": [
        {
          "internalType": "uint256",
          "name": "msgValue",
          "type": "uint256"
        }
      ],
      "name": "NotEnoughNative",
      "type": "error"
    },
    {
      "inputs": [
        {
          "internalType": "address",
          "name": "addr",
          "type": "address"
        }
      ],
      "name": "OnlyEndpoint",
      "type": "error"
    },
    {
      "inputs": [
        {
          "internalType": "uint32",
          "name": "eid",
          "type": "uint32"
        },
        {
          "internalType": "bytes32",
          "name": "sender",
          "type": "bytes32"
        }
      ],
      "name": "OnlyPeer",
      "type": "error"
    },
    {
      "inputs": [
        {
          "internalType": "address",
          "name": "owner",
          "type": "address"
        }
      ],
      "name": "OwnableInvalidOwner",
      "type": "error"
    },
    {
      "inputs": [
        {
          "internalType": "address",
          "name": "account",
          "type": "address"
        }
      ],
      "name": "OwnableUnauthorizedAccount",
      "type": "error"
    },
    {
      "anonymous": false,
      "inputs": [
        {
          "indexed": false,
          "internalType": "string",
          "name": "newData",
          "type": "string"
        }
      ],
      "name": "DataUpdated",
      "type": "event"
    },
    {
      "anonymous": false,
      "inputs": [
        {
          "components": [
            {
              "internalType": "uint32",
              "name": "eid",
              "type": "uint32"
            },
            {
              "internalType": "uint16",
              "name": "msgType",
              "type": "uint16"
            },
            {
              "internalType": "bytes",
              "name": "options",
              "type": "bytes"
            }
          ],
          "indexed": false,
          "internalType": "struct EnforcedOptionParam[]",
          "name": "_enforcedOptions",
          "type": "tuple[]"
        }
      ],
      "name": "EnforcedOptionSet",
      "type": "event"
    },
    {
      "anonymous": false,
      "inputs": [
        {
          "indexed": false,
          "internalType": "string",
          "name": "question",
          "type": "string"
        },
        {
          "indexed": false,
          "internalType": "uint256",
          "name": "timestamp",
          "type": "uint256"
        }
      ],
      "name": "OracleRequested",
      "type": "event"
    },
    {
      "anonymous": false,
      "inputs": [
        {
          "indexed": true,
          "internalType": "address",
          "name": "previousOwner",
          "type": "address"
        },
        {
          "indexed": true,
          "internalType": "address",
          "name": "newOwner",
          "type": "address"
        }
      ],
      "name": "OwnershipTransferred",
      "type": "event"
    },
    {
      "anonymous": false,
      "inputs": [
        {
          "indexed": false,
          "internalType": "uint32",
          "name": "eid",
          "type": "uint32"
        },
        {
          "indexed": false,
          "internalType": "bytes32",
          "name": "peer",
          "type": "bytes32"
        }
      ],
      "name": "PeerSet",
      "type": "event"
    },
    {
      "inputs": [
        {
          "components": [
            {
              "internalType": "uint32",
              "name": "srcEid",
              "type": "uint32"
            },
            {
              "internalType": "bytes32",
              "name": "sender",
              "type": "bytes32"
            },
            {
              "internalType": "uint64",
              "name": "nonce",
              "type": "uint64"
            }
          ],
          "internalType": "struct Origin",
          "name": "origin",
          "type": "tuple"
        }
      ],
      "name": "allowInitializePath",
      "outputs": [
        {
          "internalType": "bool",
          "name": "",
          "type": "bool"
        }
      ],
      "stateMutability": "view",
      "type": "function"
    },
    {
      "inputs": [
        {
          "internalType": "uint32",
          "name": "_eid",
          "type": "uint32"
        },
        {
          "internalType": "uint16",
          "name": "_msgType",
          "type": "uint16"
        },
        {
          "internalType": "bytes",
          "name": "_extraOptions",
          "type": "bytes"
        }
      ],
      "name": "combineOptions",
      "outputs": [
        {
          "internalType": "bytes",
          "name": "",
          "type": "bytes"
        }
      ],
      "stateMutability": "view",
      "type": "function"
    },
    {
      "inputs": [],
      "name": "createOracleRequest",
      "outputs": [],
      "stateMutability": "nonpayable",
      "type": "function"
    },
    {
      "inputs": [],
      "name": "data",
      "outputs": [
        {
          "internalType": "string",
          "name": "",
          "type": "string"
        }
      ],
      "stateMutability": "view",
      "type": "function"
    },
    {
      "inputs": [],
      "name": "dataReceived",
      "outputs": [
        {
          "internalType": "bool",
          "name": "",
          "type": "bool"
        }
      ],
      "stateMutability": "view",
      "type": "function"
    },
    {
      "inputs": [],
      "name": "depositETH",
      "outputs": [],
      "stateMutability": "payable",
      "type": "function"
    },
    {
      "inputs": [],
      "name": "endpoint",
      "outputs": [
        {
          "internalType": "contract ILayerZeroEndpointV2",
          "name": "",
          "type": "address"
        }
      ],
      "stateMutability": "view",
      "type": "function"
    },
    {
      "inputs": [
        {
          "internalType": "uint32",
          "name": "eid",
          "type": "uint32"
        },
        {
          "internalType": "uint16",
          "name": "msgType",
          "type": "uint16"
        }
      ],
      "name": "enforcedOptions",
      "outputs": [
        {
          "internalType": "bytes",
          "name": "enforcedOption",
          "type": "bytes"
        }
      ],
      "stateMutability": "view",
      "type": "function"
    },
    {
      "inputs": [],
      "name": "getWETHBalance",
      "outputs": [
        {
          "internalType": "uint256",
          "name": "",
          "type": "uint256"
        }
      ],
      "stateMutability": "view",
      "type": "function"
    },
    {
      "inputs": [],
      "name": "hasNewData",
      "outputs": [
        {
          "internalType": "bool",
          "name": "",
          "type": "bool"
        }
      ],
      "stateMutability": "view",
      "type": "function"
    },
    {
      "inputs": [],
      "name": "identifier",
      "outputs": [
        {
          "internalType": "bytes32",
          "name": "",
          "type": "bytes32"
        }
      ],
      "stateMutability": "view",
      "type": "function"
    },
    {
      "inputs": [
        {
          "components": [
            {
              "internalType": "uint32",
              "name": "srcEid",
              "type": "uint32"
            },
            {
              "internalType": "bytes32",
              "name": "sender",
              "type": "bytes32"
            },
            {
              "internalType": "uint64",
              "name": "nonce",
              "type": "uint64"
            }
          ],
          "internalType": "struct Origin",
          "name": "",
          "type": "tuple"
        },
        {
          "internalType": "bytes",
          "name": "",
          "type": "bytes"
        },
        {
          "internalType": "address",
          "name": "_sender",
          "type": "address"
        }
      ],
      "name": "isComposeMsgSender",
      "outputs": [
        {
          "internalType": "bool",
          "name": "",
          "type": "bool"
        }
      ],
      "stateMutability": "view",
      "type": "function"
    },
    {
      "inputs": [
        {
          "components": [
            {
              "internalType": "uint32",
              "name": "srcEid",
              "type": "uint32"
            },
            {
              "internalType": "bytes32",
              "name": "sender",
              "type": "bytes32"
            },
            {
              "internalType": "uint64",
              "name": "nonce",
              "type": "uint64"
            }
          ],
          "internalType": "struct Origin",
          "name": "_origin",
          "type": "tuple"
        },
        {
          "internalType": "bytes32",
          "name": "_guid",
          "type": "bytes32"
        },
        {
          "internalType": "bytes",
          "name": "_message",
          "type": "bytes"
        },
        {
          "internalType": "address",
          "name": "_executor",
          "type": "address"
        },
        {
          "internalType": "bytes",
          "name": "_extraData",
          "type": "bytes"
        }
      ],
      "name": "lzReceive",
      "outputs": [],
      "stateMutability": "payable",
      "type": "function"
    },
    {
      "inputs": [
        {
          "internalType": "uint32",
          "name": "",
          "type": "uint32"
        },
        {
          "internalType": "bytes32",
          "name": "",
          "type": "bytes32"
        }
      ],
      "name": "nextNonce",
      "outputs": [
        {
          "internalType": "uint64",
          "name": "nonce",
          "type": "uint64"
        }
      ],
      "stateMutability": "view",
      "type": "function"
    },
    {
      "inputs": [],
      "name": "oAppVersion",
      "outputs": [
        {
          "internalType": "uint64",
          "name": "senderVersion",
          "type": "uint64"
        },
        {
          "internalType": "uint64",
          "name": "receiverVersion",
          "type": "uint64"
        }
      ],
      "stateMutability": "pure",
      "type": "function"
    },
    {
      "inputs": [],
      "name": "owner",
      "outputs": [
        {
          "internalType": "address",
          "name": "",
          "type": "address"
        }
      ],
      "stateMutability": "view",
      "type": "function"
    },
    {
      "inputs": [
        {
          "internalType": "uint32",
          "name": "eid",
          "type": "uint32"
        }
      ],
      "name": "peers",
      "outputs": [
        {
          "internalType": "bytes32",
          "name": "peer",
          "type": "bytes32"
        }
      ],
      "stateMutability": "view",
      "type": "function"
    },
    {
      "inputs": [],
      "name": "renounceOwnership",
      "outputs": [],
      "stateMutability": "nonpayable",
      "type": "function"
    },
    {
      "inputs": [],
      "name": "requestTime",
      "outputs": [
        {
          "internalType": "uint256",
          "name": "",
          "type": "uint256"
        }
      ],
      "stateMutability": "view",
      "type": "function"
    },
    {
      "inputs": [
        {
          "internalType": "address",
          "name": "_delegate",
          "type": "address"
        }
      ],
      "name": "setDelegate",
      "outputs": [],
      "stateMutability": "nonpayable",
      "type": "function"
    },
    {
      "inputs": [
        {
          "components": [
            {
              "internalType": "uint32",
              "name": "eid",
              "type": "uint32"
            },
            {
              "internalType": "uint16",
              "name": "msgType",
              "type": "uint16"
            },
            {
              "internalType": "bytes",
              "name": "options",
              "type": "bytes"
            }
          ],
          "internalType": "struct EnforcedOptionParam[]",
          "name": "_enforcedOptions",
          "type": "tuple[]"
        }
      ],
      "name": "setEnforcedOptions",
      "outputs": [],
      "stateMutability": "nonpayable",
      "type": "function"
    },
    {
      "inputs": [
        {
          "internalType": "uint32",
          "name": "_eid",
          "type": "uint32"
        },
        {
          "internalType": "bytes32",
          "name": "_peer",
          "type": "bytes32"
        }
      ],
      "name": "setPeer",
      "outputs": [],
      "stateMutability": "nonpayable",
      "type": "function"
    },
    {
      "inputs": [
        {
          "internalType": "address",
          "name": "newOwner",
          "type": "address"
        }
      ],
      "name": "transferOwnership",
      "outputs": [],
      "stateMutability": "nonpayable",
      "type": "function"
    },
    {
      "inputs": [],
      "name": "weth",
      "outputs": [
        {
          "internalType": "contract IWETH",
          "name": "",
          "type": "address"
        }
      ],
      "stateMutability": "view",
      "type": "function"
    },
    {
      "stateMutability": "payable",
      "type": "receive"
    }
  ],
  "transactionHash": "0xc1bbbc2b1ac04655738cc17fbd19fc7cf51a2422c60e5373cf0f9e7afb5b0e3e",
  "args": [
    "0x6EDCE65403992e310A62460808c4b910D972f10f",
    "0x504b635B7E22F8DF7d037cf31639811AE583E9f0"
  ],
  "numDeployments": 4,
  "solcInputHash": "70750dc4f5785eafe4c3f6c9434d5994",
  "bytecode": "0x600380546001600160a01b0319908116737b79995e5f793a07bc00c21412e50ecae098e7f91790915560048054909116739f1263b8f0355673619168b5b8c0248f1d03e88c1790556e5945535f4f525f4e4f5f515545525960881b60055560e0604052601560a09081527f4e6f7468696e67207265636569766564207965742e000000000000000000000060c0526007906200009c90826200029f565b50348015620000aa57600080fd5b5060405162001d8038038062001d80833981016040819052620000cd9162000388565b81818181806001600160a01b0381166200010157604051631e4fbdf760e01b81526000600482015260240160405180910390fd5b6200010c81620001a8565b506001600160a01b0380831660805281166200013b57604051632d618d8160e21b815260040160405180910390fd5b60805160405163ca5eb5e160e01b81526001600160a01b0383811660048301529091169063ca5eb5e190602401600060405180830381600087803b1580156200018357600080fd5b505af115801562000198573d6000803e3d6000fd5b50505050505050505050620003c0565b600080546001600160a01b038381166001600160a01b0319831681178455604051919092169283917f8be0079c531659141344cd1fd0a4f28419497f9722a3daafe3b4186f6b6457e09190a35050565b634e487b7160e01b600052604160045260246000fd5b600181811c908216806200022357607f821691505b6020821081036200024457634e487b7160e01b600052602260045260246000fd5b50919050565b601f8211156200029a576000816000526020600020601f850160051c81016020861015620002755750805b601f850160051c820191505b81811015620002965782815560010162000281565b5050505b505050565b81516001600160401b03811115620002bb57620002bb620001f8565b620002d381620002cc84546200020e565b846200024a565b602080601f8311600181146200030b5760008415620002f25750858301515b600019600386901b1c1916600185901b17855562000296565b600085815260208120601f198616915b828110156200033c578886015182559484019460019091019084016200031b565b50858210156200035b5787850151600019600388901b60f8161c191681555b5050505050600190811b01905550565b80516001600160a01b03811681146200038357600080fd5b919050565b600080604083850312156200039c57600080fd5b620003a7836200036b565b9150620003b7602084016200036b565b90509250929050565b608051611996620003ea600039600081816102dc015281816105440152610bae01526119966000f3fe60806040526004361061014e5760003560e01c806382413eac116100b6578063bc70b3541161006f578063bc70b35414610432578063ca5eb5e114610452578063d7fd0e7714610472578063f2fde38b14610488578063f6326fb3146104a8578063ff7bd03d146104b057600080fd5b806382413eac1461037a5780638da5cb5b1461039a5780639a7d915c146103b8578063add940d7146103cd578063b98bd070146103e5578063bb0b6a531461040557600080fd5b80635535d461116101085780635535d4611461029d5780635e280f11146102ca578063715018a6146102fe57806373d4a13a146103135780637998a1c4146103285780637d25a05e1461033e57600080fd5b8062cbb73b146101be57806313137d65146101e65780631385bb6c146101f957806317442b70146102235780633400288b146102455780633fc8cef31461026557600080fd5b366101b957600360009054906101000a90046001600160a01b03166001600160a01b031663d0e30db0346040518263ffffffff1660e01b81526004016000604051808303818588803b1580156101a357600080fd5b505af11580156101b7573d6000803e3d6000fd5b005b600080fd5b3480156101ca57600080fd5b506101d36104d0565b6040519081526020015b60405180910390f35b6101b76101f4366004611009565b610542565b34801561020557600080fd5b506008546102139060ff1681565b60405190151581526020016101dd565b34801561022f57600080fd5b50604080516001815260026020820152016101dd565b34801561025157600080fd5b506101b76102603660046110bc565b610602565b34801561027157600080fd5b50600354610285906001600160a01b031681565b6040516001600160a01b0390911681526020016101dd565b3480156102a957600080fd5b506102bd6102b83660046110f8565b610618565b6040516101dd919061117b565b3480156102d657600080fd5b506102857f000000000000000000000000000000000000000000000000000000000000000081565b34801561030a57600080fd5b506101b76106bd565b34801561031f57600080fd5b506102bd6106d1565b34801561033457600080fd5b506101d360055481565b34801561034a57600080fd5b506103616103593660046110bc565b600092915050565b60405167ffffffffffffffff90911681526020016101dd565b34801561038657600080fd5b50610213610395366004611195565b6106de565b3480156103a657600080fd5b506000546001600160a01b0316610285565b3480156103c457600080fd5b506101b76106f3565b3480156103d957600080fd5b5060085460ff16610213565b3480156103f157600080fd5b506101b76104003660046111fb565b6109c5565b34801561041157600080fd5b506101d3610420366004611270565b60016020526000908152604090205481565b34801561043e57600080fd5b506102bd61044d36600461128b565b6109df565b34801561045e57600080fd5b506101b761046d3660046112ec565b610b87565b34801561047e57600080fd5b506101d360065481565b34801561049457600080fd5b506101b76104a33660046112ec565b610c0d565b6101b7610c4b565b3480156104bc57600080fd5b506102136104cb366004611307565b610c9b565b6003546040516370a0823160e01b81523060048201526000916001600160a01b0316906370a0823190602401602060405180830381865afa158015610519573d6000803e3d6000fd5b505050506040513d601f19601f8201168201806040525081019061053d9190611323565b905090565b7f00000000000000000000000000000000000000000000000000000000000000006001600160a01b03163314610592576040516391ac5e4f60e01b81523360048201526024015b60405180910390fd5b602087018035906105ac906105a7908a611270565b610cd1565b146105ea576105be6020880188611270565b60405163309afaf360e21b815263ffffffff909116600482015260208801356024820152604401610589565b6105f987878787878787610d13565b50505050505050565b61060a610d7c565b6106148282610da9565b5050565b60026020908152600092835260408084209091529082529020805461063c9061133c565b80601f01602080910402602001604051908101604052809291908181526020018280546106689061133c565b80156106b55780601f1061068a576101008083540402835291602001916106b5565b820191906000526020600020905b81548152906001019060200180831161069857829003601f168201915b505050505081565b6106c5610d7c565b6106cf6000610dfe565b565b6007805461063c9061133c565b6001600160a01b03811630145b949350505050565b60085460ff1661073c5760405162461bcd60e51b8152602060048201526014602482015273139bc819185d18481c9958d95a5d9959081e595d60621b6044820152606401610589565b6003546040516370a0823160e01b815230600482015267016345785d8a0000916001600160a01b0316906370a0823190602401602060405180830381865afa15801561078c573d6000803e3d6000fd5b505050506040513d601f19601f820116820180604052508101906107b09190611323565b10156107fe5760405162461bcd60e51b815260206004820152601960248201527f496e73756666696369656e7420574554482062616c616e6365000000000000006044820152606401610589565b600060076040516020016108129190611370565b60408051808303601f19018152908290526003546004805463095ea7b360e01b85526001600160a01b039081169185019190915267016345785d8a00006024850152919350169063095ea7b3906044016020604051808303816000875af1158015610881573d6000803e3d6000fd5b505050506040513d601f19601f820116820180604052508101906108a59190611423565b6108e85760405162461bcd60e51b815260206004820152601460248201527315d1551208185c1c1c9bdd985b0819985a5b195960621b6044820152606401610589565b426006819055600480546005546040516311df92f160e01b81526001600160a01b03909216936311df92f193610939938791737b79995e5f793a07bc00c21412e50ecae098e7f99160009101611445565b6020604051808303816000875af1158015610958573d6000803e3d6000fd5b505050506040513d601f19601f8201168201806040525081019061097c9190611323565b507f3fd770a96b48db0fda505e5adfe150c8eb575d69498d314109f71f23de6b551c816006546040516109b0929190611481565b60405180910390a1506008805460ff19169055565b6109cd610d7c565b6106146109da828461156b565b610e4e565b63ffffffff8416600090815260026020908152604080832061ffff87168452909152812080546060929190610a139061133c565b80601f0160208091040260200160405190810160405280929190818152602001828054610a3f9061133c565b8015610a8c5780601f10610a6157610100808354040283529160200191610a8c565b820191906000526020600020905b815481529060010190602001808311610a6f57829003601f168201915b505050505090508051600003610adc5783838080601f0160208091040260200160405190810160405280939291908181526020018383808284376000920191909152509294506106eb9350505050565b6000839003610aec5790506106eb565b60028310610b6a57610b3384848080601f016020809104026020016040519081016040528093929190818152602001838380828437600092019190915250610f6092505050565b80610b418460028188611654565b604051602001610b539392919061167e565b6040516020818303038152906040529150506106eb565b8383604051639a6d49cd60e01b81526004016105899291906116a6565b610b8f610d7c565b60405163ca5eb5e160e01b81526001600160a01b0382811660048301527f0000000000000000000000000000000000000000000000000000000000000000169063ca5eb5e190602401600060405180830381600087803b158015610bf257600080fd5b505af1158015610c06573d6000803e3d6000fd5b5050505050565b610c15610d7c565b6001600160a01b038116610c3f57604051631e4fbdf760e01b815260006004820152602401610589565b610c4881610dfe565b50565b600360009054906101000a90046001600160a01b03166001600160a01b031663d0e30db0346040518263ffffffff1660e01b81526004016000604051808303818588803b158015610bf257600080fd5b6000602082018035906001908390610cb39086611270565b63ffffffff1681526020810191909152604001600020541492915050565b63ffffffff811660009081526001602052604081205480610d0d5760405163f6ff4fb760e01b815263ffffffff84166004820152602401610589565b92915050565b610d1f848601866116d5565b600790610d2c908261176f565b506008805460ff191660011790556040517f70a1cfe867989ce2ae7d36e8dfa2d3f6ad43678fe220e15a59c1d503092f941390610d6b9060079061182f565b60405180910390a150505050505050565b6000546001600160a01b031633146106cf5760405163118cdaa760e01b8152336004820152602401610589565b63ffffffff8216600081815260016020908152604091829020849055815192835282018390527f238399d427b947898edb290f5ff0f9109849b1c3ba196a42e35f00c50a54b98b910160405180910390a15050565b600080546001600160a01b038381166001600160a01b0319831681178455604051919092169283917f8be0079c531659141344cd1fd0a4f28419497f9722a3daafe3b4186f6b6457e09190a35050565b60005b8151811015610f2557610e80828281518110610e6f57610e6f6118bf565b602002602001015160400151610f60565b818181518110610e9257610e926118bf565b60200260200101516040015160026000848481518110610eb457610eb46118bf565b60200260200101516000015163ffffffff1663ffffffff1681526020019081526020016000206000848481518110610eee57610eee6118bf565b60200260200101516020015161ffff1661ffff1681526020019081526020016000209081610f1c919061176f565b50600101610e51565b507fbe4864a8e820971c0247f5992e2da559595f7bf076a21cb5928d443d2a13b67481604051610f5591906118d5565b60405180910390a150565b600281015161ffff81166003146106145781604051639a6d49cd60e01b8152600401610589919061117b565b600060608284031215610f9e57600080fd5b50919050565b60008083601f840112610fb657600080fd5b50813567ffffffffffffffff811115610fce57600080fd5b602083019150836020828501011115610fe657600080fd5b9250929050565b80356001600160a01b038116811461100457600080fd5b919050565b600080600080600080600060e0888a03121561102457600080fd5b61102e8989610f8c565b965060608801359550608088013567ffffffffffffffff8082111561105257600080fd5b61105e8b838c01610fa4565b909750955085915061107260a08b01610fed565b945060c08a013591508082111561108857600080fd5b506110958a828b01610fa4565b989b979a50959850939692959293505050565b803563ffffffff8116811461100457600080fd5b600080604083850312156110cf57600080fd5b6110d8836110a8565b946020939093013593505050565b803561ffff8116811461100457600080fd5b6000806040838503121561110b57600080fd5b611114836110a8565b9150611122602084016110e6565b90509250929050565b60005b8381101561114657818101518382015260200161112e565b50506000910152565b6000815180845261116781602086016020860161112b565b601f01601f19169290920160200192915050565b60208152600061118e602083018461114f565b9392505050565b60008060008060a085870312156111ab57600080fd5b6111b58686610f8c565b9350606085013567ffffffffffffffff8111156111d157600080fd5b6111dd87828801610fa4565b90945092506111f0905060808601610fed565b905092959194509250565b6000806020838503121561120e57600080fd5b823567ffffffffffffffff8082111561122657600080fd5b818501915085601f83011261123a57600080fd5b81358181111561124957600080fd5b8660208260051b850101111561125e57600080fd5b60209290920196919550909350505050565b60006020828403121561128257600080fd5b61118e826110a8565b600080600080606085870312156112a157600080fd5b6112aa856110a8565b93506112b8602086016110e6565b9250604085013567ffffffffffffffff8111156112d457600080fd5b6112e087828801610fa4565b95989497509550505050565b6000602082840312156112fe57600080fd5b61118e82610fed565b60006060828403121561131957600080fd5b61118e8383610f8c565b60006020828403121561133557600080fd5b5051919050565b600181811c9082168061135057607f821691505b602082108103610f9e57634e487b7160e01b600052602260045260246000fd5b620289d160ed1b8152600060036000845461138a8161133c565b600182811680156113a257600181146113bd576113f1565b60ff19841660038901526003831515840289010194506113f1565b8860005260208060002060005b858110156113e55781548b82018a01529084019082016113ca565b50505060038389010194505b50507f20413a203120666f72205945532c203020666f72204e4f00000000000000000083525050601701949350505050565b60006020828403121561143557600080fd5b8151801515811461118e57600080fd5b85815284602082015260a06040820152600061146460a083018661114f565b6001600160a01b0394909416606083015250608001529392505050565b604081526000611494604083018561114f565b90508260208301529392505050565b634e487b7160e01b600052604160045260246000fd5b6040516060810167ffffffffffffffff811182821017156114dc576114dc6114a3565b60405290565b604051601f8201601f1916810167ffffffffffffffff8111828210171561150b5761150b6114a3565b604052919050565b600067ffffffffffffffff83111561152d5761152d6114a3565b611540601f8401601f19166020016114e2565b905082815283838301111561155457600080fd5b828260208301376000602084830101529392505050565b600067ffffffffffffffff80841115611586576115866114a3565b8360051b60206115978183016114e2565b8681529185019181810190368411156115af57600080fd5b865b84811015611648578035868111156115c95760008081fd5b880160603682900312156115dd5760008081fd5b6115e56114b9565b6115ee826110a8565b81526115fb8683016110e6565b86820152604080830135898111156116135760008081fd5b929092019136601f8401126116285760008081fd5b611636368435898601611513565b908201528452509183019183016115b1565b50979650505050505050565b6000808585111561166457600080fd5b8386111561167157600080fd5b5050820193919092039150565b6000845161169081846020890161112b565b8201838582376000930192835250909392505050565b60208152816020820152818360408301376000818301604090810191909152601f909201601f19160101919050565b6000602082840312156116e757600080fd5b813567ffffffffffffffff8111156116fe57600080fd5b8201601f8101841361170f57600080fd5b6106eb84823560208401611513565b601f82111561176a576000816000526020600020601f850160051c810160208610156117475750805b601f850160051c820191505b8181101561176657828155600101611753565b5050505b505050565b815167ffffffffffffffff811115611789576117896114a3565b61179d81611797845461133c565b8461171e565b602080601f8311600181146117d257600084156117ba5750858301515b600019600386901b1c1916600185901b178555611766565b600085815260208120601f198616915b82811015611801578886015182559484019460019091019084016117e2565b508582101561181f5787850151600019600388901b60f8161c191681555b5050505050600190811b01905550565b60006020808352600084546118438161133c565b80602087015260406001808416600081146118655760018114611881576118b1565b60ff19851660408a0152604084151560051b8a010195506118b1565b89600052602060002060005b858110156118a85781548b820186015290830190880161188d565b8a016040019650505b509398975050505050505050565b634e487b7160e01b600052603260045260246000fd5b600060208083018184528085518083526040925060408601915060408160051b87010184880160005b8381101561195257888303603f190185528151805163ffffffff1684528781015161ffff1688850152860151606087850181905261193e8186018361114f565b9689019694505050908601906001016118fe565b50909897505050505050505056fea26469706673582212207a1dd0732349191b6cfff6691f46c878cd6db918b6912760ae7ff60749ef171564736f6c63430008160033",
  "devdoc": {
    "errors": {
      "OwnableInvalidOwner(address)": [
        {
          "details": "The owner is not a valid owner account. (eg. `address(0)`)"
        }
      ],
      "OwnableUnauthorizedAccount(address)": [
        {
          "details": "The caller account is not authorized to perform an operation."
        }
      ]
    },
    "kind": "dev",
    "methods": {
      "allowInitializePath((uint32,bytes32,uint64))": {
        "details": "This indicates to the endpoint that the OApp has enabled msgs for this particular path to be received.This defaults to assuming if a peer has been set, its initialized. Can be overridden by the OApp if there is other logic to determine this.",
        "params": {
          "origin": "The origin information containing the source endpoint and sender address."
        },
        "returns": {
          "_0": "Whether the path has been initialized."
        }
      },
      "combineOptions(uint32,uint16,bytes)": {
        "details": "If there is an enforced lzReceive option: - {gasLimit: 200k, msg.value: 1 ether} AND a caller supplies a lzReceive option: {gasLimit: 100k, msg.value: 0.5 ether} - The resulting options will be {gasLimit: 300k, msg.value: 1.5 ether} when the message is executed on the remote lzReceive() function.This presence of duplicated options is handled off-chain in the verifier/executor.",
        "params": {
          "_eid": "The endpoint ID.",
          "_extraOptions": "Additional options passed by the caller.",
          "_msgType": "The OAPP message type."
        },
        "returns": {
          "_0": "options The combination of caller specified options AND enforced options."
        }
      },
      "isComposeMsgSender((uint32,bytes32,uint64),bytes,address)": {
        "details": "_origin The origin information containing the source endpoint and sender address.  - srcEid: The source chain endpoint ID.  - sender: The sender address on the src chain.  - nonce: The nonce of the message._message The lzReceive payload.Applications can optionally choose to implement separate composeMsg senders that are NOT the bridging layer.The default sender IS the OAppReceiver implementer.",
        "params": {
          "_sender": "The sender address."
        },
        "returns": {
          "_0": "isSender Is a valid sender."
        }
      },
      "lzReceive((uint32,bytes32,uint64),bytes32,bytes,address,bytes)": {
        "details": "Entry point for receiving messages or packets from the endpoint.Entry point for receiving msg/packet from the LayerZero endpoint.",
        "params": {
          "_executor": "The address of the executor for the received message.",
          "_extraData": "Additional arbitrary data provided by the corresponding executor.",
          "_guid": "The unique identifier for the received LayerZero message.",
          "_message": "The payload of the received message.",
          "_origin": "The origin information containing the source endpoint and sender address.  - srcEid: The source chain endpoint ID.  - sender: The sender address on the src chain.  - nonce: The nonce of the message."
        }
      },
      "nextNonce(uint32,bytes32)": {
        "details": "_srcEid The source endpoint ID._sender The sender address.The path nonce starts from 1. If 0 is returned it means that there is NO nonce ordered enforcement.Is required by the off-chain executor to determine the OApp expects msg execution is ordered.This is also enforced by the OApp.By default this is NOT enabled. ie. nextNonce is hardcoded to return 0.",
        "returns": {
          "nonce": "The next nonce."
        }
      },
      "oAppVersion()": {
        "returns": {
          "receiverVersion": "The version of the OAppReceiver.sol implementation.",
          "senderVersion": "The version of the OAppSender.sol implementation."
        }
      },
      "owner()": {
        "details": "Returns the address of the current owner."
      },
      "renounceOwnership()": {
        "details": "Leaves the contract without owner. It will not be possible to call `onlyOwner` functions. Can only be called by the current owner. NOTE: Renouncing ownership will leave the contract without an owner, thereby disabling any functionality that is only available to the owner."
      },
      "setDelegate(address)": {
        "details": "Only the owner/admin of the OApp can call this function.Provides the ability for a delegate to set configs, on behalf of the OApp, directly on the Endpoint contract.",
        "params": {
          "_delegate": "The address of the delegate to be set."
        }
      },
      "setEnforcedOptions((uint32,uint16,bytes)[])": {
        "details": "Sets the enforced options for specific endpoint and message type combinations.Only the owner/admin of the OApp can call this function.Provides a way for the OApp to enforce things like paying for PreCrime, AND/OR minimum dst lzReceive gas amounts etc.These enforced options can vary as the potential options/execution on the remote may differ as per the msgType. eg. Amount of lzReceive() gas necessary to deliver a lzCompose() message adds overhead you dont want to pay if you are only making a standard LayerZero message ie. lzReceive() WITHOUT sendCompose().",
        "params": {
          "_enforcedOptions": "An array of EnforcedOptionParam structures specifying enforced options."
        }
      },
      "setPeer(uint32,bytes32)": {
        "details": "Only the owner/admin of the OApp can call this function.Indicates that the peer is trusted to send LayerZero messages to this OApp.Set this to bytes32(0) to remove the peer address.Peer is a bytes32 to accommodate non-evm chains.",
        "params": {
          "_eid": "The endpoint ID.",
          "_peer": "The address of the peer to be associated with the corresponding endpoint."
        }
      },
      "transferOwnership(address)": {
        "details": "Transfers ownership of the contract to a new account (`newOwner`). Can only be called by the current owner."
      }
    },
    "version": 1
  },
  "userdoc": {
    "kind": "user",
    "methods": {
      "allowInitializePath((uint32,bytes32,uint64))": {
        "notice": "Checks if the path initialization is allowed based on the provided origin."
      },
      "combineOptions(uint32,uint16,bytes)": {
        "notice": "Combines options for a given endpoint and message type."
      },
      "endpoint()": {
        "notice": "Retrieves the LayerZero endpoint associated with the OApp."
      },
      "isComposeMsgSender((uint32,bytes32,uint64),bytes,address)": {
        "notice": "Indicates whether an address is an approved composeMsg sender to the Endpoint."
      },
      "nextNonce(uint32,bytes32)": {
        "notice": "Retrieves the next nonce for a given source endpoint and sender address."
      },
      "oAppVersion()": {
        "notice": "Retrieves the OApp version information."
      },
      "peers(uint32)": {
        "notice": "Retrieves the peer (OApp) associated with a corresponding endpoint."
      },
      "setDelegate(address)": {
        "notice": "Sets the delegate address for the OApp."
      },
      "setPeer(uint32,bytes32)": {
        "notice": "Sets the peer address (OApp instance) for a corresponding endpoint."
      }
    },
    "version": 1
  },
  "storageLayout": {
    "storage": [
      {
        "astId": 1533,
        "contract": "contracts/SepoliaContract.sol:SepoliaContract",
        "label": "_owner",
        "offset": 0,
        "slot": "0",
        "type": "t_address"
      },
      {
        "astId": 785,
        "contract": "contracts/SepoliaContract.sol:SepoliaContract",
        "label": "peers",
        "offset": 0,
        "slot": "1",
        "type": "t_mapping(t_uint32,t_bytes32)"
      },
      {
        "astId": 1381,
        "contract": "contracts/SepoliaContract.sol:SepoliaContract",
        "label": "enforcedOptions",
        "offset": 0,
        "slot": "2",
        "type": "t_mapping(t_uint32,t_mapping(t_uint16,t_bytes_storage))"
      },
      {
        "astId": 2731,
        "contract": "contracts/SepoliaContract.sol:SepoliaContract",
        "label": "weth",
        "offset": 0,
        "slot": "3",
        "type": "t_contract(IWETH)2718"
      },
      {
        "astId": 2737,
        "contract": "contracts/SepoliaContract.sol:SepoliaContract",
        "label": "oo",
        "offset": 0,
        "slot": "4",
        "type": "t_contract(OptimisticOracleV2Interface)2677"
      },
      {
        "astId": 2743,
        "contract": "contracts/SepoliaContract.sol:SepoliaContract",
        "label": "identifier",
        "offset": 0,
        "slot": "5",
        "type": "t_bytes32"
      },
      {
        "astId": 2745,
        "contract": "contracts/SepoliaContract.sol:SepoliaContract",
        "label": "requestTime",
        "offset": 0,
        "slot": "6",
        "type": "t_uint256"
      },
      {
        "astId": 2748,
        "contract": "contracts/SepoliaContract.sol:SepoliaContract",
        "label": "data",
        "offset": 0,
        "slot": "7",
        "type": "t_string_storage"
      },
      {
        "astId": 2750,
        "contract": "contracts/SepoliaContract.sol:SepoliaContract",
        "label": "dataReceived",
        "offset": 0,
        "slot": "8",
        "type": "t_bool"
      }
    ],
    "types": {
      "t_address": {
        "encoding": "inplace",
        "label": "address",
        "numberOfBytes": "20"
      },
      "t_bool": {
        "encoding": "inplace",
        "label": "bool",
        "numberOfBytes": "1"
      },
      "t_bytes32": {
        "encoding": "inplace",
        "label": "bytes32",
        "numberOfBytes": "32"
      },
      "t_bytes_storage": {
        "encoding": "bytes",
        "label": "bytes",
        "numberOfBytes": "32"
      },
      "t_contract(IWETH)2718": {
        "encoding": "inplace",
        "label": "contract IWETH",
        "numberOfBytes": "20"
      },
      "t_contract(OptimisticOracleV2Interface)2677": {
        "encoding": "inplace",
        "label": "contract OptimisticOracleV2Interface",
        "numberOfBytes": "20"
      },
      "t_mapping(t_uint16,t_bytes_storage)": {
        "encoding": "mapping",
        "key": "t_uint16",
        "label": "mapping(uint16 => bytes)",
        "numberOfBytes": "32",
        "value": "t_bytes_storage"
      },
      "t_mapping(t_uint32,t_bytes32)": {
        "encoding": "mapping",
        "key": "t_uint32",
        "label": "mapping(uint32 => bytes32)",
        "numberOfBytes": "32",
        "value": "t_bytes32"
      },
      "t_mapping(t_uint32,t_mapping(t_uint16,t_bytes_storage))": {
        "encoding": "mapping",
        "key": "t_uint32",
        "label": "mapping(uint32 => mapping(uint16 => bytes))",
        "numberOfBytes": "32",
        "value": "t_mapping(t_uint16,t_bytes_storage)"
      },
      "t_string_storage": {
        "encoding": "bytes",
        "label": "string",
        "numberOfBytes": "32"
      },
      "t_uint16": {
        "encoding": "inplace",
        "label": "uint16",
        "numberOfBytes": "2"
      },
      "t_uint256": {
        "encoding": "inplace",
        "label": "uint256",
        "numberOfBytes": "32"
      },
      "t_uint32": {
        "encoding": "inplace",
        "label": "uint32",
        "numberOfBytes": "4"
      }
    }
  }
}